{
	"Auction/code/Contract.sol": {
		"EnglishAuction": {
			"abi": [
				{
					"inputs": [
						{
							"internalType": "address payable",
							"name": "_platformAddress",
							"type": "address"
						}
					],
					"stateMutability": "nonpayable",
					"type": "constructor"
				},
				{
					"anonymous": false,
					"inputs": [
						{
							"indexed": false,
							"internalType": "uint256",
							"name": "auctionId",
							"type": "uint256"
						}
					],
					"name": "AuctionCancelled",
					"type": "event"
				},
				{
					"anonymous": false,
					"inputs": [
						{
							"indexed": false,
							"internalType": "uint256",
							"name": "auctionId",
							"type": "uint256"
						},
						{
							"indexed": false,
							"internalType": "address",
							"name": "seller",
							"type": "address"
						},
						{
							"indexed": false,
							"internalType": "uint256",
							"name": "startingPrice",
							"type": "uint256"
						},
						{
							"indexed": false,
							"internalType": "uint256",
							"name": "_startTime",
							"type": "uint256"
						}
					],
					"name": "AuctionCreated",
					"type": "event"
				},
				{
					"anonymous": false,
					"inputs": [
						{
							"indexed": false,
							"internalType": "uint256",
							"name": "auctionId",
							"type": "uint256"
						},
						{
							"indexed": false,
							"internalType": "address",
							"name": "winner",
							"type": "address"
						},
						{
							"indexed": false,
							"internalType": "uint256",
							"name": "amount",
							"type": "uint256"
						}
					],
					"name": "AuctionEnded",
					"type": "event"
				},
				{
					"anonymous": false,
					"inputs": [
						{
							"indexed": false,
							"internalType": "uint256",
							"name": "auctionId",
							"type": "uint256"
						},
						{
							"indexed": false,
							"internalType": "address",
							"name": "bidder",
							"type": "address"
						},
						{
							"indexed": false,
							"internalType": "uint256",
							"name": "amount",
							"type": "uint256"
						}
					],
					"name": "HighestBidIncreased",
					"type": "event"
				},
				{
					"anonymous": false,
					"inputs": [
						{
							"indexed": true,
							"internalType": "address",
							"name": "user",
							"type": "address"
						},
						{
							"indexed": false,
							"internalType": "uint256",
							"name": "amount",
							"type": "uint256"
						}
					],
					"name": "ReserveAdded",
					"type": "event"
				},
				{
					"anonymous": false,
					"inputs": [
						{
							"indexed": false,
							"internalType": "uint256",
							"name": "auctionId",
							"type": "uint256"
						},
						{
							"indexed": false,
							"internalType": "address",
							"name": "bidder",
							"type": "address"
						},
						{
							"indexed": false,
							"internalType": "uint256",
							"name": "reward",
							"type": "uint256"
						}
					],
					"name": "RewardDistributed",
					"type": "event"
				},
				{
					"inputs": [
						{
							"internalType": "uint256",
							"name": "",
							"type": "uint256"
						}
					],
					"name": "auctions",
					"outputs": [
						{
							"internalType": "address",
							"name": "seller",
							"type": "address"
						},
						{
							"internalType": "uint256",
							"name": "startingPrice",
							"type": "uint256"
						},
						{
							"internalType": "uint256",
							"name": "currentHighestBid",
							"type": "uint256"
						},
						{
							"internalType": "address",
							"name": "currentHighestBidder",
							"type": "address"
						},
						{
							"internalType": "bool",
							"name": "ended",
							"type": "bool"
						},
						{
							"internalType": "uint256",
							"name": "totalBidAmount",
							"type": "uint256"
						},
						{
							"internalType": "uint256",
							"name": "startTime",
							"type": "uint256"
						}
					],
					"stateMutability": "view",
					"type": "function"
				},
				{
					"inputs": [
						{
							"internalType": "address",
							"name": "",
							"type": "address"
						}
					],
					"name": "balances",
					"outputs": [
						{
							"internalType": "uint256",
							"name": "",
							"type": "uint256"
						}
					],
					"stateMutability": "view",
					"type": "function"
				},
				{
					"inputs": [
						{
							"internalType": "uint256",
							"name": "_itemId",
							"type": "uint256"
						}
					],
					"name": "bid",
					"outputs": [],
					"stateMutability": "payable",
					"type": "function"
				},
				{
					"inputs": [
						{
							"internalType": "uint256",
							"name": "_itemId",
							"type": "uint256"
						}
					],
					"name": "cancelAuction",
					"outputs": [],
					"stateMutability": "nonpayable",
					"type": "function"
				},
				{
					"inputs": [
						{
							"internalType": "uint256",
							"name": "_startingPrice",
							"type": "uint256"
						},
						{
							"internalType": "uint256",
							"name": "_startTime",
							"type": "uint256"
						}
					],
					"name": "createAuction",
					"outputs": [],
					"stateMutability": "payable",
					"type": "function"
				},
				{
					"inputs": [
						{
							"internalType": "uint256",
							"name": "_itemId",
							"type": "uint256"
						}
					],
					"name": "endAuction",
					"outputs": [],
					"stateMutability": "nonpayable",
					"type": "function"
				},
				{
					"inputs": [],
					"name": "getBalance",
					"outputs": [
						{
							"internalType": "uint256",
							"name": "",
							"type": "uint256"
						}
					],
					"stateMutability": "view",
					"type": "function"
				},
				{
					"inputs": [],
					"name": "nextAuctionId",
					"outputs": [
						{
							"internalType": "uint256",
							"name": "",
							"type": "uint256"
						}
					],
					"stateMutability": "view",
					"type": "function"
				},
				{
					"inputs": [
						{
							"internalType": "address",
							"name": "",
							"type": "address"
						}
					],
					"name": "pendingReturns",
					"outputs": [
						{
							"internalType": "uint256",
							"name": "",
							"type": "uint256"
						}
					],
					"stateMutability": "view",
					"type": "function"
				},
				{
					"inputs": [],
					"name": "platformAddress",
					"outputs": [
						{
							"internalType": "address payable",
							"name": "",
							"type": "address"
						}
					],
					"stateMutability": "view",
					"type": "function"
				},
				{
					"inputs": [],
					"name": "reserve",
					"outputs": [],
					"stateMutability": "payable",
					"type": "function"
				},
				{
					"inputs": [],
					"name": "withdraw",
					"outputs": [],
					"stateMutability": "nonpayable",
					"type": "function"
				}
			],
			"devdoc": {
				"kind": "dev",
				"methods": {},
				"version": 1
			},
			"evm": {
				"assembly": "    /* \"Auction/code/Contract.sol\":135:6894  contract EnglishAuction {... */\n  mstore(0x40, 0x80)\n    /* \"Auction/code/Contract.sol\":1637:1756  constructor(address payable _platformAddress) {... */\n  callvalue\n  dup1\n  iszero\n  tag_1\n  jumpi\n  0x00\n  dup1\n  revert\ntag_1:\n  pop\n  mload(0x40)\n  sub(codesize, bytecodeSize)\n  dup1\n  bytecodeSize\n  dup4\n  codecopy\n  dup2\n  dup2\n  add\n  0x40\n  mstore\n  dup2\n  add\n  swap1\n  tag_2\n  swap2\n  swap1\n  tag_3\n  jump\t// in\ntag_2:\n    /* \"Auction/code/Contract.sol\":1711:1727  _platformAddress */\n  dup1\n    /* \"Auction/code/Contract.sol\":1693:1708  platformAddress */\n  0x03\n  0x00\n    /* \"Auction/code/Contract.sol\":1693:1727  platformAddress = _platformAddress */\n  0x0100\n  exp\n  dup2\n  sload\n  dup2\n  0xffffffffffffffffffffffffffffffffffffffff\n  mul\n  not\n  and\n  swap1\n  dup4\n  0xffffffffffffffffffffffffffffffffffffffff\n  and\n  mul\n  or\n  swap1\n  sstore\n  pop\n    /* \"Auction/code/Contract.sol\":1637:1756  constructor(address payable _platformAddress) {... */\n  pop\n    /* \"Auction/code/Contract.sol\":135:6894  contract EnglishAuction {... */\n  jump(tag_6)\n    /* \"#utility.yul\":88:205   */\ntag_8:\n    /* \"#utility.yul\":197:198   */\n  0x00\n    /* \"#utility.yul\":194:195   */\n  dup1\n    /* \"#utility.yul\":187:199   */\n  revert\n    /* \"#utility.yul\":334:460   */\ntag_10:\n    /* \"#utility.yul\":371:378   */\n  0x00\n    /* \"#utility.yul\":411:453   */\n  0xffffffffffffffffffffffffffffffffffffffff\n    /* \"#utility.yul\":404:409   */\n  dup3\n    /* \"#utility.yul\":400:454   */\n  and\n    /* \"#utility.yul\":389:454   */\n  swap1\n  pop\n    /* \"#utility.yul\":334:460   */\n  swap2\n  swap1\n  pop\n  jump\t// out\n    /* \"#utility.yul\":466:570   */\ntag_11:\n    /* \"#utility.yul\":511:518   */\n  0x00\n    /* \"#utility.yul\":540:564   */\n  tag_20\n    /* \"#utility.yul\":558:563   */\n  dup3\n    /* \"#utility.yul\":540:564   */\n  tag_10\n  jump\t// in\ntag_20:\n    /* \"#utility.yul\":529:564   */\n  swap1\n  pop\n    /* \"#utility.yul\":466:570   */\n  swap2\n  swap1\n  pop\n  jump\t// out\n    /* \"#utility.yul\":576:714   */\ntag_12:\n    /* \"#utility.yul\":657:689   */\n  tag_22\n    /* \"#utility.yul\":683:688   */\n  dup2\n    /* \"#utility.yul\":657:689   */\n  tag_11\n  jump\t// in\ntag_22:\n    /* \"#utility.yul\":650:655   */\n  dup2\n    /* \"#utility.yul\":647:690   */\n  eq\n    /* \"#utility.yul\":637:708   */\n  tag_23\n  jumpi\n    /* \"#utility.yul\":704:705   */\n  0x00\n    /* \"#utility.yul\":701:702   */\n  dup1\n    /* \"#utility.yul\":694:706   */\n  revert\n    /* \"#utility.yul\":637:708   */\ntag_23:\n    /* \"#utility.yul\":576:714   */\n  pop\n  jump\t// out\n    /* \"#utility.yul\":720:879   */\ntag_13:\n    /* \"#utility.yul\":785:790   */\n  0x00\n    /* \"#utility.yul\":816:822   */\n  dup2\n    /* \"#utility.yul\":810:823   */\n  mload\n    /* \"#utility.yul\":801:823   */\n  swap1\n  pop\n    /* \"#utility.yul\":832:873   */\n  tag_25\n    /* \"#utility.yul\":867:872   */\n  dup2\n    /* \"#utility.yul\":832:873   */\n  tag_12\n  jump\t// in\ntag_25:\n    /* \"#utility.yul\":720:879   */\n  swap3\n  swap2\n  pop\n  pop\n  jump\t// out\n    /* \"#utility.yul\":885:1252   */\ntag_3:\n    /* \"#utility.yul\":963:969   */\n  0x00\n    /* \"#utility.yul\":1012:1014   */\n  0x20\n    /* \"#utility.yul\":1000:1009   */\n  dup3\n    /* \"#utility.yul\":991:998   */\n  dup5\n    /* \"#utility.yul\":987:1010   */\n  sub\n    /* \"#utility.yul\":983:1015   */\n  slt\n    /* \"#utility.yul\":980:1099   */\n  iszero\n  tag_27\n  jumpi\n    /* \"#utility.yul\":1018:1097   */\n  tag_28\n  tag_8\n  jump\t// in\ntag_28:\n    /* \"#utility.yul\":980:1099   */\ntag_27:\n    /* \"#utility.yul\":1138:1139   */\n  0x00\n    /* \"#utility.yul\":1163:1235   */\n  tag_29\n    /* \"#utility.yul\":1227:1234   */\n  dup5\n    /* \"#utility.yul\":1218:1224   */\n  dup3\n    /* \"#utility.yul\":1207:1216   */\n  dup6\n    /* \"#utility.yul\":1203:1225   */\n  add\n    /* \"#utility.yul\":1163:1235   */\n  tag_13\n  jump\t// in\ntag_29:\n    /* \"#utility.yul\":1153:1235   */\n  swap2\n  pop\n    /* \"#utility.yul\":1109:1245   */\n  pop\n    /* \"#utility.yul\":885:1252   */\n  swap3\n  swap2\n  pop\n  pop\n  jump\t// out\n    /* \"Auction/code/Contract.sol\":135:6894  contract EnglishAuction {... */\ntag_6:\n  dataSize(sub_0)\n  dup1\n  dataOffset(sub_0)\n  0x00\n  codecopy\n  0x00\n  return\nstop\n\nsub_0: assembly {\n        /* \"Auction/code/Contract.sol\":135:6894  contract EnglishAuction {... */\n      mstore(0x40, 0x80)\n      jumpi(tag_1, lt(calldatasize, 0x04))\n      shr(0xe0, calldataload(0x00))\n      dup1\n      0x571a26a0\n      gt\n      tag_14\n      jumpi\n      dup1\n      0x571a26a0\n      eq\n      tag_8\n      jumpi\n      dup1\n      0x96b5a755\n      eq\n      tag_9\n      jumpi\n      dup1\n      0xb9a2de3a\n      eq\n      tag_10\n      jumpi\n      dup1\n      0xcd3293de\n      eq\n      tag_11\n      jumpi\n      dup1\n      0xdbe55e56\n      eq\n      tag_12\n      jumpi\n      dup1\n      0xfc528482\n      eq\n      tag_13\n      jumpi\n      jump(tag_1)\n    tag_14:\n      dup1\n      0x0121683f\n      eq\n      tag_2\n      jumpi\n      dup1\n      0x12065fe0\n      eq\n      tag_3\n      jumpi\n      dup1\n      0x26b387bb\n      eq\n      tag_4\n      jumpi\n      dup1\n      0x27e235e3\n      eq\n      tag_5\n      jumpi\n      dup1\n      0x3ccfd60b\n      eq\n      tag_6\n      jumpi\n      dup1\n      0x454a2ab3\n      eq\n      tag_7\n      jumpi\n    tag_1:\n      0x00\n      dup1\n      revert\n        /* \"Auction/code/Contract.sol\":1762:2460  function createAuction(uint256 _startingPrice, uint256 _startTime) public payable {... */\n    tag_2:\n      tag_15\n      0x04\n      dup1\n      calldatasize\n      sub\n      dup2\n      add\n      swap1\n      tag_16\n      swap2\n      swap1\n      tag_17\n      jump\t// in\n    tag_16:\n      tag_18\n      jump\t// in\n    tag_15:\n      stop\n        /* \"Auction/code/Contract.sol\":6760:6892  function getBalance() public view returns (uint256) {... */\n    tag_3:\n      callvalue\n      dup1\n      iszero\n      tag_19\n      jumpi\n      0x00\n      dup1\n      revert\n    tag_19:\n      pop\n      tag_20\n      tag_21\n      jump\t// in\n    tag_20:\n      mload(0x40)\n      tag_22\n      swap2\n      swap1\n      tag_23\n      jump\t// in\n    tag_22:\n      mload(0x40)\n      dup1\n      swap2\n      sub\n      swap1\n      return\n        /* \"Auction/code/Contract.sol\":766:815  mapping(address => uint256) public pendingReturns */\n    tag_4:\n      callvalue\n      dup1\n      iszero\n      tag_24\n      jumpi\n      0x00\n      dup1\n      revert\n    tag_24:\n      pop\n      tag_25\n      0x04\n      dup1\n      calldatasize\n      sub\n      dup2\n      add\n      swap1\n      tag_26\n      swap2\n      swap1\n      tag_27\n      jump\t// in\n    tag_26:\n      tag_28\n      jump\t// in\n    tag_25:\n      mload(0x40)\n      tag_29\n      swap2\n      swap1\n      tag_23\n      jump\t// in\n    tag_29:\n      mload(0x40)\n      dup1\n      swap2\n      sub\n      swap1\n      return\n        /* \"Auction/code/Contract.sol\":967:1010  mapping(address => uint256) public balances */\n    tag_5:\n      callvalue\n      dup1\n      iszero\n      tag_30\n      jumpi\n      0x00\n      dup1\n      revert\n    tag_30:\n      pop\n      tag_31\n      0x04\n      dup1\n      calldatasize\n      sub\n      dup2\n      add\n      swap1\n      tag_32\n      swap2\n      swap1\n      tag_27\n      jump\t// in\n    tag_32:\n      tag_33\n      jump\t// in\n    tag_31:\n      mload(0x40)\n      tag_34\n      swap2\n      swap1\n      tag_23\n      jump\t// in\n    tag_34:\n      mload(0x40)\n      dup1\n      swap2\n      sub\n      swap1\n      return\n        /* \"Auction/code/Contract.sol\":6158:6491  function withdraw() public {... */\n    tag_6:\n      callvalue\n      dup1\n      iszero\n      tag_35\n      jumpi\n      0x00\n      dup1\n      revert\n    tag_35:\n      pop\n      tag_36\n      tag_37\n      jump\t// in\n    tag_36:\n      stop\n        /* \"Auction/code/Contract.sol\":2466:3874  function bid(uint256 _itemId) public payable {... */\n    tag_7:\n      tag_38\n      0x04\n      dup1\n      calldatasize\n      sub\n      dup2\n      add\n      swap1\n      tag_39\n      swap2\n      swap1\n      tag_40\n      jump\t// in\n    tag_39:\n      tag_41\n      jump\t// in\n    tag_38:\n      stop\n        /* \"Auction/code/Contract.sol\":677:724  mapping(uint256 => AuctionItem) public auctions */\n    tag_8:\n      callvalue\n      dup1\n      iszero\n      tag_42\n      jumpi\n      0x00\n      dup1\n      revert\n    tag_42:\n      pop\n      tag_43\n      0x04\n      dup1\n      calldatasize\n      sub\n      dup2\n      add\n      swap1\n      tag_44\n      swap2\n      swap1\n      tag_40\n      jump\t// in\n    tag_44:\n      tag_45\n      jump\t// in\n    tag_43:\n      mload(0x40)\n      tag_46\n      swap8\n      swap7\n      swap6\n      swap5\n      swap4\n      swap3\n      swap2\n      swap1\n      tag_47\n      jump\t// in\n    tag_46:\n      mload(0x40)\n      dup1\n      swap2\n      sub\n      swap1\n      return\n        /* \"Auction/code/Contract.sol\":3881:4510  function cancelAuction(uint256 _itemId) public {... */\n    tag_9:\n      callvalue\n      dup1\n      iszero\n      tag_48\n      jumpi\n      0x00\n      dup1\n      revert\n    tag_48:\n      pop\n      tag_49\n      0x04\n      dup1\n      calldatasize\n      sub\n      dup2\n      add\n      swap1\n      tag_50\n      swap2\n      swap1\n      tag_40\n      jump\t// in\n    tag_50:\n      tag_51\n      jump\t// in\n    tag_49:\n      stop\n        /* \"Auction/code/Contract.sol\":4516:6152  function endAuction(uint256 _itemId) public {... */\n    tag_10:\n      callvalue\n      dup1\n      iszero\n      tag_52\n      jumpi\n      0x00\n      dup1\n      revert\n    tag_52:\n      pop\n      tag_53\n      0x04\n      dup1\n      calldatasize\n      sub\n      dup2\n      add\n      swap1\n      tag_54\n      swap2\n      swap1\n      tag_40\n      jump\t// in\n    tag_54:\n      tag_55\n      jump\t// in\n    tag_53:\n      stop\n        /* \"Auction/code/Contract.sol\":6501:6754  function reserve() public payable {... */\n    tag_11:\n      tag_56\n      tag_57\n      jump\t// in\n    tag_56:\n      stop\n        /* \"Auction/code/Contract.sol\":907:945  address payable public platformAddress */\n    tag_12:\n      callvalue\n      dup1\n      iszero\n      tag_58\n      jumpi\n      0x00\n      dup1\n      revert\n    tag_58:\n      pop\n      tag_59\n      tag_60\n      jump\t// in\n    tag_59:\n      mload(0x40)\n      tag_61\n      swap2\n      swap1\n      tag_62\n      jump\t// in\n    tag_61:\n      mload(0x40)\n      dup1\n      swap2\n      sub\n      swap1\n      return\n        /* \"Auction/code/Contract.sol\":852:880  uint256 public nextAuctionId */\n    tag_13:\n      callvalue\n      dup1\n      iszero\n      tag_63\n      jumpi\n      0x00\n      dup1\n      revert\n    tag_63:\n      pop\n      tag_64\n      tag_65\n      jump\t// in\n    tag_64:\n      mload(0x40)\n      tag_66\n      swap2\n      swap1\n      tag_23\n      jump\t// in\n    tag_66:\n      mload(0x40)\n      dup1\n      swap2\n      sub\n      swap1\n      return\n        /* \"Auction/code/Contract.sol\":1762:2460  function createAuction(uint256 _startingPrice, uint256 _startTime) public payable {... */\n    tag_18:\n        /* \"Auction/code/Contract.sol\":1958:1961  100 */\n      0x64\n        /* \"Auction/code/Contract.sol\":1953:1955  20 */\n      0x14\n        /* \"Auction/code/Contract.sol\":1936:1950  _startingPrice */\n      dup4\n        /* \"Auction/code/Contract.sol\":1936:1955  _startingPrice * 20 */\n      tag_68\n      swap2\n      swap1\n      tag_69\n      jump\t// in\n    tag_68:\n        /* \"Auction/code/Contract.sol\":1936:1961  _startingPrice * 20 / 100 */\n      tag_70\n      swap2\n      swap1\n      tag_71\n      jump\t// in\n    tag_70:\n        /* \"Auction/code/Contract.sol\":1922:1931  msg.value */\n      callvalue\n        /* \"Auction/code/Contract.sol\":1922:1962  msg.value >= (_startingPrice * 20 / 100) */\n      lt\n      iszero\n        /* \"Auction/code/Contract.sol\":1914:2013  require(msg.value >= (_startingPrice * 20 / 100), \"Deposit must be at least 20% of starting price\") */\n      tag_72\n      jumpi\n      mload(0x40)\n      0x08c379a000000000000000000000000000000000000000000000000000000000\n      dup2\n      mstore\n      0x04\n      add\n      tag_73\n      swap1\n      tag_74\n      jump\t// in\n    tag_73:\n      mload(0x40)\n      dup1\n      swap2\n      sub\n      swap1\n      revert\n    tag_72:\n        /* \"Auction/code/Contract.sol\":2044:2059  block.timestamp */\n      timestamp\n        /* \"Auction/code/Contract.sol\":2031:2041  _startTime */\n      dup2\n        /* \"Auction/code/Contract.sol\":2031:2059  _startTime > block.timestamp */\n      gt\n        /* \"Auction/code/Contract.sol\":2023:2096  require(_startTime > block.timestamp, \"Start time must be in the future\") */\n      tag_75\n      jumpi\n      mload(0x40)\n      0x08c379a000000000000000000000000000000000000000000000000000000000\n      dup2\n      mstore\n      0x04\n      add\n      tag_76\n      swap1\n      tag_77\n      jump\t// in\n    tag_76:\n      mload(0x40)\n      dup1\n      swap2\n      sub\n      swap1\n      revert\n    tag_75:\n        /* \"Auction/code/Contract.sol\":2107:2120  nextAuctionId */\n      0x02\n      0x00\n        /* \"Auction/code/Contract.sol\":2107:2122  nextAuctionId++ */\n      dup2\n      sload\n      dup1\n      swap3\n      swap2\n      swap1\n      tag_78\n      swap1\n      tag_79\n      jump\t// in\n    tag_78:\n      swap2\n      swap1\n      pop\n      sstore\n      pop\n        /* \"Auction/code/Contract.sol\":2132:2159  AuctionItem storage newItem */\n      0x00\n        /* \"Auction/code/Contract.sol\":2162:2170  auctions */\n      dup1\n        /* \"Auction/code/Contract.sol\":2162:2185  auctions[nextAuctionId] */\n      0x00\n        /* \"Auction/code/Contract.sol\":2171:2184  nextAuctionId */\n      sload(0x02)\n        /* \"Auction/code/Contract.sol\":2162:2185  auctions[nextAuctionId] */\n      dup2\n      mstore\n      0x20\n      add\n      swap1\n      dup2\n      mstore\n      0x20\n      add\n      0x00\n      keccak256\n        /* \"Auction/code/Contract.sol\":2132:2185  AuctionItem storage newItem = auctions[nextAuctionId] */\n      swap1\n      pop\n        /* \"Auction/code/Contract.sol\":2212:2222  msg.sender */\n      caller\n        /* \"Auction/code/Contract.sol\":2195:2202  newItem */\n      dup2\n        /* \"Auction/code/Contract.sol\":2195:2209  newItem.seller */\n      0x00\n      add\n      0x00\n        /* \"Auction/code/Contract.sol\":2195:2222  newItem.seller = msg.sender */\n      0x0100\n      exp\n      dup2\n      sload\n      dup2\n      0xffffffffffffffffffffffffffffffffffffffff\n      mul\n      not\n      and\n      swap1\n      dup4\n      0xffffffffffffffffffffffffffffffffffffffff\n      and\n      mul\n      or\n      swap1\n      sstore\n      pop\n        /* \"Auction/code/Contract.sol\":2256:2270  _startingPrice */\n      dup3\n        /* \"Auction/code/Contract.sol\":2232:2239  newItem */\n      dup2\n        /* \"Auction/code/Contract.sol\":2232:2253  newItem.startingPrice */\n      0x01\n      add\n        /* \"Auction/code/Contract.sol\":2232:2270  newItem.startingPrice = _startingPrice */\n      dup2\n      swap1\n      sstore\n      pop\n        /* \"Auction/code/Contract.sol\":2296:2301  false */\n      0x00\n        /* \"Auction/code/Contract.sol\":2280:2287  newItem */\n      dup2\n        /* \"Auction/code/Contract.sol\":2280:2293  newItem.ended */\n      0x03\n      add\n      0x14\n        /* \"Auction/code/Contract.sol\":2280:2301  newItem.ended = false */\n      0x0100\n      exp\n      dup2\n      sload\n      dup2\n      0xff\n      mul\n      not\n      and\n      swap1\n      dup4\n      iszero\n      iszero\n      mul\n      or\n      swap1\n      sstore\n      pop\n        /* \"Auction/code/Contract.sol\":2331:2341  _startTime */\n      dup2\n        /* \"Auction/code/Contract.sol\":2311:2318  newItem */\n      dup2\n        /* \"Auction/code/Contract.sol\":2311:2328  newItem.startTime */\n      0x07\n      add\n        /* \"Auction/code/Contract.sol\":2311:2341  newItem.startTime = _startTime */\n      dup2\n      swap1\n      sstore\n      pop\n        /* \"Auction/code/Contract.sol\":2356:2425  AuctionCreated(nextAuctionId, msg.sender, _startingPrice, _startTime) */\n      0xc9050d42180a61cb0d9ebb8ad118b62fe6eab12cf12ff752c4a0cc7da9ddf627\n        /* \"Auction/code/Contract.sol\":2371:2384  nextAuctionId */\n      sload(0x02)\n        /* \"Auction/code/Contract.sol\":2386:2396  msg.sender */\n      caller\n        /* \"Auction/code/Contract.sol\":2398:2412  _startingPrice */\n      dup6\n        /* \"Auction/code/Contract.sol\":2414:2424  _startTime */\n      dup6\n        /* \"Auction/code/Contract.sol\":2356:2425  AuctionCreated(nextAuctionId, msg.sender, _startingPrice, _startTime) */\n      mload(0x40)\n      tag_80\n      swap5\n      swap4\n      swap3\n      swap2\n      swap1\n      tag_81\n      jump\t// in\n    tag_80:\n      mload(0x40)\n      dup1\n      swap2\n      sub\n      swap1\n      log1\n        /* \"Auction/code/Contract.sol\":1844:2460  {... */\n      pop\n        /* \"Auction/code/Contract.sol\":1762:2460  function createAuction(uint256 _startingPrice, uint256 _startTime) public payable {... */\n      pop\n      pop\n      jump\t// out\n        /* \"Auction/code/Contract.sol\":6760:6892  function getBalance() public view returns (uint256) {... */\n    tag_21:\n        /* \"Auction/code/Contract.sol\":6803:6810  uint256 */\n      0x00\n        /* \"Auction/code/Contract.sol\":6865:6873  balances */\n      0x04\n        /* \"Auction/code/Contract.sol\":6865:6885  balances[msg.sender] */\n      0x00\n        /* \"Auction/code/Contract.sol\":6874:6884  msg.sender */\n      caller\n        /* \"Auction/code/Contract.sol\":6865:6885  balances[msg.sender] */\n      0xffffffffffffffffffffffffffffffffffffffff\n      and\n      0xffffffffffffffffffffffffffffffffffffffff\n      and\n      dup2\n      mstore\n      0x20\n      add\n      swap1\n      dup2\n      mstore\n      0x20\n      add\n      0x00\n      keccak256\n      sload\n        /* \"Auction/code/Contract.sol\":6858:6885  return balances[msg.sender] */\n      swap1\n      pop\n        /* \"Auction/code/Contract.sol\":6760:6892  function getBalance() public view returns (uint256) {... */\n      swap1\n      jump\t// out\n        /* \"Auction/code/Contract.sol\":766:815  mapping(address => uint256) public pendingReturns */\n    tag_28:\n      mstore(0x20, 0x01)\n      dup1\n      0x00\n      mstore\n      keccak256(0x00, 0x40)\n      0x00\n      swap2\n      pop\n      swap1\n      pop\n      sload\n      dup2\n      jump\t// out\n        /* \"Auction/code/Contract.sol\":967:1010  mapping(address => uint256) public balances */\n    tag_33:\n      mstore(0x20, 0x04)\n      dup1\n      0x00\n      mstore\n      keccak256(0x00, 0x40)\n      0x00\n      swap2\n      pop\n      swap1\n      pop\n      sload\n      dup2\n      jump\t// out\n        /* \"Auction/code/Contract.sol\":6158:6491  function withdraw() public {... */\n    tag_37:\n        /* \"Auction/code/Contract.sol\":6231:6245  uint256 amount */\n      0x00\n        /* \"Auction/code/Contract.sol\":6248:6262  pendingReturns */\n      0x01\n        /* \"Auction/code/Contract.sol\":6248:6274  pendingReturns[msg.sender] */\n      0x00\n        /* \"Auction/code/Contract.sol\":6263:6273  msg.sender */\n      caller\n        /* \"Auction/code/Contract.sol\":6248:6274  pendingReturns[msg.sender] */\n      0xffffffffffffffffffffffffffffffffffffffff\n      and\n      0xffffffffffffffffffffffffffffffffffffffff\n      and\n      dup2\n      mstore\n      0x20\n      add\n      swap1\n      dup2\n      mstore\n      0x20\n      add\n      0x00\n      keccak256\n      sload\n        /* \"Auction/code/Contract.sol\":6231:6274  uint256 amount = pendingReturns[msg.sender] */\n      swap1\n      pop\n        /* \"Auction/code/Contract.sol\":6301:6302  0 */\n      0x00\n        /* \"Auction/code/Contract.sol\":6292:6298  amount */\n      dup2\n        /* \"Auction/code/Contract.sol\":6292:6302  amount > 0 */\n      gt\n        /* \"Auction/code/Contract.sol\":6284:6325  require(amount > 0, \"No pending returns\") */\n      tag_84\n      jumpi\n      mload(0x40)\n      0x08c379a000000000000000000000000000000000000000000000000000000000\n      dup2\n      mstore\n      0x04\n      add\n      tag_85\n      swap1\n      tag_86\n      jump\t// in\n    tag_85:\n      mload(0x40)\n      dup1\n      swap2\n      sub\n      swap1\n      revert\n    tag_84:\n        /* \"Auction/code/Contract.sol\":6393:6394  0 */\n      0x00\n        /* \"Auction/code/Contract.sol\":6364:6378  pendingReturns */\n      0x01\n        /* \"Auction/code/Contract.sol\":6364:6390  pendingReturns[msg.sender] */\n      0x00\n        /* \"Auction/code/Contract.sol\":6379:6389  msg.sender */\n      caller\n        /* \"Auction/code/Contract.sol\":6364:6390  pendingReturns[msg.sender] */\n      0xffffffffffffffffffffffffffffffffffffffff\n      and\n      0xffffffffffffffffffffffffffffffffffffffff\n      and\n      dup2\n      mstore\n      0x20\n      add\n      swap1\n      dup2\n      mstore\n      0x20\n      add\n      0x00\n      keccak256\n        /* \"Auction/code/Contract.sol\":6364:6394  pendingReturns[msg.sender] = 0 */\n      dup2\n      swap1\n      sstore\n      pop\n        /* \"Auction/code/Contract.sol\":6413:6423  msg.sender */\n      caller\n        /* \"Auction/code/Contract.sol\":6405:6433  payable(msg.sender).transfer */\n      0xffffffffffffffffffffffffffffffffffffffff\n      and\n        /* \"Auction/code/Contract.sol\":6405:6441  payable(msg.sender).transfer(amount) */\n      0x08fc\n        /* \"Auction/code/Contract.sol\":6434:6440  amount */\n      dup3\n        /* \"Auction/code/Contract.sol\":6405:6441  payable(msg.sender).transfer(amount) */\n      swap1\n      dup2\n      iszero\n      mul\n      swap1\n      mload(0x40)\n      0x00\n      mload(0x40)\n      dup1\n      dup4\n      sub\n      dup2\n      dup6\n      dup9\n      dup9\n      call\n      swap4\n      pop\n      pop\n      pop\n      pop\n      iszero\n      dup1\n      iszero\n      tag_88\n      jumpi\n      returndatasize\n      0x00\n      dup1\n      returndatacopy\n      revert(0x00, returndatasize)\n    tag_88:\n      pop\n        /* \"Auction/code/Contract.sol\":6185:6491  {... */\n      pop\n        /* \"Auction/code/Contract.sol\":6158:6491  function withdraw() public {... */\n      jump\t// out\n        /* \"Auction/code/Contract.sol\":2466:3874  function bid(uint256 _itemId) public payable {... */\n    tag_41:\n        /* \"Auction/code/Contract.sol\":2545:2569  AuctionItem storage item */\n      0x00\n        /* \"Auction/code/Contract.sol\":2572:2580  auctions */\n      dup1\n        /* \"Auction/code/Contract.sol\":2572:2589  auctions[_itemId] */\n      0x00\n        /* \"Auction/code/Contract.sol\":2581:2588  _itemId */\n      dup4\n        /* \"Auction/code/Contract.sol\":2572:2589  auctions[_itemId] */\n      dup2\n      mstore\n      0x20\n      add\n      swap1\n      dup2\n      mstore\n      0x20\n      add\n      0x00\n      keccak256\n        /* \"Auction/code/Contract.sol\":2545:2589  AuctionItem storage item = auctions[_itemId] */\n      swap1\n      pop\n        /* \"Auction/code/Contract.sol\":2626:2630  item */\n      dup1\n        /* \"Auction/code/Contract.sol\":2626:2640  item.startTime */\n      0x07\n      add\n      sload\n        /* \"Auction/code/Contract.sol\":2607:2622  block.timestamp */\n      timestamp\n        /* \"Auction/code/Contract.sol\":2607:2640  block.timestamp >= item.startTime */\n      lt\n      iszero\n        /* \"Auction/code/Contract.sol\":2599:2672  require(block.timestamp >= item.startTime, \"Auction has not started yet\") */\n      tag_90\n      jumpi\n      mload(0x40)\n      0x08c379a000000000000000000000000000000000000000000000000000000000\n      dup2\n      mstore\n      0x04\n      add\n      tag_91\n      swap1\n      tag_92\n      jump\t// in\n    tag_91:\n      mload(0x40)\n      dup1\n      swap2\n      sub\n      swap1\n      revert\n    tag_90:\n        /* \"Auction/code/Contract.sol\":2716:2720  item */\n      dup1\n        /* \"Auction/code/Contract.sol\":2716:2726  item.ended */\n      0x03\n      add\n      0x14\n      swap1\n      sload\n      swap1\n      0x0100\n      exp\n      swap1\n      div\n      0xff\n      and\n        /* \"Auction/code/Contract.sol\":2715:2726  !item.ended */\n      iszero\n        /* \"Auction/code/Contract.sol\":2707:2752  require(!item.ended, \"Auction already ended\") */\n      tag_93\n      jumpi\n      mload(0x40)\n      0x08c379a000000000000000000000000000000000000000000000000000000000\n      dup2\n      mstore\n      0x04\n      add\n      tag_94\n      swap1\n      tag_95\n      jump\t// in\n    tag_94:\n      mload(0x40)\n      dup1\n      swap2\n      sub\n      swap1\n      revert\n    tag_93:\n        /* \"Auction/code/Contract.sol\":2830:2834  item */\n      dup1\n        /* \"Auction/code/Contract.sol\":2830:2852  item.currentHighestBid */\n      0x02\n      add\n      sload\n        /* \"Auction/code/Contract.sol\":2807:2815  balances */\n      0x04\n        /* \"Auction/code/Contract.sol\":2807:2827  balances[msg.sender] */\n      0x00\n        /* \"Auction/code/Contract.sol\":2816:2826  msg.sender */\n      caller\n        /* \"Auction/code/Contract.sol\":2807:2827  balances[msg.sender] */\n      0xffffffffffffffffffffffffffffffffffffffff\n      and\n      0xffffffffffffffffffffffffffffffffffffffff\n      and\n      dup2\n      mstore\n      0x20\n      add\n      swap1\n      dup2\n      mstore\n      0x20\n      add\n      0x00\n      keccak256\n      sload\n        /* \"Auction/code/Contract.sol\":2795:2804  msg.value */\n      callvalue\n        /* \"Auction/code/Contract.sol\":2795:2827  msg.value + balances[msg.sender] */\n      tag_96\n      swap2\n      swap1\n      tag_97\n      jump\t// in\n    tag_96:\n        /* \"Auction/code/Contract.sol\":2795:2852  msg.value + balances[msg.sender] > item.currentHighestBid */\n      gt\n        /* \"Auction/code/Contract.sol\":2787:2886  require(msg.value + balances[msg.sender] > item.currentHighestBid, \"There already is a higher bid\") */\n      tag_98\n      jumpi\n      mload(0x40)\n      0x08c379a000000000000000000000000000000000000000000000000000000000\n      dup2\n      mstore\n      0x04\n      add\n      tag_99\n      swap1\n      tag_100\n      jump\t// in\n    tag_99:\n      mload(0x40)\n      dup1\n      swap2\n      sub\n      swap1\n      revert\n    tag_98:\n        /* \"Auction/code/Contract.sol\":2937:2959  uint256 totalBidAmount */\n      0x00\n        /* \"Auction/code/Contract.sol\":2974:2982  balances */\n      0x04\n        /* \"Auction/code/Contract.sol\":2974:2994  balances[msg.sender] */\n      0x00\n        /* \"Auction/code/Contract.sol\":2983:2993  msg.sender */\n      caller\n        /* \"Auction/code/Contract.sol\":2974:2994  balances[msg.sender] */\n      0xffffffffffffffffffffffffffffffffffffffff\n      and\n      0xffffffffffffffffffffffffffffffffffffffff\n      and\n      dup2\n      mstore\n      0x20\n      add\n      swap1\n      dup2\n      mstore\n      0x20\n      add\n      0x00\n      keccak256\n      sload\n        /* \"Auction/code/Contract.sol\":2962:2971  msg.value */\n      callvalue\n        /* \"Auction/code/Contract.sol\":2962:2994  msg.value + balances[msg.sender] */\n      tag_101\n      swap2\n      swap1\n      tag_97\n      jump\t// in\n    tag_101:\n        /* \"Auction/code/Contract.sol\":2937:2994  uint256 totalBidAmount = msg.value + balances[msg.sender] */\n      swap1\n      pop\n        /* \"Auction/code/Contract.sol\":3023:3042  uint256 previousBid */\n      0x00\n        /* \"Auction/code/Contract.sol\":3045:3049  item */\n      dup3\n        /* \"Auction/code/Contract.sol\":3045:3060  item.bidAmounts */\n      0x05\n      add\n        /* \"Auction/code/Contract.sol\":3045:3072  item.bidAmounts[msg.sender] */\n      0x00\n        /* \"Auction/code/Contract.sol\":3061:3071  msg.sender */\n      caller\n        /* \"Auction/code/Contract.sol\":3045:3072  item.bidAmounts[msg.sender] */\n      0xffffffffffffffffffffffffffffffffffffffff\n      and\n      0xffffffffffffffffffffffffffffffffffffffff\n      and\n      dup2\n      mstore\n      0x20\n      add\n      swap1\n      dup2\n      mstore\n      0x20\n      add\n      0x00\n      keccak256\n      sload\n        /* \"Auction/code/Contract.sol\":3023:3072  uint256 previousBid = item.bidAmounts[msg.sender] */\n      swap1\n      pop\n        /* \"Auction/code/Contract.sol\":3126:3127  0 */\n      0x00\n        /* \"Auction/code/Contract.sol\":3112:3123  previousBid */\n      dup2\n        /* \"Auction/code/Contract.sol\":3112:3127  previousBid > 0 */\n      gt\n        /* \"Auction/code/Contract.sol\":3108:3412  if (previousBid > 0) {... */\n      iszero\n      tag_102\n      jumpi\n        /* \"Auction/code/Contract.sol\":3143:3164  uint256 additionalBid */\n      0x00\n        /* \"Auction/code/Contract.sol\":3184:3195  previousBid */\n      dup2\n        /* \"Auction/code/Contract.sol\":3167:3181  totalBidAmount */\n      dup4\n        /* \"Auction/code/Contract.sol\":3167:3195  totalBidAmount - previousBid */\n      tag_103\n      swap2\n      swap1\n      tag_104\n      jump\t// in\n    tag_103:\n        /* \"Auction/code/Contract.sol\":3143:3195  uint256 additionalBid = totalBidAmount - previousBid */\n      swap1\n      pop\n        /* \"Auction/code/Contract.sol\":3254:3267  additionalBid */\n      dup1\n        /* \"Auction/code/Contract.sol\":3231:3235  item */\n      dup5\n        /* \"Auction/code/Contract.sol\":3231:3250  item.totalBidAmount */\n      0x04\n      add\n      0x00\n        /* \"Auction/code/Contract.sol\":3231:3267  item.totalBidAmount += additionalBid */\n      dup3\n      dup3\n      sload\n      tag_105\n      swap2\n      swap1\n      tag_97\n      jump\t// in\n    tag_105:\n      swap3\n      pop\n      pop\n      dup2\n      swap1\n      sstore\n      pop\n        /* \"Auction/code/Contract.sol\":3129:3303  {... */\n      pop\n        /* \"Auction/code/Contract.sol\":3108:3412  if (previousBid > 0) {... */\n      jump(tag_106)\n    tag_102:\n        /* \"Auction/code/Contract.sol\":3323:3327  item */\n      dup3\n        /* \"Auction/code/Contract.sol\":3323:3335  item.bidders */\n      0x06\n      add\n        /* \"Auction/code/Contract.sol\":3341:3351  msg.sender */\n      caller\n        /* \"Auction/code/Contract.sol\":3323:3352  item.bidders.push(msg.sender) */\n      swap1\n      dup1\n      0x01\n      dup2\n      sload\n      add\n      dup1\n      dup3\n      sstore\n      dup1\n      swap2\n      pop\n      pop\n      0x01\n      swap1\n      sub\n      swap1\n      0x00\n      mstore\n      keccak256(0x00, 0x20)\n      add\n      0x00\n      swap1\n      swap2\n      swap1\n      swap2\n      swap1\n      swap2\n      0x0100\n      exp\n      dup2\n      sload\n      dup2\n      0xffffffffffffffffffffffffffffffffffffffff\n      mul\n      not\n      and\n      swap1\n      dup4\n      0xffffffffffffffffffffffffffffffffffffffff\n      and\n      mul\n      or\n      swap1\n      sstore\n      pop\n        /* \"Auction/code/Contract.sol\":3108:3412  if (previousBid > 0) {... */\n    tag_106:\n        /* \"Auction/code/Contract.sol\":3452:3466  totalBidAmount */\n      dup2\n        /* \"Auction/code/Contract.sol\":3422:3426  item */\n      dup4\n        /* \"Auction/code/Contract.sol\":3422:3437  item.bidAmounts */\n      0x05\n      add\n        /* \"Auction/code/Contract.sol\":3422:3449  item.bidAmounts[msg.sender] */\n      0x00\n        /* \"Auction/code/Contract.sol\":3438:3448  msg.sender */\n      caller\n        /* \"Auction/code/Contract.sol\":3422:3449  item.bidAmounts[msg.sender] */\n      0xffffffffffffffffffffffffffffffffffffffff\n      and\n      0xffffffffffffffffffffffffffffffffffffffff\n      and\n      dup2\n      mstore\n      0x20\n      add\n      swap1\n      dup2\n      mstore\n      0x20\n      add\n      0x00\n      keccak256\n        /* \"Auction/code/Contract.sol\":3422:3466  item.bidAmounts[msg.sender] = totalBidAmount */\n      dup2\n      swap1\n      sstore\n      pop\n        /* \"Auction/code/Contract.sol\":3535:3549  totalBidAmount */\n      dup2\n        /* \"Auction/code/Contract.sol\":3510:3514  item */\n      dup4\n        /* \"Auction/code/Contract.sol\":3510:3532  item.currentHighestBid */\n      0x02\n      add\n        /* \"Auction/code/Contract.sol\":3510:3549  item.currentHighestBid = totalBidAmount */\n      dup2\n      swap1\n      sstore\n      pop\n        /* \"Auction/code/Contract.sol\":3615:3625  msg.sender */\n      caller\n        /* \"Auction/code/Contract.sol\":3587:3591  item */\n      dup4\n        /* \"Auction/code/Contract.sol\":3587:3612  item.currentHighestBidder */\n      0x03\n      add\n      0x00\n        /* \"Auction/code/Contract.sol\":3587:3625  item.currentHighestBidder = msg.sender */\n      0x0100\n      exp\n      dup2\n      sload\n      dup2\n      0xffffffffffffffffffffffffffffffffffffffff\n      mul\n      not\n      and\n      swap1\n      dup4\n      0xffffffffffffffffffffffffffffffffffffffff\n      and\n      mul\n      or\n      swap1\n      sstore\n      pop\n        /* \"Auction/code/Contract.sol\":3690:3691  0 */\n      0x00\n        /* \"Auction/code/Contract.sol\":3667:3675  balances */\n      0x04\n        /* \"Auction/code/Contract.sol\":3667:3687  balances[msg.sender] */\n      0x00\n        /* \"Auction/code/Contract.sol\":3676:3686  msg.sender */\n      caller\n        /* \"Auction/code/Contract.sol\":3667:3687  balances[msg.sender] */\n      0xffffffffffffffffffffffffffffffffffffffff\n      and\n      0xffffffffffffffffffffffffffffffffffffffff\n      and\n      dup2\n      mstore\n      0x20\n      add\n      swap1\n      dup2\n      mstore\n      0x20\n      add\n      0x00\n      keccak256\n        /* \"Auction/code/Contract.sol\":3667:3691  balances[msg.sender] = 0 */\n      dup2\n      swap1\n      sstore\n      pop\n        /* \"Auction/code/Contract.sol\":3777:3833  HighestBidIncreased(_itemId, msg.sender, totalBidAmount) */\n      0xda0a18da71d8ebd145966339a728fc0d8ccc07c22870d561890d823c515dda6b\n        /* \"Auction/code/Contract.sol\":3797:3804  _itemId */\n      dup5\n        /* \"Auction/code/Contract.sol\":3806:3816  msg.sender */\n      caller\n        /* \"Auction/code/Contract.sol\":3818:3832  totalBidAmount */\n      dup5\n        /* \"Auction/code/Contract.sol\":3777:3833  HighestBidIncreased(_itemId, msg.sender, totalBidAmount) */\n      mload(0x40)\n      tag_108\n      swap4\n      swap3\n      swap2\n      swap1\n      tag_109\n      jump\t// in\n    tag_108:\n      mload(0x40)\n      dup1\n      swap2\n      sub\n      swap1\n      log1\n        /* \"Auction/code/Contract.sol\":2511:3874  {... */\n      pop\n      pop\n      pop\n        /* \"Auction/code/Contract.sol\":2466:3874  function bid(uint256 _itemId) public payable {... */\n      pop\n      jump\t// out\n        /* \"Auction/code/Contract.sol\":677:724  mapping(uint256 => AuctionItem) public auctions */\n    tag_45:\n      mstore(0x20, 0x00)\n      dup1\n      0x00\n      mstore\n      keccak256(0x00, 0x40)\n      0x00\n      swap2\n      pop\n      swap1\n      pop\n      dup1\n      0x00\n      add\n      0x00\n      swap1\n      sload\n      swap1\n      0x0100\n      exp\n      swap1\n      div\n      0xffffffffffffffffffffffffffffffffffffffff\n      and\n      swap1\n      dup1\n      0x01\n      add\n      sload\n      swap1\n      dup1\n      0x02\n      add\n      sload\n      swap1\n      dup1\n      0x03\n      add\n      0x00\n      swap1\n      sload\n      swap1\n      0x0100\n      exp\n      swap1\n      div\n      0xffffffffffffffffffffffffffffffffffffffff\n      and\n      swap1\n      dup1\n      0x03\n      add\n      0x14\n      swap1\n      sload\n      swap1\n      0x0100\n      exp\n      swap1\n      div\n      0xff\n      and\n      swap1\n      dup1\n      0x04\n      add\n      sload\n      swap1\n      dup1\n      0x07\n      add\n      sload\n      swap1\n      pop\n      dup8\n      jump\t// out\n        /* \"Auction/code/Contract.sol\":3881:4510  function cancelAuction(uint256 _itemId) public {... */\n    tag_51:\n        /* \"Auction/code/Contract.sol\":3962:3986  AuctionItem storage item */\n      0x00\n        /* \"Auction/code/Contract.sol\":3989:3997  auctions */\n      dup1\n        /* \"Auction/code/Contract.sol\":3989:4006  auctions[_itemId] */\n      0x00\n        /* \"Auction/code/Contract.sol\":3998:4005  _itemId */\n      dup4\n        /* \"Auction/code/Contract.sol\":3989:4006  auctions[_itemId] */\n      dup2\n      mstore\n      0x20\n      add\n      swap1\n      dup2\n      mstore\n      0x20\n      add\n      0x00\n      keccak256\n        /* \"Auction/code/Contract.sol\":3962:4006  AuctionItem storage item = auctions[_itemId] */\n      swap1\n      pop\n        /* \"Auction/code/Contract.sol\":4038:4042  item */\n      dup1\n        /* \"Auction/code/Contract.sol\":4038:4049  item.seller */\n      0x00\n      add\n      0x00\n      swap1\n      sload\n      swap1\n      0x0100\n      exp\n      swap1\n      div\n      0xffffffffffffffffffffffffffffffffffffffff\n      and\n        /* \"Auction/code/Contract.sol\":4024:4049  msg.sender == item.seller */\n      0xffffffffffffffffffffffffffffffffffffffff\n      and\n        /* \"Auction/code/Contract.sol\":4024:4034  msg.sender */\n      caller\n        /* \"Auction/code/Contract.sol\":4024:4049  msg.sender == item.seller */\n      0xffffffffffffffffffffffffffffffffffffffff\n      and\n      eq\n        /* \"Auction/code/Contract.sol\":4016:4088  require(msg.sender == item.seller, \"Only seller can cancel the auction\") */\n      tag_111\n      jumpi\n      mload(0x40)\n      0x08c379a000000000000000000000000000000000000000000000000000000000\n      dup2\n      mstore\n      0x04\n      add\n      tag_112\n      swap1\n      tag_113\n      jump\t// in\n    tag_112:\n      mload(0x40)\n      dup1\n      swap2\n      sub\n      swap1\n      revert\n    tag_111:\n        /* \"Auction/code/Contract.sol\":4147:4151  item */\n      dup1\n        /* \"Auction/code/Contract.sol\":4147:4157  item.ended */\n      0x03\n      add\n      0x14\n      swap1\n      sload\n      swap1\n      0x0100\n      exp\n      swap1\n      div\n      0xff\n      and\n        /* \"Auction/code/Contract.sol\":4146:4157  !item.ended */\n      iszero\n        /* \"Auction/code/Contract.sol\":4138:4183  require(!item.ended, \"Auction already ended\") */\n      tag_114\n      jumpi\n      mload(0x40)\n      0x08c379a000000000000000000000000000000000000000000000000000000000\n      dup2\n      mstore\n      0x04\n      add\n      tag_115\n      swap1\n      tag_95\n      jump\t// in\n    tag_115:\n      mload(0x40)\n      dup1\n      swap2\n      sub\n      swap1\n      revert\n    tag_114:\n        /* \"Auction/code/Contract.sol\":4261:4282  uint256 penaltyAmount */\n      0x00\n        /* \"Auction/code/Contract.sol\":4324:4327  100 */\n      0x64\n        /* \"Auction/code/Contract.sol\":4319:4321  10 */\n      0x0a\n        /* \"Auction/code/Contract.sol\":4312:4315  100 */\n      0x64\n        /* \"Auction/code/Contract.sol\":4307:4309  20 */\n      0x14\n        /* \"Auction/code/Contract.sol\":4286:4290  item */\n      dup6\n        /* \"Auction/code/Contract.sol\":4286:4304  item.startingPrice */\n      0x01\n      add\n      sload\n        /* \"Auction/code/Contract.sol\":4286:4309  item.startingPrice * 20 */\n      tag_116\n      swap2\n      swap1\n      tag_69\n      jump\t// in\n    tag_116:\n        /* \"Auction/code/Contract.sol\":4286:4315  item.startingPrice * 20 / 100 */\n      tag_117\n      swap2\n      swap1\n      tag_71\n      jump\t// in\n    tag_117:\n        /* \"Auction/code/Contract.sol\":4285:4321  (item.startingPrice * 20 / 100) * 10 */\n      tag_118\n      swap2\n      swap1\n      tag_69\n      jump\t// in\n    tag_118:\n        /* \"Auction/code/Contract.sol\":4285:4327  (item.startingPrice * 20 / 100) * 10 / 100 */\n      tag_119\n      swap2\n      swap1\n      tag_71\n      jump\t// in\n    tag_119:\n        /* \"Auction/code/Contract.sol\":4261:4327  uint256 penaltyAmount = (item.startingPrice * 20 / 100) * 10 / 100 */\n      swap1\n      pop\n        /* \"Auction/code/Contract.sol\":4337:4352  platformAddress */\n      0x03\n      0x00\n      swap1\n      sload\n      swap1\n      0x0100\n      exp\n      swap1\n      div\n      0xffffffffffffffffffffffffffffffffffffffff\n      and\n        /* \"Auction/code/Contract.sol\":4337:4361  platformAddress.transfer */\n      0xffffffffffffffffffffffffffffffffffffffff\n      and\n        /* \"Auction/code/Contract.sol\":4337:4376  platformAddress.transfer(penaltyAmount) */\n      0x08fc\n        /* \"Auction/code/Contract.sol\":4362:4375  penaltyAmount */\n      dup3\n        /* \"Auction/code/Contract.sol\":4337:4376  platformAddress.transfer(penaltyAmount) */\n      swap1\n      dup2\n      iszero\n      mul\n      swap1\n      mload(0x40)\n      0x00\n      mload(0x40)\n      dup1\n      dup4\n      sub\n      dup2\n      dup6\n      dup9\n      dup9\n      call\n      swap4\n      pop\n      pop\n      pop\n      pop\n      iszero\n      dup1\n      iszero\n      tag_121\n      jumpi\n      returndatasize\n      0x00\n      dup1\n      returndatacopy\n      revert(0x00, returndatasize)\n    tag_121:\n      pop\n        /* \"Auction/code/Contract.sol\":4431:4435  true */\n      0x01\n        /* \"Auction/code/Contract.sol\":4418:4422  item */\n      dup3\n        /* \"Auction/code/Contract.sol\":4418:4428  item.ended */\n      0x03\n      add\n      0x14\n        /* \"Auction/code/Contract.sol\":4418:4435  item.ended = true */\n      0x0100\n      exp\n      dup2\n      sload\n      dup2\n      0xff\n      mul\n      not\n      and\n      swap1\n      dup4\n      iszero\n      iszero\n      mul\n      or\n      swap1\n      sstore\n      pop\n        /* \"Auction/code/Contract.sol\":4450:4475  AuctionCancelled(_itemId) */\n      0x2809c7e17bf978fbc7194c0a694b638c4215e9140cacc6c38ca36010b45697df\n        /* \"Auction/code/Contract.sol\":4467:4474  _itemId */\n      dup4\n        /* \"Auction/code/Contract.sol\":4450:4475  AuctionCancelled(_itemId) */\n      mload(0x40)\n      tag_122\n      swap2\n      swap1\n      tag_23\n      jump\t// in\n    tag_122:\n      mload(0x40)\n      dup1\n      swap2\n      sub\n      swap1\n      log1\n        /* \"Auction/code/Contract.sol\":3928:4510  {... */\n      pop\n      pop\n        /* \"Auction/code/Contract.sol\":3881:4510  function cancelAuction(uint256 _itemId) public {... */\n      pop\n      jump\t// out\n        /* \"Auction/code/Contract.sol\":4516:6152  function endAuction(uint256 _itemId) public {... */\n    tag_55:\n        /* \"Auction/code/Contract.sol\":4594:4618  AuctionItem storage item */\n      0x00\n        /* \"Auction/code/Contract.sol\":4621:4629  auctions */\n      dup1\n        /* \"Auction/code/Contract.sol\":4621:4638  auctions[_itemId] */\n      0x00\n        /* \"Auction/code/Contract.sol\":4630:4637  _itemId */\n      dup4\n        /* \"Auction/code/Contract.sol\":4621:4638  auctions[_itemId] */\n      dup2\n      mstore\n      0x20\n      add\n      swap1\n      dup2\n      mstore\n      0x20\n      add\n      0x00\n      keccak256\n        /* \"Auction/code/Contract.sol\":4594:4638  AuctionItem storage item = auctions[_itemId] */\n      swap1\n      pop\n        /* \"Auction/code/Contract.sol\":4670:4674  item */\n      dup1\n        /* \"Auction/code/Contract.sol\":4670:4681  item.seller */\n      0x00\n      add\n      0x00\n      swap1\n      sload\n      swap1\n      0x0100\n      exp\n      swap1\n      div\n      0xffffffffffffffffffffffffffffffffffffffff\n      and\n        /* \"Auction/code/Contract.sol\":4656:4681  msg.sender == item.seller */\n      0xffffffffffffffffffffffffffffffffffffffff\n      and\n        /* \"Auction/code/Contract.sol\":4656:4666  msg.sender */\n      caller\n        /* \"Auction/code/Contract.sol\":4656:4681  msg.sender == item.seller */\n      0xffffffffffffffffffffffffffffffffffffffff\n      and\n      eq\n        /* \"Auction/code/Contract.sol\":4648:4717  require(msg.sender == item.seller, \"Only seller can end the auction\") */\n      tag_124\n      jumpi\n      mload(0x40)\n      0x08c379a000000000000000000000000000000000000000000000000000000000\n      dup2\n      mstore\n      0x04\n      add\n      tag_125\n      swap1\n      tag_126\n      jump\t// in\n    tag_125:\n      mload(0x40)\n      dup1\n      swap2\n      sub\n      swap1\n      revert\n    tag_124:\n        /* \"Auction/code/Contract.sol\":4776:4780  item */\n      dup1\n        /* \"Auction/code/Contract.sol\":4776:4786  item.ended */\n      0x03\n      add\n      0x14\n      swap1\n      sload\n      swap1\n      0x0100\n      exp\n      swap1\n      div\n      0xff\n      and\n        /* \"Auction/code/Contract.sol\":4775:4786  !item.ended */\n      iszero\n        /* \"Auction/code/Contract.sol\":4767:4812  require(!item.ended, \"Auction already ended\") */\n      tag_127\n      jumpi\n      mload(0x40)\n      0x08c379a000000000000000000000000000000000000000000000000000000000\n      dup2\n      mstore\n      0x04\n      add\n      tag_128\n      swap1\n      tag_95\n      jump\t// in\n    tag_128:\n      mload(0x40)\n      dup1\n      swap2\n      sub\n      swap1\n      revert\n    tag_127:\n        /* \"Auction/code/Contract.sol\":4848:4867  uint256 totalAmount */\n      0x00\n        /* \"Auction/code/Contract.sol\":4870:4874  item */\n      dup2\n        /* \"Auction/code/Contract.sol\":4870:4892  item.currentHighestBid */\n      0x02\n      add\n      sload\n        /* \"Auction/code/Contract.sol\":4848:4892  uint256 totalAmount = item.currentHighestBid */\n      swap1\n      pop\n        /* \"Auction/code/Contract.sol\":4921:4940  uint256 platformFee */\n      0x00\n        /* \"Auction/code/Contract.sol\":4961:4964  100 */\n      0x64\n        /* \"Auction/code/Contract.sol\":4957:4958  2 */\n      0x02\n        /* \"Auction/code/Contract.sol\":4943:4954  totalAmount */\n      dup4\n        /* \"Auction/code/Contract.sol\":4943:4958  totalAmount * 2 */\n      tag_129\n      swap2\n      swap1\n      tag_69\n      jump\t// in\n    tag_129:\n        /* \"Auction/code/Contract.sol\":4943:4964  totalAmount * 2 / 100 */\n      tag_130\n      swap2\n      swap1\n      tag_71\n      jump\t// in\n    tag_130:\n        /* \"Auction/code/Contract.sol\":4921:4964  uint256 platformFee = totalAmount * 2 / 100 */\n      swap1\n      pop\n        /* \"Auction/code/Contract.sol\":4995:5015  uint256 sellerAmount */\n      0x00\n        /* \"Auction/code/Contract.sol\":5037:5040  100 */\n      0x64\n        /* \"Auction/code/Contract.sol\":5032:5034  95 */\n      0x5f\n        /* \"Auction/code/Contract.sol\":5018:5029  totalAmount */\n      dup5\n        /* \"Auction/code/Contract.sol\":5018:5034  totalAmount * 95 */\n      tag_131\n      swap2\n      swap1\n      tag_69\n      jump\t// in\n    tag_131:\n        /* \"Auction/code/Contract.sol\":5018:5040  totalAmount * 95 / 100 */\n      tag_132\n      swap2\n      swap1\n      tag_71\n      jump\t// in\n    tag_132:\n        /* \"Auction/code/Contract.sol\":4995:5040  uint256 sellerAmount = totalAmount * 95 / 100 */\n      swap1\n      pop\n        /* \"Auction/code/Contract.sol\":5075:5099  uint256 pre_bidderReward */\n      0x00\n        /* \"Auction/code/Contract.sol\":5120:5123  100 */\n      0x64\n        /* \"Auction/code/Contract.sol\":5116:5117  3 */\n      0x03\n        /* \"Auction/code/Contract.sol\":5102:5113  totalAmount */\n      dup6\n        /* \"Auction/code/Contract.sol\":5102:5117  totalAmount * 3 */\n      tag_133\n      swap2\n      swap1\n      tag_69\n      jump\t// in\n    tag_133:\n        /* \"Auction/code/Contract.sol\":5102:5123  totalAmount * 3 / 100 */\n      tag_134\n      swap2\n      swap1\n      tag_71\n      jump\t// in\n    tag_134:\n        /* \"Auction/code/Contract.sol\":5075:5123  uint256 pre_bidderReward = totalAmount * 3 / 100 */\n      swap1\n      pop\n        /* \"Auction/code/Contract.sol\":5243:5249  uint i */\n      0x00\n        /* \"Auction/code/Contract.sol\":5238:5482  for (uint i = 0; i < item.bidders.length; i++) {... */\n    tag_135:\n        /* \"Auction/code/Contract.sol\":5259:5263  item */\n      dup6\n        /* \"Auction/code/Contract.sol\":5259:5271  item.bidders */\n      0x06\n      add\n        /* \"Auction/code/Contract.sol\":5259:5278  item.bidders.length */\n      dup1\n      sload\n      swap1\n      pop\n        /* \"Auction/code/Contract.sol\":5255:5256  i */\n      dup2\n        /* \"Auction/code/Contract.sol\":5255:5278  i < item.bidders.length */\n      lt\n        /* \"Auction/code/Contract.sol\":5238:5482  for (uint i = 0; i < item.bidders.length; i++) {... */\n      iszero\n      tag_136\n      jumpi\n        /* \"Auction/code/Contract.sol\":5318:5322  item */\n      dup6\n        /* \"Auction/code/Contract.sol\":5318:5343  item.currentHighestBidder */\n      0x03\n      add\n      0x00\n      swap1\n      sload\n      swap1\n      0x0100\n      exp\n      swap1\n      div\n      0xffffffffffffffffffffffffffffffffffffffff\n      and\n        /* \"Auction/code/Contract.sol\":5299:5343  item.bidders[i] == item.currentHighestBidder */\n      0xffffffffffffffffffffffffffffffffffffffff\n      and\n        /* \"Auction/code/Contract.sol\":5299:5303  item */\n      dup7\n        /* \"Auction/code/Contract.sol\":5299:5311  item.bidders */\n      0x06\n      add\n        /* \"Auction/code/Contract.sol\":5312:5313  i */\n      dup3\n        /* \"Auction/code/Contract.sol\":5299:5314  item.bidders[i] */\n      dup2\n      sload\n      dup2\n      lt\n      tag_138\n      jumpi\n      tag_139\n      tag_140\n      jump\t// in\n    tag_139:\n    tag_138:\n      swap1\n      0x00\n      mstore\n      keccak256(0x00, 0x20)\n      add\n      0x00\n      swap1\n      sload\n      swap1\n      0x0100\n      exp\n      swap1\n      div\n      0xffffffffffffffffffffffffffffffffffffffff\n      and\n        /* \"Auction/code/Contract.sol\":5299:5343  item.bidders[i] == item.currentHighestBidder */\n      0xffffffffffffffffffffffffffffffffffffffff\n      and\n      sub\n        /* \"Auction/code/Contract.sol\":5295:5476  if (item.bidders[i] == item.currentHighestBidder) {... */\n      tag_142\n      jumpi\n        /* \"Auction/code/Contract.sol\":5377:5381  item */\n      dup6\n        /* \"Auction/code/Contract.sol\":5377:5389  item.bidders */\n      0x06\n      add\n        /* \"Auction/code/Contract.sol\":5412:5413  1 */\n      0x01\n        /* \"Auction/code/Contract.sol\":5390:5394  item */\n      dup8\n        /* \"Auction/code/Contract.sol\":5390:5402  item.bidders */\n      0x06\n      add\n        /* \"Auction/code/Contract.sol\":5390:5409  item.bidders.length */\n      dup1\n      sload\n      swap1\n      pop\n        /* \"Auction/code/Contract.sol\":5390:5413  item.bidders.length - 1 */\n      tag_143\n      swap2\n      swap1\n      tag_104\n      jump\t// in\n    tag_143:\n        /* \"Auction/code/Contract.sol\":5377:5414  item.bidders[item.bidders.length - 1] */\n      dup2\n      sload\n      dup2\n      lt\n      tag_144\n      jumpi\n      tag_145\n      tag_140\n      jump\t// in\n    tag_145:\n    tag_144:\n      swap1\n      0x00\n      mstore\n      keccak256(0x00, 0x20)\n      add\n      0x00\n      swap1\n      sload\n      swap1\n      0x0100\n      exp\n      swap1\n      div\n      0xffffffffffffffffffffffffffffffffffffffff\n      and\n        /* \"Auction/code/Contract.sol\":5359:5363  item */\n      dup7\n        /* \"Auction/code/Contract.sol\":5359:5371  item.bidders */\n      0x06\n      add\n        /* \"Auction/code/Contract.sol\":5372:5373  i */\n      dup3\n        /* \"Auction/code/Contract.sol\":5359:5374  item.bidders[i] */\n      dup2\n      sload\n      dup2\n      lt\n      tag_147\n      jumpi\n      tag_148\n      tag_140\n      jump\t// in\n    tag_148:\n    tag_147:\n      swap1\n      0x00\n      mstore\n      keccak256(0x00, 0x20)\n      add\n      0x00\n        /* \"Auction/code/Contract.sol\":5359:5414  item.bidders[i] = item.bidders[item.bidders.length - 1] */\n      0x0100\n      exp\n      dup2\n      sload\n      dup2\n      0xffffffffffffffffffffffffffffffffffffffff\n      mul\n      not\n      and\n      swap1\n      dup4\n      0xffffffffffffffffffffffffffffffffffffffff\n      and\n      mul\n      or\n      swap1\n      sstore\n      pop\n        /* \"Auction/code/Contract.sol\":5428:5432  item */\n      dup6\n        /* \"Auction/code/Contract.sol\":5428:5440  item.bidders */\n      0x06\n      add\n        /* \"Auction/code/Contract.sol\":5428:5446  item.bidders.pop() */\n      dup1\n      sload\n      dup1\n      tag_150\n      jumpi\n      tag_151\n      tag_152\n      jump\t// in\n    tag_151:\n    tag_150:\n      0x01\n      swap1\n      sub\n      dup2\n      dup2\n      swap1\n      0x00\n      mstore\n      keccak256(0x00, 0x20)\n      add\n      exp(0x0100, 0x00)\n      dup2\n      sload\n      swap1\n      0xffffffffffffffffffffffffffffffffffffffff\n      mul\n      not\n      and\n      swap1\n      sstore\n      swap1\n      sstore\n        /* \"Auction/code/Contract.sol\":5460:5465  break */\n      jump(tag_136)\n        /* \"Auction/code/Contract.sol\":5295:5476  if (item.bidders[i] == item.currentHighestBidder) {... */\n    tag_142:\n        /* \"Auction/code/Contract.sol\":5280:5283  i++ */\n      dup1\n      dup1\n      0x01\n      add\n      swap2\n      pop\n      pop\n        /* \"Auction/code/Contract.sol\":5238:5482  for (uint i = 0; i < item.bidders.length; i++) {... */\n      jump(tag_135)\n    tag_136:\n      pop\n        /* \"Auction/code/Contract.sol\":5513:5519  uint i */\n      0x00\n        /* \"Auction/code/Contract.sol\":5508:5861  for (uint i = 0; i < item.bidders.length; i++) {... */\n    tag_154:\n        /* \"Auction/code/Contract.sol\":5529:5533  item */\n      dup6\n        /* \"Auction/code/Contract.sol\":5529:5541  item.bidders */\n      0x06\n      add\n        /* \"Auction/code/Contract.sol\":5529:5548  item.bidders.length */\n      dup1\n      sload\n      swap1\n      pop\n        /* \"Auction/code/Contract.sol\":5525:5526  i */\n      dup2\n        /* \"Auction/code/Contract.sol\":5525:5548  i < item.bidders.length */\n      lt\n        /* \"Auction/code/Contract.sol\":5508:5861  for (uint i = 0; i < item.bidders.length; i++) {... */\n      iszero\n      tag_155\n      jumpi\n        /* \"Auction/code/Contract.sol\":5565:5579  address bidder */\n      0x00\n        /* \"Auction/code/Contract.sol\":5582:5586  item */\n      dup7\n        /* \"Auction/code/Contract.sol\":5582:5594  item.bidders */\n      0x06\n      add\n        /* \"Auction/code/Contract.sol\":5595:5596  i */\n      dup3\n        /* \"Auction/code/Contract.sol\":5582:5597  item.bidders[i] */\n      dup2\n      sload\n      dup2\n      lt\n      tag_157\n      jumpi\n      tag_158\n      tag_140\n      jump\t// in\n    tag_158:\n    tag_157:\n      swap1\n      0x00\n      mstore\n      keccak256(0x00, 0x20)\n      add\n      0x00\n      swap1\n      sload\n      swap1\n      0x0100\n      exp\n      swap1\n      div\n      0xffffffffffffffffffffffffffffffffffffffff\n      and\n        /* \"Auction/code/Contract.sol\":5565:5597  address bidder = item.bidders[i] */\n      swap1\n      pop\n        /* \"Auction/code/Contract.sol\":5607:5627  uint256 bidderReward */\n      0x00\n        /* \"Auction/code/Contract.sol\":5677:5681  item */\n      dup8\n        /* \"Auction/code/Contract.sol\":5677:5696  item.totalBidAmount */\n      0x04\n      add\n      sload\n        /* \"Auction/code/Contract.sol\":5657:5673  pre_bidderReward */\n      dup5\n        /* \"Auction/code/Contract.sol\":5631:5635  item */\n      dup10\n        /* \"Auction/code/Contract.sol\":5631:5646  item.bidAmounts */\n      0x05\n      add\n        /* \"Auction/code/Contract.sol\":5631:5654  item.bidAmounts[bidder] */\n      0x00\n        /* \"Auction/code/Contract.sol\":5647:5653  bidder */\n      dup6\n        /* \"Auction/code/Contract.sol\":5631:5654  item.bidAmounts[bidder] */\n      0xffffffffffffffffffffffffffffffffffffffff\n      and\n      0xffffffffffffffffffffffffffffffffffffffff\n      and\n      dup2\n      mstore\n      0x20\n      add\n      swap1\n      dup2\n      mstore\n      0x20\n      add\n      0x00\n      keccak256\n      sload\n        /* \"Auction/code/Contract.sol\":5631:5673  item.bidAmounts[bidder] * pre_bidderReward */\n      tag_160\n      swap2\n      swap1\n      tag_69\n      jump\t// in\n    tag_160:\n        /* \"Auction/code/Contract.sol\":5630:5696  (item.bidAmounts[bidder] * pre_bidderReward) / item.totalBidAmount */\n      tag_161\n      swap2\n      swap1\n      tag_71\n      jump\t// in\n    tag_161:\n        /* \"Auction/code/Contract.sol\":5607:5696  uint256 bidderReward = (item.bidAmounts[bidder] * pre_bidderReward) / item.totalBidAmount */\n      swap1\n      pop\n        /* \"Auction/code/Contract.sol\":5751:5763  bidderReward */\n      dup1\n        /* \"Auction/code/Contract.sol\":5725:5739  pendingReturns */\n      0x01\n        /* \"Auction/code/Contract.sol\":5725:5747  pendingReturns[bidder] */\n      0x00\n        /* \"Auction/code/Contract.sol\":5740:5746  bidder */\n      dup5\n        /* \"Auction/code/Contract.sol\":5725:5747  pendingReturns[bidder] */\n      0xffffffffffffffffffffffffffffffffffffffff\n      and\n      0xffffffffffffffffffffffffffffffffffffffff\n      and\n      dup2\n      mstore\n      0x20\n      add\n      swap1\n      dup2\n      mstore\n      0x20\n      add\n      0x00\n      keccak256\n      0x00\n        /* \"Auction/code/Contract.sol\":5725:5763  pendingReturns[bidder] += bidderReward */\n      dup3\n      dup3\n      sload\n      tag_162\n      swap2\n      swap1\n      tag_97\n      jump\t// in\n    tag_162:\n      swap3\n      pop\n      pop\n      dup2\n      swap1\n      sstore\n      pop\n        /* \"Auction/code/Contract.sol\":5778:5826  RewardDistributed(_itemId, bidder, bidderReward) */\n      0xab7542bafced3da2d8c881cb2dd1de859fac7c20d3650d2902ad389a64e08883\n        /* \"Auction/code/Contract.sol\":5796:5803  _itemId */\n      dup10\n        /* \"Auction/code/Contract.sol\":5805:5811  bidder */\n      dup4\n        /* \"Auction/code/Contract.sol\":5813:5825  bidderReward */\n      dup4\n        /* \"Auction/code/Contract.sol\":5778:5826  RewardDistributed(_itemId, bidder, bidderReward) */\n      mload(0x40)\n      tag_163\n      swap4\n      swap3\n      swap2\n      swap1\n      tag_109\n      jump\t// in\n    tag_163:\n      mload(0x40)\n      dup1\n      swap2\n      sub\n      swap1\n      log1\n        /* \"Auction/code/Contract.sol\":5555:5861  {... */\n      pop\n      pop\n        /* \"Auction/code/Contract.sol\":5550:5553  i++ */\n      dup1\n      dup1\n      0x01\n      add\n      swap2\n      pop\n      pop\n        /* \"Auction/code/Contract.sol\":5508:5861  for (uint i = 0; i < item.bidders.length; i++) {... */\n      jump(tag_154)\n    tag_155:\n      pop\n        /* \"Auction/code/Contract.sol\":5870:5885  platformAddress */\n      0x03\n      0x00\n      swap1\n      sload\n      swap1\n      0x0100\n      exp\n      swap1\n      div\n      0xffffffffffffffffffffffffffffffffffffffff\n      and\n        /* \"Auction/code/Contract.sol\":5870:5894  platformAddress.transfer */\n      0xffffffffffffffffffffffffffffffffffffffff\n      and\n        /* \"Auction/code/Contract.sol\":5870:5907  platformAddress.transfer(platformFee) */\n      0x08fc\n        /* \"Auction/code/Contract.sol\":5895:5906  platformFee */\n      dup5\n        /* \"Auction/code/Contract.sol\":5870:5907  platformAddress.transfer(platformFee) */\n      swap1\n      dup2\n      iszero\n      mul\n      swap1\n      mload(0x40)\n      0x00\n      mload(0x40)\n      dup1\n      dup4\n      sub\n      dup2\n      dup6\n      dup9\n      dup9\n      call\n      swap4\n      pop\n      pop\n      pop\n      pop\n      iszero\n      dup1\n      iszero\n      tag_165\n      jumpi\n      returndatasize\n      0x00\n      dup1\n      returndatacopy\n      revert(0x00, returndatasize)\n    tag_165:\n      pop\n        /* \"Auction/code/Contract.sol\":5950:5954  item */\n      dup5\n        /* \"Auction/code/Contract.sol\":5950:5961  item.seller */\n      0x00\n      add\n      0x00\n      swap1\n      sload\n      swap1\n      0x0100\n      exp\n      swap1\n      div\n      0xffffffffffffffffffffffffffffffffffffffff\n      and\n        /* \"Auction/code/Contract.sol\":5942:5971  payable(item.seller).transfer */\n      0xffffffffffffffffffffffffffffffffffffffff\n      and\n        /* \"Auction/code/Contract.sol\":5942:5985  payable(item.seller).transfer(sellerAmount) */\n      0x08fc\n        /* \"Auction/code/Contract.sol\":5972:5984  sellerAmount */\n      dup4\n        /* \"Auction/code/Contract.sol\":5942:5985  payable(item.seller).transfer(sellerAmount) */\n      swap1\n      dup2\n      iszero\n      mul\n      swap1\n      mload(0x40)\n      0x00\n      mload(0x40)\n      dup1\n      dup4\n      sub\n      dup2\n      dup6\n      dup9\n      dup9\n      call\n      swap4\n      pop\n      pop\n      pop\n      pop\n      iszero\n      dup1\n      iszero\n      tag_167\n      jumpi\n      returndatasize\n      0x00\n      dup1\n      returndatacopy\n      revert(0x00, returndatasize)\n    tag_167:\n      pop\n        /* \"Auction/code/Contract.sol\":6037:6041  true */\n      0x01\n        /* \"Auction/code/Contract.sol\":6024:6028  item */\n      dup6\n        /* \"Auction/code/Contract.sol\":6024:6034  item.ended */\n      0x03\n      add\n      0x14\n        /* \"Auction/code/Contract.sol\":6024:6041  item.ended = true */\n      0x0100\n      exp\n      dup2\n      sload\n      dup2\n      0xff\n      mul\n      not\n      and\n      swap1\n      dup4\n      iszero\n      iszero\n      mul\n      or\n      swap1\n      sstore\n      pop\n        /* \"Auction/code/Contract.sol\":6056:6117  AuctionEnded(_itemId, item.currentHighestBidder, totalAmount) */\n      0xd2aa34a4fdbbc6dff6a3e56f46e0f3ae2a31d7785ff3487aa5c95c642acea501\n        /* \"Auction/code/Contract.sol\":6069:6076  _itemId */\n      dup7\n        /* \"Auction/code/Contract.sol\":6078:6082  item */\n      dup7\n        /* \"Auction/code/Contract.sol\":6078:6103  item.currentHighestBidder */\n      0x03\n      add\n      0x00\n      swap1\n      sload\n      swap1\n      0x0100\n      exp\n      swap1\n      div\n      0xffffffffffffffffffffffffffffffffffffffff\n      and\n        /* \"Auction/code/Contract.sol\":6105:6116  totalAmount */\n      dup7\n        /* \"Auction/code/Contract.sol\":6056:6117  AuctionEnded(_itemId, item.currentHighestBidder, totalAmount) */\n      mload(0x40)\n      tag_168\n      swap4\n      swap3\n      swap2\n      swap1\n      tag_109\n      jump\t// in\n    tag_168:\n      mload(0x40)\n      dup1\n      swap2\n      sub\n      swap1\n      log1\n        /* \"Auction/code/Contract.sol\":4560:6152  {... */\n      pop\n      pop\n      pop\n      pop\n      pop\n        /* \"Auction/code/Contract.sol\":4516:6152  function endAuction(uint256 _itemId) public {... */\n      pop\n      jump\t// out\n        /* \"Auction/code/Contract.sol\":6501:6754  function reserve() public payable {... */\n    tag_57:\n        /* \"Auction/code/Contract.sol\":6589:6590  0 */\n      0x00\n        /* \"Auction/code/Contract.sol\":6577:6586  msg.value */\n      callvalue\n        /* \"Auction/code/Contract.sol\":6577:6590  msg.value > 0 */\n      gt\n        /* \"Auction/code/Contract.sol\":6569:6626  require(msg.value > 0, \"Must send ETH to add to reserve\") */\n      tag_170\n      jumpi\n      mload(0x40)\n      0x08c379a000000000000000000000000000000000000000000000000000000000\n      dup2\n      mstore\n      0x04\n      add\n      tag_171\n      swap1\n      tag_172\n      jump\t// in\n    tag_171:\n      mload(0x40)\n      dup1\n      swap2\n      sub\n      swap1\n      revert\n    tag_170:\n        /* \"Auction/code/Contract.sol\":6660:6669  msg.value */\n      callvalue\n        /* \"Auction/code/Contract.sol\":6636:6644  balances */\n      0x04\n        /* \"Auction/code/Contract.sol\":6636:6656  balances[msg.sender] */\n      0x00\n        /* \"Auction/code/Contract.sol\":6645:6655  msg.sender */\n      caller\n        /* \"Auction/code/Contract.sol\":6636:6656  balances[msg.sender] */\n      0xffffffffffffffffffffffffffffffffffffffff\n      and\n      0xffffffffffffffffffffffffffffffffffffffff\n      and\n      dup2\n      mstore\n      0x20\n      add\n      swap1\n      dup2\n      mstore\n      0x20\n      add\n      0x00\n      keccak256\n      0x00\n        /* \"Auction/code/Contract.sol\":6636:6669  balances[msg.sender] += msg.value */\n      dup3\n      dup3\n      sload\n      tag_173\n      swap2\n      swap1\n      tag_97\n      jump\t// in\n    tag_173:\n      swap3\n      pop\n      pop\n      dup2\n      swap1\n      sstore\n      pop\n        /* \"Auction/code/Contract.sol\":6697:6707  msg.sender */\n      caller\n        /* \"Auction/code/Contract.sol\":6684:6719  ReserveAdded(msg.sender, msg.value) */\n      0xffffffffffffffffffffffffffffffffffffffff\n      and\n      0x5d183725a9a2161720fa02284e6c4892241de78607e9b8b5b8defc396f22418c\n        /* \"Auction/code/Contract.sol\":6709:6718  msg.value */\n      callvalue\n        /* \"Auction/code/Contract.sol\":6684:6719  ReserveAdded(msg.sender, msg.value) */\n      mload(0x40)\n      tag_174\n      swap2\n      swap1\n      tag_23\n      jump\t// in\n    tag_174:\n      mload(0x40)\n      dup1\n      swap2\n      sub\n      swap1\n      log2\n        /* \"Auction/code/Contract.sol\":6501:6754  function reserve() public payable {... */\n      jump\t// out\n        /* \"Auction/code/Contract.sol\":907:945  address payable public platformAddress */\n    tag_60:\n      0x03\n      0x00\n      swap1\n      sload\n      swap1\n      0x0100\n      exp\n      swap1\n      div\n      0xffffffffffffffffffffffffffffffffffffffff\n      and\n      dup2\n      jump\t// out\n        /* \"Auction/code/Contract.sol\":852:880  uint256 public nextAuctionId */\n    tag_65:\n      sload(0x02)\n      dup2\n      jump\t// out\n        /* \"#utility.yul\":88:205   */\n    tag_176:\n        /* \"#utility.yul\":197:198   */\n      0x00\n        /* \"#utility.yul\":194:195   */\n      dup1\n        /* \"#utility.yul\":187:199   */\n      revert\n        /* \"#utility.yul\":334:411   */\n    tag_178:\n        /* \"#utility.yul\":371:378   */\n      0x00\n        /* \"#utility.yul\":400:405   */\n      dup2\n        /* \"#utility.yul\":389:405   */\n      swap1\n      pop\n        /* \"#utility.yul\":334:411   */\n      swap2\n      swap1\n      pop\n      jump\t// out\n        /* \"#utility.yul\":417:539   */\n    tag_179:\n        /* \"#utility.yul\":490:514   */\n      tag_218\n        /* \"#utility.yul\":508:513   */\n      dup2\n        /* \"#utility.yul\":490:514   */\n      tag_178\n      jump\t// in\n    tag_218:\n        /* \"#utility.yul\":483:488   */\n      dup2\n        /* \"#utility.yul\":480:515   */\n      eq\n        /* \"#utility.yul\":470:533   */\n      tag_219\n      jumpi\n        /* \"#utility.yul\":529:530   */\n      0x00\n        /* \"#utility.yul\":526:527   */\n      dup1\n        /* \"#utility.yul\":519:531   */\n      revert\n        /* \"#utility.yul\":470:533   */\n    tag_219:\n        /* \"#utility.yul\":417:539   */\n      pop\n      jump\t// out\n        /* \"#utility.yul\":545:684   */\n    tag_180:\n        /* \"#utility.yul\":591:596   */\n      0x00\n        /* \"#utility.yul\":629:635   */\n      dup2\n        /* \"#utility.yul\":616:636   */\n      calldataload\n        /* \"#utility.yul\":607:636   */\n      swap1\n      pop\n        /* \"#utility.yul\":645:678   */\n      tag_221\n        /* \"#utility.yul\":672:677   */\n      dup2\n        /* \"#utility.yul\":645:678   */\n      tag_179\n      jump\t// in\n    tag_221:\n        /* \"#utility.yul\":545:684   */\n      swap3\n      swap2\n      pop\n      pop\n      jump\t// out\n        /* \"#utility.yul\":690:1164   */\n    tag_17:\n        /* \"#utility.yul\":758:764   */\n      0x00\n        /* \"#utility.yul\":766:772   */\n      dup1\n        /* \"#utility.yul\":815:817   */\n      0x40\n        /* \"#utility.yul\":803:812   */\n      dup4\n        /* \"#utility.yul\":794:801   */\n      dup6\n        /* \"#utility.yul\":790:813   */\n      sub\n        /* \"#utility.yul\":786:818   */\n      slt\n        /* \"#utility.yul\":783:902   */\n      iszero\n      tag_223\n      jumpi\n        /* \"#utility.yul\":821:900   */\n      tag_224\n      tag_176\n      jump\t// in\n    tag_224:\n        /* \"#utility.yul\":783:902   */\n    tag_223:\n        /* \"#utility.yul\":941:942   */\n      0x00\n        /* \"#utility.yul\":966:1019   */\n      tag_225\n        /* \"#utility.yul\":1011:1018   */\n      dup6\n        /* \"#utility.yul\":1002:1008   */\n      dup3\n        /* \"#utility.yul\":991:1000   */\n      dup7\n        /* \"#utility.yul\":987:1009   */\n      add\n        /* \"#utility.yul\":966:1019   */\n      tag_180\n      jump\t// in\n    tag_225:\n        /* \"#utility.yul\":956:1019   */\n      swap3\n      pop\n        /* \"#utility.yul\":912:1029   */\n      pop\n        /* \"#utility.yul\":1068:1070   */\n      0x20\n        /* \"#utility.yul\":1094:1147   */\n      tag_226\n        /* \"#utility.yul\":1139:1146   */\n      dup6\n        /* \"#utility.yul\":1130:1136   */\n      dup3\n        /* \"#utility.yul\":1119:1128   */\n      dup7\n        /* \"#utility.yul\":1115:1137   */\n      add\n        /* \"#utility.yul\":1094:1147   */\n      tag_180\n      jump\t// in\n    tag_226:\n        /* \"#utility.yul\":1084:1147   */\n      swap2\n      pop\n        /* \"#utility.yul\":1039:1157   */\n      pop\n        /* \"#utility.yul\":690:1164   */\n      swap3\n      pop\n      swap3\n      swap1\n      pop\n      jump\t// out\n        /* \"#utility.yul\":1170:1288   */\n    tag_181:\n        /* \"#utility.yul\":1257:1281   */\n      tag_228\n        /* \"#utility.yul\":1275:1280   */\n      dup2\n        /* \"#utility.yul\":1257:1281   */\n      tag_178\n      jump\t// in\n    tag_228:\n        /* \"#utility.yul\":1252:1255   */\n      dup3\n        /* \"#utility.yul\":1245:1282   */\n      mstore\n        /* \"#utility.yul\":1170:1288   */\n      pop\n      pop\n      jump\t// out\n        /* \"#utility.yul\":1294:1516   */\n    tag_23:\n        /* \"#utility.yul\":1387:1391   */\n      0x00\n        /* \"#utility.yul\":1425:1427   */\n      0x20\n        /* \"#utility.yul\":1414:1423   */\n      dup3\n        /* \"#utility.yul\":1410:1428   */\n      add\n        /* \"#utility.yul\":1402:1428   */\n      swap1\n      pop\n        /* \"#utility.yul\":1438:1509   */\n      tag_230\n        /* \"#utility.yul\":1506:1507   */\n      0x00\n        /* \"#utility.yul\":1495:1504   */\n      dup4\n        /* \"#utility.yul\":1491:1508   */\n      add\n        /* \"#utility.yul\":1482:1488   */\n      dup5\n        /* \"#utility.yul\":1438:1509   */\n      tag_181\n      jump\t// in\n    tag_230:\n        /* \"#utility.yul\":1294:1516   */\n      swap3\n      swap2\n      pop\n      pop\n      jump\t// out\n        /* \"#utility.yul\":1522:1648   */\n    tag_182:\n        /* \"#utility.yul\":1559:1566   */\n      0x00\n        /* \"#utility.yul\":1599:1641   */\n      0xffffffffffffffffffffffffffffffffffffffff\n        /* \"#utility.yul\":1592:1597   */\n      dup3\n        /* \"#utility.yul\":1588:1642   */\n      and\n        /* \"#utility.yul\":1577:1642   */\n      swap1\n      pop\n        /* \"#utility.yul\":1522:1648   */\n      swap2\n      swap1\n      pop\n      jump\t// out\n        /* \"#utility.yul\":1654:1750   */\n    tag_183:\n        /* \"#utility.yul\":1691:1698   */\n      0x00\n        /* \"#utility.yul\":1720:1744   */\n      tag_233\n        /* \"#utility.yul\":1738:1743   */\n      dup3\n        /* \"#utility.yul\":1720:1744   */\n      tag_182\n      jump\t// in\n    tag_233:\n        /* \"#utility.yul\":1709:1744   */\n      swap1\n      pop\n        /* \"#utility.yul\":1654:1750   */\n      swap2\n      swap1\n      pop\n      jump\t// out\n        /* \"#utility.yul\":1756:1878   */\n    tag_184:\n        /* \"#utility.yul\":1829:1853   */\n      tag_235\n        /* \"#utility.yul\":1847:1852   */\n      dup2\n        /* \"#utility.yul\":1829:1853   */\n      tag_183\n      jump\t// in\n    tag_235:\n        /* \"#utility.yul\":1822:1827   */\n      dup2\n        /* \"#utility.yul\":1819:1854   */\n      eq\n        /* \"#utility.yul\":1809:1872   */\n      tag_236\n      jumpi\n        /* \"#utility.yul\":1868:1869   */\n      0x00\n        /* \"#utility.yul\":1865:1866   */\n      dup1\n        /* \"#utility.yul\":1858:1870   */\n      revert\n        /* \"#utility.yul\":1809:1872   */\n    tag_236:\n        /* \"#utility.yul\":1756:1878   */\n      pop\n      jump\t// out\n        /* \"#utility.yul\":1884:2023   */\n    tag_185:\n        /* \"#utility.yul\":1930:1935   */\n      0x00\n        /* \"#utility.yul\":1968:1974   */\n      dup2\n        /* \"#utility.yul\":1955:1975   */\n      calldataload\n        /* \"#utility.yul\":1946:1975   */\n      swap1\n      pop\n        /* \"#utility.yul\":1984:2017   */\n      tag_238\n        /* \"#utility.yul\":2011:2016   */\n      dup2\n        /* \"#utility.yul\":1984:2017   */\n      tag_184\n      jump\t// in\n    tag_238:\n        /* \"#utility.yul\":1884:2023   */\n      swap3\n      swap2\n      pop\n      pop\n      jump\t// out\n        /* \"#utility.yul\":2029:2358   */\n    tag_27:\n        /* \"#utility.yul\":2088:2094   */\n      0x00\n        /* \"#utility.yul\":2137:2139   */\n      0x20\n        /* \"#utility.yul\":2125:2134   */\n      dup3\n        /* \"#utility.yul\":2116:2123   */\n      dup5\n        /* \"#utility.yul\":2112:2135   */\n      sub\n        /* \"#utility.yul\":2108:2140   */\n      slt\n        /* \"#utility.yul\":2105:2224   */\n      iszero\n      tag_240\n      jumpi\n        /* \"#utility.yul\":2143:2222   */\n      tag_241\n      tag_176\n      jump\t// in\n    tag_241:\n        /* \"#utility.yul\":2105:2224   */\n    tag_240:\n        /* \"#utility.yul\":2263:2264   */\n      0x00\n        /* \"#utility.yul\":2288:2341   */\n      tag_242\n        /* \"#utility.yul\":2333:2340   */\n      dup5\n        /* \"#utility.yul\":2324:2330   */\n      dup3\n        /* \"#utility.yul\":2313:2322   */\n      dup6\n        /* \"#utility.yul\":2309:2331   */\n      add\n        /* \"#utility.yul\":2288:2341   */\n      tag_185\n      jump\t// in\n    tag_242:\n        /* \"#utility.yul\":2278:2341   */\n      swap2\n      pop\n        /* \"#utility.yul\":2234:2351   */\n      pop\n        /* \"#utility.yul\":2029:2358   */\n      swap3\n      swap2\n      pop\n      pop\n      jump\t// out\n        /* \"#utility.yul\":2364:2693   */\n    tag_40:\n        /* \"#utility.yul\":2423:2429   */\n      0x00\n        /* \"#utility.yul\":2472:2474   */\n      0x20\n        /* \"#utility.yul\":2460:2469   */\n      dup3\n        /* \"#utility.yul\":2451:2458   */\n      dup5\n        /* \"#utility.yul\":2447:2470   */\n      sub\n        /* \"#utility.yul\":2443:2475   */\n      slt\n        /* \"#utility.yul\":2440:2559   */\n      iszero\n      tag_244\n      jumpi\n        /* \"#utility.yul\":2478:2557   */\n      tag_245\n      tag_176\n      jump\t// in\n    tag_245:\n        /* \"#utility.yul\":2440:2559   */\n    tag_244:\n        /* \"#utility.yul\":2598:2599   */\n      0x00\n        /* \"#utility.yul\":2623:2676   */\n      tag_246\n        /* \"#utility.yul\":2668:2675   */\n      dup5\n        /* \"#utility.yul\":2659:2665   */\n      dup3\n        /* \"#utility.yul\":2648:2657   */\n      dup6\n        /* \"#utility.yul\":2644:2666   */\n      add\n        /* \"#utility.yul\":2623:2676   */\n      tag_180\n      jump\t// in\n    tag_246:\n        /* \"#utility.yul\":2613:2676   */\n      swap2\n      pop\n        /* \"#utility.yul\":2569:2686   */\n      pop\n        /* \"#utility.yul\":2364:2693   */\n      swap3\n      swap2\n      pop\n      pop\n      jump\t// out\n        /* \"#utility.yul\":2699:2817   */\n    tag_186:\n        /* \"#utility.yul\":2786:2810   */\n      tag_248\n        /* \"#utility.yul\":2804:2809   */\n      dup2\n        /* \"#utility.yul\":2786:2810   */\n      tag_183\n      jump\t// in\n    tag_248:\n        /* \"#utility.yul\":2781:2784   */\n      dup3\n        /* \"#utility.yul\":2774:2811   */\n      mstore\n        /* \"#utility.yul\":2699:2817   */\n      pop\n      pop\n      jump\t// out\n        /* \"#utility.yul\":2823:2913   */\n    tag_187:\n        /* \"#utility.yul\":2857:2864   */\n      0x00\n        /* \"#utility.yul\":2900:2905   */\n      dup2\n        /* \"#utility.yul\":2893:2906   */\n      iszero\n        /* \"#utility.yul\":2886:2907   */\n      iszero\n        /* \"#utility.yul\":2875:2907   */\n      swap1\n      pop\n        /* \"#utility.yul\":2823:2913   */\n      swap2\n      swap1\n      pop\n      jump\t// out\n        /* \"#utility.yul\":2919:3028   */\n    tag_188:\n        /* \"#utility.yul\":3000:3021   */\n      tag_251\n        /* \"#utility.yul\":3015:3020   */\n      dup2\n        /* \"#utility.yul\":3000:3021   */\n      tag_187\n      jump\t// in\n    tag_251:\n        /* \"#utility.yul\":2995:2998   */\n      dup3\n        /* \"#utility.yul\":2988:3022   */\n      mstore\n        /* \"#utility.yul\":2919:3028   */\n      pop\n      pop\n      jump\t// out\n        /* \"#utility.yul\":3034:3908   */\n    tag_47:\n        /* \"#utility.yul\":3289:3293   */\n      0x00\n        /* \"#utility.yul\":3327:3330   */\n      0xe0\n        /* \"#utility.yul\":3316:3325   */\n      dup3\n        /* \"#utility.yul\":3312:3331   */\n      add\n        /* \"#utility.yul\":3304:3331   */\n      swap1\n      pop\n        /* \"#utility.yul\":3341:3412   */\n      tag_253\n        /* \"#utility.yul\":3409:3410   */\n      0x00\n        /* \"#utility.yul\":3398:3407   */\n      dup4\n        /* \"#utility.yul\":3394:3411   */\n      add\n        /* \"#utility.yul\":3385:3391   */\n      dup11\n        /* \"#utility.yul\":3341:3412   */\n      tag_186\n      jump\t// in\n    tag_253:\n        /* \"#utility.yul\":3422:3494   */\n      tag_254\n        /* \"#utility.yul\":3490:3492   */\n      0x20\n        /* \"#utility.yul\":3479:3488   */\n      dup4\n        /* \"#utility.yul\":3475:3493   */\n      add\n        /* \"#utility.yul\":3466:3472   */\n      dup10\n        /* \"#utility.yul\":3422:3494   */\n      tag_181\n      jump\t// in\n    tag_254:\n        /* \"#utility.yul\":3504:3576   */\n      tag_255\n        /* \"#utility.yul\":3572:3574   */\n      0x40\n        /* \"#utility.yul\":3561:3570   */\n      dup4\n        /* \"#utility.yul\":3557:3575   */\n      add\n        /* \"#utility.yul\":3548:3554   */\n      dup9\n        /* \"#utility.yul\":3504:3576   */\n      tag_181\n      jump\t// in\n    tag_255:\n        /* \"#utility.yul\":3586:3658   */\n      tag_256\n        /* \"#utility.yul\":3654:3656   */\n      0x60\n        /* \"#utility.yul\":3643:3652   */\n      dup4\n        /* \"#utility.yul\":3639:3657   */\n      add\n        /* \"#utility.yul\":3630:3636   */\n      dup8\n        /* \"#utility.yul\":3586:3658   */\n      tag_186\n      jump\t// in\n    tag_256:\n        /* \"#utility.yul\":3668:3735   */\n      tag_257\n        /* \"#utility.yul\":3730:3733   */\n      0x80\n        /* \"#utility.yul\":3719:3728   */\n      dup4\n        /* \"#utility.yul\":3715:3734   */\n      add\n        /* \"#utility.yul\":3706:3712   */\n      dup7\n        /* \"#utility.yul\":3668:3735   */\n      tag_188\n      jump\t// in\n    tag_257:\n        /* \"#utility.yul\":3745:3818   */\n      tag_258\n        /* \"#utility.yul\":3813:3816   */\n      0xa0\n        /* \"#utility.yul\":3802:3811   */\n      dup4\n        /* \"#utility.yul\":3798:3817   */\n      add\n        /* \"#utility.yul\":3789:3795   */\n      dup6\n        /* \"#utility.yul\":3745:3818   */\n      tag_181\n      jump\t// in\n    tag_258:\n        /* \"#utility.yul\":3828:3901   */\n      tag_259\n        /* \"#utility.yul\":3896:3899   */\n      0xc0\n        /* \"#utility.yul\":3885:3894   */\n      dup4\n        /* \"#utility.yul\":3881:3900   */\n      add\n        /* \"#utility.yul\":3872:3878   */\n      dup5\n        /* \"#utility.yul\":3828:3901   */\n      tag_181\n      jump\t// in\n    tag_259:\n        /* \"#utility.yul\":3034:3908   */\n      swap9\n      swap8\n      pop\n      pop\n      pop\n      pop\n      pop\n      pop\n      pop\n      pop\n      jump\t// out\n        /* \"#utility.yul\":3914:4018   */\n    tag_189:\n        /* \"#utility.yul\":3959:3966   */\n      0x00\n        /* \"#utility.yul\":3988:4012   */\n      tag_261\n        /* \"#utility.yul\":4006:4011   */\n      dup3\n        /* \"#utility.yul\":3988:4012   */\n      tag_182\n      jump\t// in\n    tag_261:\n        /* \"#utility.yul\":3977:4012   */\n      swap1\n      pop\n        /* \"#utility.yul\":3914:4018   */\n      swap2\n      swap1\n      pop\n      jump\t// out\n        /* \"#utility.yul\":4024:4166   */\n    tag_190:\n        /* \"#utility.yul\":4127:4159   */\n      tag_263\n        /* \"#utility.yul\":4153:4158   */\n      dup2\n        /* \"#utility.yul\":4127:4159   */\n      tag_189\n      jump\t// in\n    tag_263:\n        /* \"#utility.yul\":4122:4125   */\n      dup3\n        /* \"#utility.yul\":4115:4160   */\n      mstore\n        /* \"#utility.yul\":4024:4166   */\n      pop\n      pop\n      jump\t// out\n        /* \"#utility.yul\":4172:4426   */\n    tag_62:\n        /* \"#utility.yul\":4281:4285   */\n      0x00\n        /* \"#utility.yul\":4319:4321   */\n      0x20\n        /* \"#utility.yul\":4308:4317   */\n      dup3\n        /* \"#utility.yul\":4304:4322   */\n      add\n        /* \"#utility.yul\":4296:4322   */\n      swap1\n      pop\n        /* \"#utility.yul\":4332:4419   */\n      tag_265\n        /* \"#utility.yul\":4416:4417   */\n      0x00\n        /* \"#utility.yul\":4405:4414   */\n      dup4\n        /* \"#utility.yul\":4401:4418   */\n      add\n        /* \"#utility.yul\":4392:4398   */\n      dup5\n        /* \"#utility.yul\":4332:4419   */\n      tag_190\n      jump\t// in\n    tag_265:\n        /* \"#utility.yul\":4172:4426   */\n      swap3\n      swap2\n      pop\n      pop\n      jump\t// out\n        /* \"#utility.yul\":4432:4612   */\n    tag_191:\n        /* \"#utility.yul\":4480:4557   */\n      0x4e487b7100000000000000000000000000000000000000000000000000000000\n        /* \"#utility.yul\":4477:4478   */\n      0x00\n        /* \"#utility.yul\":4470:4558   */\n      mstore\n        /* \"#utility.yul\":4577:4581   */\n      0x11\n        /* \"#utility.yul\":4574:4575   */\n      0x04\n        /* \"#utility.yul\":4567:4582   */\n      mstore\n        /* \"#utility.yul\":4601:4605   */\n      0x24\n        /* \"#utility.yul\":4598:4599   */\n      0x00\n        /* \"#utility.yul\":4591:4606   */\n      revert\n        /* \"#utility.yul\":4618:5028   */\n    tag_69:\n        /* \"#utility.yul\":4658:4665   */\n      0x00\n        /* \"#utility.yul\":4681:4701   */\n      tag_268\n        /* \"#utility.yul\":4699:4700   */\n      dup3\n        /* \"#utility.yul\":4681:4701   */\n      tag_178\n      jump\t// in\n    tag_268:\n        /* \"#utility.yul\":4676:4701   */\n      swap2\n      pop\n        /* \"#utility.yul\":4715:4735   */\n      tag_269\n        /* \"#utility.yul\":4733:4734   */\n      dup4\n        /* \"#utility.yul\":4715:4735   */\n      tag_178\n      jump\t// in\n    tag_269:\n        /* \"#utility.yul\":4710:4735   */\n      swap3\n      pop\n        /* \"#utility.yul\":4770:4771   */\n      dup3\n        /* \"#utility.yul\":4767:4768   */\n      dup3\n        /* \"#utility.yul\":4763:4772   */\n      mul\n        /* \"#utility.yul\":4792:4822   */\n      tag_270\n        /* \"#utility.yul\":4810:4821   */\n      dup2\n        /* \"#utility.yul\":4792:4822   */\n      tag_178\n      jump\t// in\n    tag_270:\n        /* \"#utility.yul\":4781:4822   */\n      swap2\n      pop\n        /* \"#utility.yul\":4971:4972   */\n      dup3\n        /* \"#utility.yul\":4962:4969   */\n      dup3\n        /* \"#utility.yul\":4958:4973   */\n      div\n        /* \"#utility.yul\":4955:4956   */\n      dup5\n        /* \"#utility.yul\":4952:4974   */\n      eq\n        /* \"#utility.yul\":4932:4933   */\n      dup4\n        /* \"#utility.yul\":4925:4934   */\n      iszero\n        /* \"#utility.yul\":4905:4988   */\n      or\n        /* \"#utility.yul\":4882:5021   */\n      tag_271\n      jumpi\n        /* \"#utility.yul\":5001:5019   */\n      tag_272\n      tag_191\n      jump\t// in\n    tag_272:\n        /* \"#utility.yul\":4882:5021   */\n    tag_271:\n        /* \"#utility.yul\":4666:5028   */\n      pop\n        /* \"#utility.yul\":4618:5028   */\n      swap3\n      swap2\n      pop\n      pop\n      jump\t// out\n        /* \"#utility.yul\":5034:5214   */\n    tag_192:\n        /* \"#utility.yul\":5082:5159   */\n      0x4e487b7100000000000000000000000000000000000000000000000000000000\n        /* \"#utility.yul\":5079:5080   */\n      0x00\n        /* \"#utility.yul\":5072:5160   */\n      mstore\n        /* \"#utility.yul\":5179:5183   */\n      0x12\n        /* \"#utility.yul\":5176:5177   */\n      0x04\n        /* \"#utility.yul\":5169:5184   */\n      mstore\n        /* \"#utility.yul\":5203:5207   */\n      0x24\n        /* \"#utility.yul\":5200:5201   */\n      0x00\n        /* \"#utility.yul\":5193:5208   */\n      revert\n        /* \"#utility.yul\":5220:5405   */\n    tag_71:\n        /* \"#utility.yul\":5260:5261   */\n      0x00\n        /* \"#utility.yul\":5277:5297   */\n      tag_275\n        /* \"#utility.yul\":5295:5296   */\n      dup3\n        /* \"#utility.yul\":5277:5297   */\n      tag_178\n      jump\t// in\n    tag_275:\n        /* \"#utility.yul\":5272:5297   */\n      swap2\n      pop\n        /* \"#utility.yul\":5311:5331   */\n      tag_276\n        /* \"#utility.yul\":5329:5330   */\n      dup4\n        /* \"#utility.yul\":5311:5331   */\n      tag_178\n      jump\t// in\n    tag_276:\n        /* \"#utility.yul\":5306:5331   */\n      swap3\n      pop\n        /* \"#utility.yul\":5350:5351   */\n      dup3\n        /* \"#utility.yul\":5340:5375   */\n      tag_277\n      jumpi\n        /* \"#utility.yul\":5355:5373   */\n      tag_278\n      tag_192\n      jump\t// in\n    tag_278:\n        /* \"#utility.yul\":5340:5375   */\n    tag_277:\n        /* \"#utility.yul\":5397:5398   */\n      dup3\n        /* \"#utility.yul\":5394:5395   */\n      dup3\n        /* \"#utility.yul\":5390:5399   */\n      div\n        /* \"#utility.yul\":5385:5399   */\n      swap1\n      pop\n        /* \"#utility.yul\":5220:5405   */\n      swap3\n      swap2\n      pop\n      pop\n      jump\t// out\n        /* \"#utility.yul\":5411:5580   */\n    tag_193:\n        /* \"#utility.yul\":5495:5506   */\n      0x00\n        /* \"#utility.yul\":5529:5535   */\n      dup3\n        /* \"#utility.yul\":5524:5527   */\n      dup3\n        /* \"#utility.yul\":5517:5536   */\n      mstore\n        /* \"#utility.yul\":5569:5573   */\n      0x20\n        /* \"#utility.yul\":5564:5567   */\n      dup3\n        /* \"#utility.yul\":5560:5574   */\n      add\n        /* \"#utility.yul\":5545:5574   */\n      swap1\n      pop\n        /* \"#utility.yul\":5411:5580   */\n      swap3\n      swap2\n      pop\n      pop\n      jump\t// out\n        /* \"#utility.yul\":5586:5819   */\n    tag_194:\n        /* \"#utility.yul\":5726:5760   */\n      0x4465706f736974206d757374206265206174206c6561737420323025206f6620\n        /* \"#utility.yul\":5722:5723   */\n      0x00\n        /* \"#utility.yul\":5714:5720   */\n      dup3\n        /* \"#utility.yul\":5710:5724   */\n      add\n        /* \"#utility.yul\":5703:5761   */\n      mstore\n        /* \"#utility.yul\":5795:5811   */\n      0x7374617274696e67207072696365000000000000000000000000000000000000\n        /* \"#utility.yul\":5790:5792   */\n      0x20\n        /* \"#utility.yul\":5782:5788   */\n      dup3\n        /* \"#utility.yul\":5778:5793   */\n      add\n        /* \"#utility.yul\":5771:5812   */\n      mstore\n        /* \"#utility.yul\":5586:5819   */\n      pop\n      jump\t// out\n        /* \"#utility.yul\":5825:6191   */\n    tag_195:\n        /* \"#utility.yul\":5967:5970   */\n      0x00\n        /* \"#utility.yul\":5988:6055   */\n      tag_282\n        /* \"#utility.yul\":6052:6054   */\n      0x2e\n        /* \"#utility.yul\":6047:6050   */\n      dup4\n        /* \"#utility.yul\":5988:6055   */\n      tag_193\n      jump\t// in\n    tag_282:\n        /* \"#utility.yul\":5981:6055   */\n      swap2\n      pop\n        /* \"#utility.yul\":6064:6157   */\n      tag_283\n        /* \"#utility.yul\":6153:6156   */\n      dup3\n        /* \"#utility.yul\":6064:6157   */\n      tag_194\n      jump\t// in\n    tag_283:\n        /* \"#utility.yul\":6182:6184   */\n      0x40\n        /* \"#utility.yul\":6177:6180   */\n      dup3\n        /* \"#utility.yul\":6173:6185   */\n      add\n        /* \"#utility.yul\":6166:6185   */\n      swap1\n      pop\n        /* \"#utility.yul\":5825:6191   */\n      swap2\n      swap1\n      pop\n      jump\t// out\n        /* \"#utility.yul\":6197:6616   */\n    tag_74:\n        /* \"#utility.yul\":6363:6367   */\n      0x00\n        /* \"#utility.yul\":6401:6403   */\n      0x20\n        /* \"#utility.yul\":6390:6399   */\n      dup3\n        /* \"#utility.yul\":6386:6404   */\n      add\n        /* \"#utility.yul\":6378:6404   */\n      swap1\n      pop\n        /* \"#utility.yul\":6450:6459   */\n      dup2\n        /* \"#utility.yul\":6444:6448   */\n      dup2\n        /* \"#utility.yul\":6440:6460   */\n      sub\n        /* \"#utility.yul\":6436:6437   */\n      0x00\n        /* \"#utility.yul\":6425:6434   */\n      dup4\n        /* \"#utility.yul\":6421:6438   */\n      add\n        /* \"#utility.yul\":6414:6461   */\n      mstore\n        /* \"#utility.yul\":6478:6609   */\n      tag_285\n        /* \"#utility.yul\":6604:6608   */\n      dup2\n        /* \"#utility.yul\":6478:6609   */\n      tag_195\n      jump\t// in\n    tag_285:\n        /* \"#utility.yul\":6470:6609   */\n      swap1\n      pop\n        /* \"#utility.yul\":6197:6616   */\n      swap2\n      swap1\n      pop\n      jump\t// out\n        /* \"#utility.yul\":6622:6804   */\n    tag_196:\n        /* \"#utility.yul\":6762:6796   */\n      0x53746172742074696d65206d75737420626520696e2074686520667574757265\n        /* \"#utility.yul\":6758:6759   */\n      0x00\n        /* \"#utility.yul\":6750:6756   */\n      dup3\n        /* \"#utility.yul\":6746:6760   */\n      add\n        /* \"#utility.yul\":6739:6797   */\n      mstore\n        /* \"#utility.yul\":6622:6804   */\n      pop\n      jump\t// out\n        /* \"#utility.yul\":6810:7176   */\n    tag_197:\n        /* \"#utility.yul\":6952:6955   */\n      0x00\n        /* \"#utility.yul\":6973:7040   */\n      tag_288\n        /* \"#utility.yul\":7037:7039   */\n      0x20\n        /* \"#utility.yul\":7032:7035   */\n      dup4\n        /* \"#utility.yul\":6973:7040   */\n      tag_193\n      jump\t// in\n    tag_288:\n        /* \"#utility.yul\":6966:7040   */\n      swap2\n      pop\n        /* \"#utility.yul\":7049:7142   */\n      tag_289\n        /* \"#utility.yul\":7138:7141   */\n      dup3\n        /* \"#utility.yul\":7049:7142   */\n      tag_196\n      jump\t// in\n    tag_289:\n        /* \"#utility.yul\":7167:7169   */\n      0x20\n        /* \"#utility.yul\":7162:7165   */\n      dup3\n        /* \"#utility.yul\":7158:7170   */\n      add\n        /* \"#utility.yul\":7151:7170   */\n      swap1\n      pop\n        /* \"#utility.yul\":6810:7176   */\n      swap2\n      swap1\n      pop\n      jump\t// out\n        /* \"#utility.yul\":7182:7601   */\n    tag_77:\n        /* \"#utility.yul\":7348:7352   */\n      0x00\n        /* \"#utility.yul\":7386:7388   */\n      0x20\n        /* \"#utility.yul\":7375:7384   */\n      dup3\n        /* \"#utility.yul\":7371:7389   */\n      add\n        /* \"#utility.yul\":7363:7389   */\n      swap1\n      pop\n        /* \"#utility.yul\":7435:7444   */\n      dup2\n        /* \"#utility.yul\":7429:7433   */\n      dup2\n        /* \"#utility.yul\":7425:7445   */\n      sub\n        /* \"#utility.yul\":7421:7422   */\n      0x00\n        /* \"#utility.yul\":7410:7419   */\n      dup4\n        /* \"#utility.yul\":7406:7423   */\n      add\n        /* \"#utility.yul\":7399:7446   */\n      mstore\n        /* \"#utility.yul\":7463:7594   */\n      tag_291\n        /* \"#utility.yul\":7589:7593   */\n      dup2\n        /* \"#utility.yul\":7463:7594   */\n      tag_197\n      jump\t// in\n    tag_291:\n        /* \"#utility.yul\":7455:7594   */\n      swap1\n      pop\n        /* \"#utility.yul\":7182:7601   */\n      swap2\n      swap1\n      pop\n      jump\t// out\n        /* \"#utility.yul\":7607:7840   */\n    tag_79:\n        /* \"#utility.yul\":7646:7649   */\n      0x00\n        /* \"#utility.yul\":7669:7693   */\n      tag_293\n        /* \"#utility.yul\":7687:7692   */\n      dup3\n        /* \"#utility.yul\":7669:7693   */\n      tag_178\n      jump\t// in\n    tag_293:\n        /* \"#utility.yul\":7660:7693   */\n      swap2\n      pop\n        /* \"#utility.yul\":7715:7781   */\n      0xffffffffffffffffffffffffffffffffffffffffffffffffffffffffffffffff\n        /* \"#utility.yul\":7708:7713   */\n      dup3\n        /* \"#utility.yul\":7705:7782   */\n      sub\n        /* \"#utility.yul\":7702:7805   */\n      tag_294\n      jumpi\n        /* \"#utility.yul\":7785:7803   */\n      tag_295\n      tag_191\n      jump\t// in\n    tag_295:\n        /* \"#utility.yul\":7702:7805   */\n    tag_294:\n        /* \"#utility.yul\":7832:7833   */\n      0x01\n        /* \"#utility.yul\":7825:7830   */\n      dup3\n        /* \"#utility.yul\":7821:7834   */\n      add\n        /* \"#utility.yul\":7814:7834   */\n      swap1\n      pop\n        /* \"#utility.yul\":7607:7840   */\n      swap2\n      swap1\n      pop\n      jump\t// out\n        /* \"#utility.yul\":7846:8399   */\n    tag_81:\n        /* \"#utility.yul\":8023:8027   */\n      0x00\n        /* \"#utility.yul\":8061:8064   */\n      0x80\n        /* \"#utility.yul\":8050:8059   */\n      dup3\n        /* \"#utility.yul\":8046:8065   */\n      add\n        /* \"#utility.yul\":8038:8065   */\n      swap1\n      pop\n        /* \"#utility.yul\":8075:8146   */\n      tag_297\n        /* \"#utility.yul\":8143:8144   */\n      0x00\n        /* \"#utility.yul\":8132:8141   */\n      dup4\n        /* \"#utility.yul\":8128:8145   */\n      add\n        /* \"#utility.yul\":8119:8125   */\n      dup8\n        /* \"#utility.yul\":8075:8146   */\n      tag_181\n      jump\t// in\n    tag_297:\n        /* \"#utility.yul\":8156:8228   */\n      tag_298\n        /* \"#utility.yul\":8224:8226   */\n      0x20\n        /* \"#utility.yul\":8213:8222   */\n      dup4\n        /* \"#utility.yul\":8209:8227   */\n      add\n        /* \"#utility.yul\":8200:8206   */\n      dup7\n        /* \"#utility.yul\":8156:8228   */\n      tag_186\n      jump\t// in\n    tag_298:\n        /* \"#utility.yul\":8238:8310   */\n      tag_299\n        /* \"#utility.yul\":8306:8308   */\n      0x40\n        /* \"#utility.yul\":8295:8304   */\n      dup4\n        /* \"#utility.yul\":8291:8309   */\n      add\n        /* \"#utility.yul\":8282:8288   */\n      dup6\n        /* \"#utility.yul\":8238:8310   */\n      tag_181\n      jump\t// in\n    tag_299:\n        /* \"#utility.yul\":8320:8392   */\n      tag_300\n        /* \"#utility.yul\":8388:8390   */\n      0x60\n        /* \"#utility.yul\":8377:8386   */\n      dup4\n        /* \"#utility.yul\":8373:8391   */\n      add\n        /* \"#utility.yul\":8364:8370   */\n      dup5\n        /* \"#utility.yul\":8320:8392   */\n      tag_181\n      jump\t// in\n    tag_300:\n        /* \"#utility.yul\":7846:8399   */\n      swap6\n      swap5\n      pop\n      pop\n      pop\n      pop\n      pop\n      jump\t// out\n        /* \"#utility.yul\":8405:8573   */\n    tag_198:\n        /* \"#utility.yul\":8545:8565   */\n      0x4e6f2070656e64696e672072657475726e730000000000000000000000000000\n        /* \"#utility.yul\":8541:8542   */\n      0x00\n        /* \"#utility.yul\":8533:8539   */\n      dup3\n        /* \"#utility.yul\":8529:8543   */\n      add\n        /* \"#utility.yul\":8522:8566   */\n      mstore\n        /* \"#utility.yul\":8405:8573   */\n      pop\n      jump\t// out\n        /* \"#utility.yul\":8579:8945   */\n    tag_199:\n        /* \"#utility.yul\":8721:8724   */\n      0x00\n        /* \"#utility.yul\":8742:8809   */\n      tag_303\n        /* \"#utility.yul\":8806:8808   */\n      0x12\n        /* \"#utility.yul\":8801:8804   */\n      dup4\n        /* \"#utility.yul\":8742:8809   */\n      tag_193\n      jump\t// in\n    tag_303:\n        /* \"#utility.yul\":8735:8809   */\n      swap2\n      pop\n        /* \"#utility.yul\":8818:8911   */\n      tag_304\n        /* \"#utility.yul\":8907:8910   */\n      dup3\n        /* \"#utility.yul\":8818:8911   */\n      tag_198\n      jump\t// in\n    tag_304:\n        /* \"#utility.yul\":8936:8938   */\n      0x20\n        /* \"#utility.yul\":8931:8934   */\n      dup3\n        /* \"#utility.yul\":8927:8939   */\n      add\n        /* \"#utility.yul\":8920:8939   */\n      swap1\n      pop\n        /* \"#utility.yul\":8579:8945   */\n      swap2\n      swap1\n      pop\n      jump\t// out\n        /* \"#utility.yul\":8951:9370   */\n    tag_86:\n        /* \"#utility.yul\":9117:9121   */\n      0x00\n        /* \"#utility.yul\":9155:9157   */\n      0x20\n        /* \"#utility.yul\":9144:9153   */\n      dup3\n        /* \"#utility.yul\":9140:9158   */\n      add\n        /* \"#utility.yul\":9132:9158   */\n      swap1\n      pop\n        /* \"#utility.yul\":9204:9213   */\n      dup2\n        /* \"#utility.yul\":9198:9202   */\n      dup2\n        /* \"#utility.yul\":9194:9214   */\n      sub\n        /* \"#utility.yul\":9190:9191   */\n      0x00\n        /* \"#utility.yul\":9179:9188   */\n      dup4\n        /* \"#utility.yul\":9175:9192   */\n      add\n        /* \"#utility.yul\":9168:9215   */\n      mstore\n        /* \"#utility.yul\":9232:9363   */\n      tag_306\n        /* \"#utility.yul\":9358:9362   */\n      dup2\n        /* \"#utility.yul\":9232:9363   */\n      tag_199\n      jump\t// in\n    tag_306:\n        /* \"#utility.yul\":9224:9363   */\n      swap1\n      pop\n        /* \"#utility.yul\":8951:9370   */\n      swap2\n      swap1\n      pop\n      jump\t// out\n        /* \"#utility.yul\":9376:9553   */\n    tag_200:\n        /* \"#utility.yul\":9516:9545   */\n      0x41756374696f6e20686173206e6f742073746172746564207965740000000000\n        /* \"#utility.yul\":9512:9513   */\n      0x00\n        /* \"#utility.yul\":9504:9510   */\n      dup3\n        /* \"#utility.yul\":9500:9514   */\n      add\n        /* \"#utility.yul\":9493:9546   */\n      mstore\n        /* \"#utility.yul\":9376:9553   */\n      pop\n      jump\t// out\n        /* \"#utility.yul\":9559:9925   */\n    tag_201:\n        /* \"#utility.yul\":9701:9704   */\n      0x00\n        /* \"#utility.yul\":9722:9789   */\n      tag_309\n        /* \"#utility.yul\":9786:9788   */\n      0x1b\n        /* \"#utility.yul\":9781:9784   */\n      dup4\n        /* \"#utility.yul\":9722:9789   */\n      tag_193\n      jump\t// in\n    tag_309:\n        /* \"#utility.yul\":9715:9789   */\n      swap2\n      pop\n        /* \"#utility.yul\":9798:9891   */\n      tag_310\n        /* \"#utility.yul\":9887:9890   */\n      dup3\n        /* \"#utility.yul\":9798:9891   */\n      tag_200\n      jump\t// in\n    tag_310:\n        /* \"#utility.yul\":9916:9918   */\n      0x20\n        /* \"#utility.yul\":9911:9914   */\n      dup3\n        /* \"#utility.yul\":9907:9919   */\n      add\n        /* \"#utility.yul\":9900:9919   */\n      swap1\n      pop\n        /* \"#utility.yul\":9559:9925   */\n      swap2\n      swap1\n      pop\n      jump\t// out\n        /* \"#utility.yul\":9931:10350   */\n    tag_92:\n        /* \"#utility.yul\":10097:10101   */\n      0x00\n        /* \"#utility.yul\":10135:10137   */\n      0x20\n        /* \"#utility.yul\":10124:10133   */\n      dup3\n        /* \"#utility.yul\":10120:10138   */\n      add\n        /* \"#utility.yul\":10112:10138   */\n      swap1\n      pop\n        /* \"#utility.yul\":10184:10193   */\n      dup2\n        /* \"#utility.yul\":10178:10182   */\n      dup2\n        /* \"#utility.yul\":10174:10194   */\n      sub\n        /* \"#utility.yul\":10170:10171   */\n      0x00\n        /* \"#utility.yul\":10159:10168   */\n      dup4\n        /* \"#utility.yul\":10155:10172   */\n      add\n        /* \"#utility.yul\":10148:10195   */\n      mstore\n        /* \"#utility.yul\":10212:10343   */\n      tag_312\n        /* \"#utility.yul\":10338:10342   */\n      dup2\n        /* \"#utility.yul\":10212:10343   */\n      tag_201\n      jump\t// in\n    tag_312:\n        /* \"#utility.yul\":10204:10343   */\n      swap1\n      pop\n        /* \"#utility.yul\":9931:10350   */\n      swap2\n      swap1\n      pop\n      jump\t// out\n        /* \"#utility.yul\":10356:10527   */\n    tag_202:\n        /* \"#utility.yul\":10496:10519   */\n      0x41756374696f6e20616c726561647920656e6465640000000000000000000000\n        /* \"#utility.yul\":10492:10493   */\n      0x00\n        /* \"#utility.yul\":10484:10490   */\n      dup3\n        /* \"#utility.yul\":10480:10494   */\n      add\n        /* \"#utility.yul\":10473:10520   */\n      mstore\n        /* \"#utility.yul\":10356:10527   */\n      pop\n      jump\t// out\n        /* \"#utility.yul\":10533:10899   */\n    tag_203:\n        /* \"#utility.yul\":10675:10678   */\n      0x00\n        /* \"#utility.yul\":10696:10763   */\n      tag_315\n        /* \"#utility.yul\":10760:10762   */\n      0x15\n        /* \"#utility.yul\":10755:10758   */\n      dup4\n        /* \"#utility.yul\":10696:10763   */\n      tag_193\n      jump\t// in\n    tag_315:\n        /* \"#utility.yul\":10689:10763   */\n      swap2\n      pop\n        /* \"#utility.yul\":10772:10865   */\n      tag_316\n        /* \"#utility.yul\":10861:10864   */\n      dup3\n        /* \"#utility.yul\":10772:10865   */\n      tag_202\n      jump\t// in\n    tag_316:\n        /* \"#utility.yul\":10890:10892   */\n      0x20\n        /* \"#utility.yul\":10885:10888   */\n      dup3\n        /* \"#utility.yul\":10881:10893   */\n      add\n        /* \"#utility.yul\":10874:10893   */\n      swap1\n      pop\n        /* \"#utility.yul\":10533:10899   */\n      swap2\n      swap1\n      pop\n      jump\t// out\n        /* \"#utility.yul\":10905:11324   */\n    tag_95:\n        /* \"#utility.yul\":11071:11075   */\n      0x00\n        /* \"#utility.yul\":11109:11111   */\n      0x20\n        /* \"#utility.yul\":11098:11107   */\n      dup3\n        /* \"#utility.yul\":11094:11112   */\n      add\n        /* \"#utility.yul\":11086:11112   */\n      swap1\n      pop\n        /* \"#utility.yul\":11158:11167   */\n      dup2\n        /* \"#utility.yul\":11152:11156   */\n      dup2\n        /* \"#utility.yul\":11148:11168   */\n      sub\n        /* \"#utility.yul\":11144:11145   */\n      0x00\n        /* \"#utility.yul\":11133:11142   */\n      dup4\n        /* \"#utility.yul\":11129:11146   */\n      add\n        /* \"#utility.yul\":11122:11169   */\n      mstore\n        /* \"#utility.yul\":11186:11317   */\n      tag_318\n        /* \"#utility.yul\":11312:11316   */\n      dup2\n        /* \"#utility.yul\":11186:11317   */\n      tag_203\n      jump\t// in\n    tag_318:\n        /* \"#utility.yul\":11178:11317   */\n      swap1\n      pop\n        /* \"#utility.yul\":10905:11324   */\n      swap2\n      swap1\n      pop\n      jump\t// out\n        /* \"#utility.yul\":11330:11521   */\n    tag_97:\n        /* \"#utility.yul\":11370:11373   */\n      0x00\n        /* \"#utility.yul\":11389:11409   */\n      tag_320\n        /* \"#utility.yul\":11407:11408   */\n      dup3\n        /* \"#utility.yul\":11389:11409   */\n      tag_178\n      jump\t// in\n    tag_320:\n        /* \"#utility.yul\":11384:11409   */\n      swap2\n      pop\n        /* \"#utility.yul\":11423:11443   */\n      tag_321\n        /* \"#utility.yul\":11441:11442   */\n      dup4\n        /* \"#utility.yul\":11423:11443   */\n      tag_178\n      jump\t// in\n    tag_321:\n        /* \"#utility.yul\":11418:11443   */\n      swap3\n      pop\n        /* \"#utility.yul\":11466:11467   */\n      dup3\n        /* \"#utility.yul\":11463:11464   */\n      dup3\n        /* \"#utility.yul\":11459:11468   */\n      add\n        /* \"#utility.yul\":11452:11468   */\n      swap1\n      pop\n        /* \"#utility.yul\":11487:11490   */\n      dup1\n        /* \"#utility.yul\":11484:11485   */\n      dup3\n        /* \"#utility.yul\":11481:11491   */\n      gt\n        /* \"#utility.yul\":11478:11514   */\n      iszero\n      tag_322\n      jumpi\n        /* \"#utility.yul\":11494:11512   */\n      tag_323\n      tag_191\n      jump\t// in\n    tag_323:\n        /* \"#utility.yul\":11478:11514   */\n    tag_322:\n        /* \"#utility.yul\":11330:11521   */\n      swap3\n      swap2\n      pop\n      pop\n      jump\t// out\n        /* \"#utility.yul\":11527:11706   */\n    tag_204:\n        /* \"#utility.yul\":11667:11698   */\n      0x546865726520616c726561647920697320612068696768657220626964000000\n        /* \"#utility.yul\":11663:11664   */\n      0x00\n        /* \"#utility.yul\":11655:11661   */\n      dup3\n        /* \"#utility.yul\":11651:11665   */\n      add\n        /* \"#utility.yul\":11644:11699   */\n      mstore\n        /* \"#utility.yul\":11527:11706   */\n      pop\n      jump\t// out\n        /* \"#utility.yul\":11712:12078   */\n    tag_205:\n        /* \"#utility.yul\":11854:11857   */\n      0x00\n        /* \"#utility.yul\":11875:11942   */\n      tag_326\n        /* \"#utility.yul\":11939:11941   */\n      0x1d\n        /* \"#utility.yul\":11934:11937   */\n      dup4\n        /* \"#utility.yul\":11875:11942   */\n      tag_193\n      jump\t// in\n    tag_326:\n        /* \"#utility.yul\":11868:11942   */\n      swap2\n      pop\n        /* \"#utility.yul\":11951:12044   */\n      tag_327\n        /* \"#utility.yul\":12040:12043   */\n      dup3\n        /* \"#utility.yul\":11951:12044   */\n      tag_204\n      jump\t// in\n    tag_327:\n        /* \"#utility.yul\":12069:12071   */\n      0x20\n        /* \"#utility.yul\":12064:12067   */\n      dup3\n        /* \"#utility.yul\":12060:12072   */\n      add\n        /* \"#utility.yul\":12053:12072   */\n      swap1\n      pop\n        /* \"#utility.yul\":11712:12078   */\n      swap2\n      swap1\n      pop\n      jump\t// out\n        /* \"#utility.yul\":12084:12503   */\n    tag_100:\n        /* \"#utility.yul\":12250:12254   */\n      0x00\n        /* \"#utility.yul\":12288:12290   */\n      0x20\n        /* \"#utility.yul\":12277:12286   */\n      dup3\n        /* \"#utility.yul\":12273:12291   */\n      add\n        /* \"#utility.yul\":12265:12291   */\n      swap1\n      pop\n        /* \"#utility.yul\":12337:12346   */\n      dup2\n        /* \"#utility.yul\":12331:12335   */\n      dup2\n        /* \"#utility.yul\":12327:12347   */\n      sub\n        /* \"#utility.yul\":12323:12324   */\n      0x00\n        /* \"#utility.yul\":12312:12321   */\n      dup4\n        /* \"#utility.yul\":12308:12325   */\n      add\n        /* \"#utility.yul\":12301:12348   */\n      mstore\n        /* \"#utility.yul\":12365:12496   */\n      tag_329\n        /* \"#utility.yul\":12491:12495   */\n      dup2\n        /* \"#utility.yul\":12365:12496   */\n      tag_205\n      jump\t// in\n    tag_329:\n        /* \"#utility.yul\":12357:12496   */\n      swap1\n      pop\n        /* \"#utility.yul\":12084:12503   */\n      swap2\n      swap1\n      pop\n      jump\t// out\n        /* \"#utility.yul\":12509:12703   */\n    tag_104:\n        /* \"#utility.yul\":12549:12553   */\n      0x00\n        /* \"#utility.yul\":12569:12589   */\n      tag_331\n        /* \"#utility.yul\":12587:12588   */\n      dup3\n        /* \"#utility.yul\":12569:12589   */\n      tag_178\n      jump\t// in\n    tag_331:\n        /* \"#utility.yul\":12564:12589   */\n      swap2\n      pop\n        /* \"#utility.yul\":12603:12623   */\n      tag_332\n        /* \"#utility.yul\":12621:12622   */\n      dup4\n        /* \"#utility.yul\":12603:12623   */\n      tag_178\n      jump\t// in\n    tag_332:\n        /* \"#utility.yul\":12598:12623   */\n      swap3\n      pop\n        /* \"#utility.yul\":12647:12648   */\n      dup3\n        /* \"#utility.yul\":12644:12645   */\n      dup3\n        /* \"#utility.yul\":12640:12649   */\n      sub\n        /* \"#utility.yul\":12632:12649   */\n      swap1\n      pop\n        /* \"#utility.yul\":12671:12672   */\n      dup2\n        /* \"#utility.yul\":12665:12669   */\n      dup2\n        /* \"#utility.yul\":12662:12673   */\n      gt\n        /* \"#utility.yul\":12659:12696   */\n      iszero\n      tag_333\n      jumpi\n        /* \"#utility.yul\":12676:12694   */\n      tag_334\n      tag_191\n      jump\t// in\n    tag_334:\n        /* \"#utility.yul\":12659:12696   */\n    tag_333:\n        /* \"#utility.yul\":12509:12703   */\n      swap3\n      swap2\n      pop\n      pop\n      jump\t// out\n        /* \"#utility.yul\":12709:13151   */\n    tag_109:\n        /* \"#utility.yul\":12858:12862   */\n      0x00\n        /* \"#utility.yul\":12896:12898   */\n      0x60\n        /* \"#utility.yul\":12885:12894   */\n      dup3\n        /* \"#utility.yul\":12881:12899   */\n      add\n        /* \"#utility.yul\":12873:12899   */\n      swap1\n      pop\n        /* \"#utility.yul\":12909:12980   */\n      tag_336\n        /* \"#utility.yul\":12977:12978   */\n      0x00\n        /* \"#utility.yul\":12966:12975   */\n      dup4\n        /* \"#utility.yul\":12962:12979   */\n      add\n        /* \"#utility.yul\":12953:12959   */\n      dup7\n        /* \"#utility.yul\":12909:12980   */\n      tag_181\n      jump\t// in\n    tag_336:\n        /* \"#utility.yul\":12990:13062   */\n      tag_337\n        /* \"#utility.yul\":13058:13060   */\n      0x20\n        /* \"#utility.yul\":13047:13056   */\n      dup4\n        /* \"#utility.yul\":13043:13061   */\n      add\n        /* \"#utility.yul\":13034:13040   */\n      dup6\n        /* \"#utility.yul\":12990:13062   */\n      tag_186\n      jump\t// in\n    tag_337:\n        /* \"#utility.yul\":13072:13144   */\n      tag_338\n        /* \"#utility.yul\":13140:13142   */\n      0x40\n        /* \"#utility.yul\":13129:13138   */\n      dup4\n        /* \"#utility.yul\":13125:13143   */\n      add\n        /* \"#utility.yul\":13116:13122   */\n      dup5\n        /* \"#utility.yul\":13072:13144   */\n      tag_181\n      jump\t// in\n    tag_338:\n        /* \"#utility.yul\":12709:13151   */\n      swap5\n      swap4\n      pop\n      pop\n      pop\n      pop\n      jump\t// out\n        /* \"#utility.yul\":13157:13378   */\n    tag_206:\n        /* \"#utility.yul\":13297:13331   */\n      0x4f6e6c792073656c6c65722063616e2063616e63656c20746865206175637469\n        /* \"#utility.yul\":13293:13294   */\n      0x00\n        /* \"#utility.yul\":13285:13291   */\n      dup3\n        /* \"#utility.yul\":13281:13295   */\n      add\n        /* \"#utility.yul\":13274:13332   */\n      mstore\n        /* \"#utility.yul\":13366:13370   */\n      0x6f6e000000000000000000000000000000000000000000000000000000000000\n        /* \"#utility.yul\":13361:13363   */\n      0x20\n        /* \"#utility.yul\":13353:13359   */\n      dup3\n        /* \"#utility.yul\":13349:13364   */\n      add\n        /* \"#utility.yul\":13342:13371   */\n      mstore\n        /* \"#utility.yul\":13157:13378   */\n      pop\n      jump\t// out\n        /* \"#utility.yul\":13384:13750   */\n    tag_207:\n        /* \"#utility.yul\":13526:13529   */\n      0x00\n        /* \"#utility.yul\":13547:13614   */\n      tag_341\n        /* \"#utility.yul\":13611:13613   */\n      0x22\n        /* \"#utility.yul\":13606:13609   */\n      dup4\n        /* \"#utility.yul\":13547:13614   */\n      tag_193\n      jump\t// in\n    tag_341:\n        /* \"#utility.yul\":13540:13614   */\n      swap2\n      pop\n        /* \"#utility.yul\":13623:13716   */\n      tag_342\n        /* \"#utility.yul\":13712:13715   */\n      dup3\n        /* \"#utility.yul\":13623:13716   */\n      tag_206\n      jump\t// in\n    tag_342:\n        /* \"#utility.yul\":13741:13743   */\n      0x40\n        /* \"#utility.yul\":13736:13739   */\n      dup3\n        /* \"#utility.yul\":13732:13744   */\n      add\n        /* \"#utility.yul\":13725:13744   */\n      swap1\n      pop\n        /* \"#utility.yul\":13384:13750   */\n      swap2\n      swap1\n      pop\n      jump\t// out\n        /* \"#utility.yul\":13756:14175   */\n    tag_113:\n        /* \"#utility.yul\":13922:13926   */\n      0x00\n        /* \"#utility.yul\":13960:13962   */\n      0x20\n        /* \"#utility.yul\":13949:13958   */\n      dup3\n        /* \"#utility.yul\":13945:13963   */\n      add\n        /* \"#utility.yul\":13937:13963   */\n      swap1\n      pop\n        /* \"#utility.yul\":14009:14018   */\n      dup2\n        /* \"#utility.yul\":14003:14007   */\n      dup2\n        /* \"#utility.yul\":13999:14019   */\n      sub\n        /* \"#utility.yul\":13995:13996   */\n      0x00\n        /* \"#utility.yul\":13984:13993   */\n      dup4\n        /* \"#utility.yul\":13980:13997   */\n      add\n        /* \"#utility.yul\":13973:14020   */\n      mstore\n        /* \"#utility.yul\":14037:14168   */\n      tag_344\n        /* \"#utility.yul\":14163:14167   */\n      dup2\n        /* \"#utility.yul\":14037:14168   */\n      tag_207\n      jump\t// in\n    tag_344:\n        /* \"#utility.yul\":14029:14168   */\n      swap1\n      pop\n        /* \"#utility.yul\":13756:14175   */\n      swap2\n      swap1\n      pop\n      jump\t// out\n        /* \"#utility.yul\":14181:14362   */\n    tag_208:\n        /* \"#utility.yul\":14321:14354   */\n      0x4f6e6c792073656c6c65722063616e20656e64207468652061756374696f6e00\n        /* \"#utility.yul\":14317:14318   */\n      0x00\n        /* \"#utility.yul\":14309:14315   */\n      dup3\n        /* \"#utility.yul\":14305:14319   */\n      add\n        /* \"#utility.yul\":14298:14355   */\n      mstore\n        /* \"#utility.yul\":14181:14362   */\n      pop\n      jump\t// out\n        /* \"#utility.yul\":14368:14734   */\n    tag_209:\n        /* \"#utility.yul\":14510:14513   */\n      0x00\n        /* \"#utility.yul\":14531:14598   */\n      tag_347\n        /* \"#utility.yul\":14595:14597   */\n      0x1f\n        /* \"#utility.yul\":14590:14593   */\n      dup4\n        /* \"#utility.yul\":14531:14598   */\n      tag_193\n      jump\t// in\n    tag_347:\n        /* \"#utility.yul\":14524:14598   */\n      swap2\n      pop\n        /* \"#utility.yul\":14607:14700   */\n      tag_348\n        /* \"#utility.yul\":14696:14699   */\n      dup3\n        /* \"#utility.yul\":14607:14700   */\n      tag_208\n      jump\t// in\n    tag_348:\n        /* \"#utility.yul\":14725:14727   */\n      0x20\n        /* \"#utility.yul\":14720:14723   */\n      dup3\n        /* \"#utility.yul\":14716:14728   */\n      add\n        /* \"#utility.yul\":14709:14728   */\n      swap1\n      pop\n        /* \"#utility.yul\":14368:14734   */\n      swap2\n      swap1\n      pop\n      jump\t// out\n        /* \"#utility.yul\":14740:15159   */\n    tag_126:\n        /* \"#utility.yul\":14906:14910   */\n      0x00\n        /* \"#utility.yul\":14944:14946   */\n      0x20\n        /* \"#utility.yul\":14933:14942   */\n      dup3\n        /* \"#utility.yul\":14929:14947   */\n      add\n        /* \"#utility.yul\":14921:14947   */\n      swap1\n      pop\n        /* \"#utility.yul\":14993:15002   */\n      dup2\n        /* \"#utility.yul\":14987:14991   */\n      dup2\n        /* \"#utility.yul\":14983:15003   */\n      sub\n        /* \"#utility.yul\":14979:14980   */\n      0x00\n        /* \"#utility.yul\":14968:14977   */\n      dup4\n        /* \"#utility.yul\":14964:14981   */\n      add\n        /* \"#utility.yul\":14957:15004   */\n      mstore\n        /* \"#utility.yul\":15021:15152   */\n      tag_350\n        /* \"#utility.yul\":15147:15151   */\n      dup2\n        /* \"#utility.yul\":15021:15152   */\n      tag_209\n      jump\t// in\n    tag_350:\n        /* \"#utility.yul\":15013:15152   */\n      swap1\n      pop\n        /* \"#utility.yul\":14740:15159   */\n      swap2\n      swap1\n      pop\n      jump\t// out\n        /* \"#utility.yul\":15165:15345   */\n    tag_140:\n        /* \"#utility.yul\":15213:15290   */\n      0x4e487b7100000000000000000000000000000000000000000000000000000000\n        /* \"#utility.yul\":15210:15211   */\n      0x00\n        /* \"#utility.yul\":15203:15291   */\n      mstore\n        /* \"#utility.yul\":15310:15314   */\n      0x32\n        /* \"#utility.yul\":15307:15308   */\n      0x04\n        /* \"#utility.yul\":15300:15315   */\n      mstore\n        /* \"#utility.yul\":15334:15338   */\n      0x24\n        /* \"#utility.yul\":15331:15332   */\n      0x00\n        /* \"#utility.yul\":15324:15339   */\n      revert\n        /* \"#utility.yul\":15351:15531   */\n    tag_152:\n        /* \"#utility.yul\":15399:15476   */\n      0x4e487b7100000000000000000000000000000000000000000000000000000000\n        /* \"#utility.yul\":15396:15397   */\n      0x00\n        /* \"#utility.yul\":15389:15477   */\n      mstore\n        /* \"#utility.yul\":15496:15500   */\n      0x31\n        /* \"#utility.yul\":15493:15494   */\n      0x04\n        /* \"#utility.yul\":15486:15501   */\n      mstore\n        /* \"#utility.yul\":15520:15524   */\n      0x24\n        /* \"#utility.yul\":15517:15518   */\n      0x00\n        /* \"#utility.yul\":15510:15525   */\n      revert\n        /* \"#utility.yul\":15537:15718   */\n    tag_210:\n        /* \"#utility.yul\":15677:15710   */\n      0x4d7573742073656e642045544820746f2061646420746f207265736572766500\n        /* \"#utility.yul\":15673:15674   */\n      0x00\n        /* \"#utility.yul\":15665:15671   */\n      dup3\n        /* \"#utility.yul\":15661:15675   */\n      add\n        /* \"#utility.yul\":15654:15711   */\n      mstore\n        /* \"#utility.yul\":15537:15718   */\n      pop\n      jump\t// out\n        /* \"#utility.yul\":15724:16090   */\n    tag_211:\n        /* \"#utility.yul\":15866:15869   */\n      0x00\n        /* \"#utility.yul\":15887:15954   */\n      tag_355\n        /* \"#utility.yul\":15951:15953   */\n      0x1f\n        /* \"#utility.yul\":15946:15949   */\n      dup4\n        /* \"#utility.yul\":15887:15954   */\n      tag_193\n      jump\t// in\n    tag_355:\n        /* \"#utility.yul\":15880:15954   */\n      swap2\n      pop\n        /* \"#utility.yul\":15963:16056   */\n      tag_356\n        /* \"#utility.yul\":16052:16055   */\n      dup3\n        /* \"#utility.yul\":15963:16056   */\n      tag_210\n      jump\t// in\n    tag_356:\n        /* \"#utility.yul\":16081:16083   */\n      0x20\n        /* \"#utility.yul\":16076:16079   */\n      dup3\n        /* \"#utility.yul\":16072:16084   */\n      add\n        /* \"#utility.yul\":16065:16084   */\n      swap1\n      pop\n        /* \"#utility.yul\":15724:16090   */\n      swap2\n      swap1\n      pop\n      jump\t// out\n        /* \"#utility.yul\":16096:16515   */\n    tag_172:\n        /* \"#utility.yul\":16262:16266   */\n      0x00\n        /* \"#utility.yul\":16300:16302   */\n      0x20\n        /* \"#utility.yul\":16289:16298   */\n      dup3\n        /* \"#utility.yul\":16285:16303   */\n      add\n        /* \"#utility.yul\":16277:16303   */\n      swap1\n      pop\n        /* \"#utility.yul\":16349:16358   */\n      dup2\n        /* \"#utility.yul\":16343:16347   */\n      dup2\n        /* \"#utility.yul\":16339:16359   */\n      sub\n        /* \"#utility.yul\":16335:16336   */\n      0x00\n        /* \"#utility.yul\":16324:16333   */\n      dup4\n        /* \"#utility.yul\":16320:16337   */\n      add\n        /* \"#utility.yul\":16313:16360   */\n      mstore\n        /* \"#utility.yul\":16377:16508   */\n      tag_358\n        /* \"#utility.yul\":16503:16507   */\n      dup2\n        /* \"#utility.yul\":16377:16508   */\n      tag_211\n      jump\t// in\n    tag_358:\n        /* \"#utility.yul\":16369:16508   */\n      swap1\n      pop\n        /* \"#utility.yul\":16096:16515   */\n      swap2\n      swap1\n      pop\n      jump\t// out\n\n    auxdata: 0xa264697066735822122052710ba6827b832dc7a6274d061d11195d8a5ced4ae05f58368fd2376a77a00564736f6c63430008180033\n}\n",
				"bytecode": {
					"linkReferences": {},
					"object": "608060405234801562000010575f80fd5b5060405162001bcd38038062001bcd8339818101604052810190620000369190620000e2565b8060035f6101000a81548173ffffffffffffffffffffffffffffffffffffffff021916908373ffffffffffffffffffffffffffffffffffffffff1602179055505062000112565b5f80fd5b5f73ffffffffffffffffffffffffffffffffffffffff82169050919050565b5f620000ac8262000081565b9050919050565b620000be81620000a0565b8114620000c9575f80fd5b50565b5f81519050620000dc81620000b3565b92915050565b5f60208284031215620000fa57620000f96200007d565b5b5f6200010984828501620000cc565b91505092915050565b611aad80620001205f395ff3fe6080604052600436106100a6575f3560e01c8063571a26a011610063578063571a26a01461019a57806396b5a755146101dc578063b9a2de3a14610204578063cd3293de1461022c578063dbe55e5614610236578063fc52848214610260576100a6565b80630121683f146100aa57806312065fe0146100c657806326b387bb146100f057806327e235e31461012c5780633ccfd60b14610168578063454a2ab31461017e575b5f80fd5b6100c460048036038101906100bf9190611244565b61028a565b005b3480156100d1575f80fd5b506100da610406565b6040516100e79190611291565b60405180910390f35b3480156100fb575f80fd5b5061011660048036038101906101119190611304565b61044a565b6040516101239190611291565b60405180910390f35b348015610137575f80fd5b50610152600480360381019061014d9190611304565b61045f565b60405161015f9190611291565b60405180910390f35b348015610173575f80fd5b5061017c610474565b005b6101986004803603810190610193919061132f565b610580565b005b3480156101a5575f80fd5b506101c060048036038101906101bb919061132f565b6108f5565b6040516101d39796959493929190611383565b60405180910390f35b3480156101e7575f80fd5b5061020260048036038101906101fd919061132f565b61097d565b005b34801561020f575f80fd5b5061022a6004803603810190610225919061132f565b610b68565b005b6102346110fd565b005b348015610241575f80fd5b5061024a6111e2565b6040516102579190611410565b60405180910390f35b34801561026b575f80fd5b50610274611207565b6040516102819190611291565b60405180910390f35b60646014836102999190611456565b6102a391906114c4565b3410156102e5576040517f08c379a00000000000000000000000000000000000000000000000000000000081526004016102dc90611574565b60405180910390fd5b428111610327576040517f08c379a000000000000000000000000000000000000000000000000000000000815260040161031e906115dc565b60405180910390fd5b60025f815480929190610339906115fa565b91905055505f805f60025481526020019081526020015f20905033815f015f6101000a81548173ffffffffffffffffffffffffffffffffffffffff021916908373ffffffffffffffffffffffffffffffffffffffff1602179055508281600101819055505f8160030160146101000a81548160ff0219169083151502179055508181600701819055507fc9050d42180a61cb0d9ebb8ad118b62fe6eab12cf12ff752c4a0cc7da9ddf6276002543385856040516103f99493929190611641565b60405180910390a1505050565b5f60045f3373ffffffffffffffffffffffffffffffffffffffff1673ffffffffffffffffffffffffffffffffffffffff1681526020019081526020015f2054905090565b6001602052805f5260405f205f915090505481565b6004602052805f5260405f205f915090505481565b5f60015f3373ffffffffffffffffffffffffffffffffffffffff1673ffffffffffffffffffffffffffffffffffffffff1681526020019081526020015f205490505f81116104f7576040517f08c379a00000000000000000000000000000000000000000000000000000000081526004016104ee906116ce565b60405180910390fd5b5f60015f3373ffffffffffffffffffffffffffffffffffffffff1673ffffffffffffffffffffffffffffffffffffffff1681526020019081526020015f20819055503373ffffffffffffffffffffffffffffffffffffffff166108fc8290811502906040515f60405180830381858888f1935050505015801561057c573d5f803e3d5ffd5b5050565b5f805f8381526020019081526020015f20905080600701544210156105da576040517f08c379a00000000000000000000000000000000000000000000000000000000081526004016105d190611736565b60405180910390fd5b8060030160149054906101000a900460ff161561062c576040517f08c379a00000000000000000000000000000000000000000000000000000000081526004016106239061179e565b60405180910390fd5b806002015460045f3373ffffffffffffffffffffffffffffffffffffffff1673ffffffffffffffffffffffffffffffffffffffff1681526020019081526020015f20543461067a91906117bc565b116106ba576040517f08c379a00000000000000000000000000000000000000000000000000000000081526004016106b190611839565b60405180910390fd5b5f60045f3373ffffffffffffffffffffffffffffffffffffffff1673ffffffffffffffffffffffffffffffffffffffff1681526020019081526020015f20543461070491906117bc565b90505f826005015f3373ffffffffffffffffffffffffffffffffffffffff1673ffffffffffffffffffffffffffffffffffffffff1681526020019081526020015f205490505f811115610780575f818361075e9190611857565b905080846004015f82825461077391906117bc565b92505081905550506107e3565b8260060133908060018154018082558091505060019003905f5260205f20015f9091909190916101000a81548173ffffffffffffffffffffffffffffffffffffffff021916908373ffffffffffffffffffffffffffffffffffffffff1602179055505b81836005015f3373ffffffffffffffffffffffffffffffffffffffff1673ffffffffffffffffffffffffffffffffffffffff1681526020019081526020015f208190555081836002018190555033836003015f6101000a81548173ffffffffffffffffffffffffffffffffffffffff021916908373ffffffffffffffffffffffffffffffffffffffff1602179055505f60045f3373ffffffffffffffffffffffffffffffffffffffff1673ffffffffffffffffffffffffffffffffffffffff1681526020019081526020015f20819055507fda0a18da71d8ebd145966339a728fc0d8ccc07c22870d561890d823c515dda6b8433846040516108e79392919061188a565b60405180910390a150505050565b5f602052805f5260405f205f91509050805f015f9054906101000a900473ffffffffffffffffffffffffffffffffffffffff1690806001015490806002015490806003015f9054906101000a900473ffffffffffffffffffffffffffffffffffffffff16908060030160149054906101000a900460ff16908060040154908060070154905087565b5f805f8381526020019081526020015f209050805f015f9054906101000a900473ffffffffffffffffffffffffffffffffffffffff1673ffffffffffffffffffffffffffffffffffffffff163373ffffffffffffffffffffffffffffffffffffffff1614610a20576040517f08c379a0000000000000000000000000000000000000000000000000000000008152600401610a179061192f565b60405180910390fd5b8060030160149054906101000a900460ff1615610a72576040517f08c379a0000000000000000000000000000000000000000000000000000000008152600401610a699061179e565b60405180910390fd5b5f6064600a606460148560010154610a8a9190611456565b610a9491906114c4565b610a9e9190611456565b610aa891906114c4565b905060035f9054906101000a900473ffffffffffffffffffffffffffffffffffffffff1673ffffffffffffffffffffffffffffffffffffffff166108fc8290811502906040515f60405180830381858888f19350505050158015610b0e573d5f803e3d5ffd5b5060018260030160146101000a81548160ff0219169083151502179055507f2809c7e17bf978fbc7194c0a694b638c4215e9140cacc6c38ca36010b45697df83604051610b5b9190611291565b60405180910390a1505050565b5f805f8381526020019081526020015f209050805f015f9054906101000a900473ffffffffffffffffffffffffffffffffffffffff1673ffffffffffffffffffffffffffffffffffffffff163373ffffffffffffffffffffffffffffffffffffffff1614610c0b576040517f08c379a0000000000000000000000000000000000000000000000000000000008152600401610c0290611997565b60405180910390fd5b8060030160149054906101000a900460ff1615610c5d576040517f08c379a0000000000000000000000000000000000000000000000000000000008152600401610c549061179e565b60405180910390fd5b5f816002015490505f6064600283610c759190611456565b610c7f91906114c4565b90505f6064605f84610c919190611456565b610c9b91906114c4565b90505f6064600385610cad9190611456565b610cb791906114c4565b90505f5b8560060180549050811015610e6157856003015f9054906101000a900473ffffffffffffffffffffffffffffffffffffffff1673ffffffffffffffffffffffffffffffffffffffff16866006018281548110610d1a57610d196119b5565b5b905f5260205f20015f9054906101000a900473ffffffffffffffffffffffffffffffffffffffff1673ffffffffffffffffffffffffffffffffffffffff1603610e54578560060160018760060180549050610d759190611857565b81548110610d8657610d856119b5565b5b905f5260205f20015f9054906101000a900473ffffffffffffffffffffffffffffffffffffffff16866006018281548110610dc457610dc36119b5565b5b905f5260205f20015f6101000a81548173ffffffffffffffffffffffffffffffffffffffff021916908373ffffffffffffffffffffffffffffffffffffffff16021790555085600601805480610e1d57610e1c6119e2565b5b600190038181905f5260205f20015f6101000a81549073ffffffffffffffffffffffffffffffffffffffff02191690559055610e61565b8080600101915050610cbb565b505f5b8560060180549050811015610fae575f866006018281548110610e8a57610e896119b5565b5b905f5260205f20015f9054906101000a900473ffffffffffffffffffffffffffffffffffffffff1690505f876004015484896005015f8573ffffffffffffffffffffffffffffffffffffffff1673ffffffffffffffffffffffffffffffffffffffff1681526020019081526020015f2054610f059190611456565b610f0f91906114c4565b90508060015f8473ffffffffffffffffffffffffffffffffffffffff1673ffffffffffffffffffffffffffffffffffffffff1681526020019081526020015f205f828254610f5d91906117bc565b925050819055507fab7542bafced3da2d8c881cb2dd1de859fac7c20d3650d2902ad389a64e08883898383604051610f979392919061188a565b60405180910390a150508080600101915050610e64565b5060035f9054906101000a900473ffffffffffffffffffffffffffffffffffffffff1673ffffffffffffffffffffffffffffffffffffffff166108fc8490811502906040515f60405180830381858888f19350505050158015611013573d5f803e3d5ffd5b50845f015f9054906101000a900473ffffffffffffffffffffffffffffffffffffffff1673ffffffffffffffffffffffffffffffffffffffff166108fc8390811502906040515f60405180830381858888f19350505050158015611079573d5f803e3d5ffd5b5060018560030160146101000a81548160ff0219169083151502179055507fd2aa34a4fdbbc6dff6a3e56f46e0f3ae2a31d7785ff3487aa5c95c642acea50186866003015f9054906101000a900473ffffffffffffffffffffffffffffffffffffffff16866040516110ed9392919061188a565b60405180910390a1505050505050565b5f341161113f576040517f08c379a000000000000000000000000000000000000000000000000000000000815260040161113690611a59565b60405180910390fd5b3460045f3373ffffffffffffffffffffffffffffffffffffffff1673ffffffffffffffffffffffffffffffffffffffff1681526020019081526020015f205f82825461118b91906117bc565b925050819055503373ffffffffffffffffffffffffffffffffffffffff167f5d183725a9a2161720fa02284e6c4892241de78607e9b8b5b8defc396f22418c346040516111d89190611291565b60405180910390a2565b60035f9054906101000a900473ffffffffffffffffffffffffffffffffffffffff1681565b60025481565b5f80fd5b5f819050919050565b61122381611211565b811461122d575f80fd5b50565b5f8135905061123e8161121a565b92915050565b5f806040838503121561125a5761125961120d565b5b5f61126785828601611230565b925050602061127885828601611230565b9150509250929050565b61128b81611211565b82525050565b5f6020820190506112a45f830184611282565b92915050565b5f73ffffffffffffffffffffffffffffffffffffffff82169050919050565b5f6112d3826112aa565b9050919050565b6112e3816112c9565b81146112ed575f80fd5b50565b5f813590506112fe816112da565b92915050565b5f602082840312156113195761131861120d565b5b5f611326848285016112f0565b91505092915050565b5f602082840312156113445761134361120d565b5b5f61135184828501611230565b91505092915050565b611363816112c9565b82525050565b5f8115159050919050565b61137d81611369565b82525050565b5f60e0820190506113965f83018a61135a565b6113a36020830189611282565b6113b06040830188611282565b6113bd606083018761135a565b6113ca6080830186611374565b6113d760a0830185611282565b6113e460c0830184611282565b98975050505050505050565b5f6113fa826112aa565b9050919050565b61140a816113f0565b82525050565b5f6020820190506114235f830184611401565b92915050565b7f4e487b71000000000000000000000000000000000000000000000000000000005f52601160045260245ffd5b5f61146082611211565b915061146b83611211565b925082820261147981611211565b915082820484148315176114905761148f611429565b5b5092915050565b7f4e487b71000000000000000000000000000000000000000000000000000000005f52601260045260245ffd5b5f6114ce82611211565b91506114d983611211565b9250826114e9576114e8611497565b5b828204905092915050565b5f82825260208201905092915050565b7f4465706f736974206d757374206265206174206c6561737420323025206f66205f8201527f7374617274696e67207072696365000000000000000000000000000000000000602082015250565b5f61155e602e836114f4565b915061156982611504565b604082019050919050565b5f6020820190508181035f83015261158b81611552565b9050919050565b7f53746172742074696d65206d75737420626520696e20746865206675747572655f82015250565b5f6115c66020836114f4565b91506115d182611592565b602082019050919050565b5f6020820190508181035f8301526115f3816115ba565b9050919050565b5f61160482611211565b91507fffffffffffffffffffffffffffffffffffffffffffffffffffffffffffffffff820361163657611635611429565b5b600182019050919050565b5f6080820190506116545f830187611282565b611661602083018661135a565b61166e6040830185611282565b61167b6060830184611282565b95945050505050565b7f4e6f2070656e64696e672072657475726e7300000000000000000000000000005f82015250565b5f6116b86012836114f4565b91506116c382611684565b602082019050919050565b5f6020820190508181035f8301526116e5816116ac565b9050919050565b7f41756374696f6e20686173206e6f7420737461727465642079657400000000005f82015250565b5f611720601b836114f4565b915061172b826116ec565b602082019050919050565b5f6020820190508181035f83015261174d81611714565b9050919050565b7f41756374696f6e20616c726561647920656e64656400000000000000000000005f82015250565b5f6117886015836114f4565b915061179382611754565b602082019050919050565b5f6020820190508181035f8301526117b58161177c565b9050919050565b5f6117c682611211565b91506117d183611211565b92508282019050808211156117e9576117e8611429565b5b92915050565b7f546865726520616c7265616479206973206120686967686572206269640000005f82015250565b5f611823601d836114f4565b915061182e826117ef565b602082019050919050565b5f6020820190508181035f83015261185081611817565b9050919050565b5f61186182611211565b915061186c83611211565b925082820390508181111561188457611883611429565b5b92915050565b5f60608201905061189d5f830186611282565b6118aa602083018561135a565b6118b76040830184611282565b949350505050565b7f4f6e6c792073656c6c65722063616e2063616e63656c207468652061756374695f8201527f6f6e000000000000000000000000000000000000000000000000000000000000602082015250565b5f6119196022836114f4565b9150611924826118bf565b604082019050919050565b5f6020820190508181035f8301526119468161190d565b9050919050565b7f4f6e6c792073656c6c65722063616e20656e64207468652061756374696f6e005f82015250565b5f611981601f836114f4565b915061198c8261194d565b602082019050919050565b5f6020820190508181035f8301526119ae81611975565b9050919050565b7f4e487b71000000000000000000000000000000000000000000000000000000005f52603260045260245ffd5b7f4e487b71000000000000000000000000000000000000000000000000000000005f52603160045260245ffd5b7f4d7573742073656e642045544820746f2061646420746f2072657365727665005f82015250565b5f611a43601f836114f4565b9150611a4e82611a0f565b602082019050919050565b5f6020820190508181035f830152611a7081611a37565b905091905056fea264697066735822122052710ba6827b832dc7a6274d061d11195d8a5ced4ae05f58368fd2376a77a00564736f6c63430008180033",
					"opcodes": "PUSH1 0x80 PUSH1 0x40 MSTORE CALLVALUE DUP1 ISZERO PUSH3 0x10 JUMPI PUSH0 DUP1 REVERT JUMPDEST POP PUSH1 0x40 MLOAD PUSH3 0x1BCD CODESIZE SUB DUP1 PUSH3 0x1BCD DUP4 CODECOPY DUP2 DUP2 ADD PUSH1 0x40 MSTORE DUP2 ADD SWAP1 PUSH3 0x36 SWAP2 SWAP1 PUSH3 0xE2 JUMP JUMPDEST DUP1 PUSH1 0x3 PUSH0 PUSH2 0x100 EXP DUP2 SLOAD DUP2 PUSH20 0xFFFFFFFFFFFFFFFFFFFFFFFFFFFFFFFFFFFFFFFF MUL NOT AND SWAP1 DUP4 PUSH20 0xFFFFFFFFFFFFFFFFFFFFFFFFFFFFFFFFFFFFFFFF AND MUL OR SWAP1 SSTORE POP POP PUSH3 0x112 JUMP JUMPDEST PUSH0 DUP1 REVERT JUMPDEST PUSH0 PUSH20 0xFFFFFFFFFFFFFFFFFFFFFFFFFFFFFFFFFFFFFFFF DUP3 AND SWAP1 POP SWAP2 SWAP1 POP JUMP JUMPDEST PUSH0 PUSH3 0xAC DUP3 PUSH3 0x81 JUMP JUMPDEST SWAP1 POP SWAP2 SWAP1 POP JUMP JUMPDEST PUSH3 0xBE DUP2 PUSH3 0xA0 JUMP JUMPDEST DUP2 EQ PUSH3 0xC9 JUMPI PUSH0 DUP1 REVERT JUMPDEST POP JUMP JUMPDEST PUSH0 DUP2 MLOAD SWAP1 POP PUSH3 0xDC DUP2 PUSH3 0xB3 JUMP JUMPDEST SWAP3 SWAP2 POP POP JUMP JUMPDEST PUSH0 PUSH1 0x20 DUP3 DUP5 SUB SLT ISZERO PUSH3 0xFA JUMPI PUSH3 0xF9 PUSH3 0x7D JUMP JUMPDEST JUMPDEST PUSH0 PUSH3 0x109 DUP5 DUP3 DUP6 ADD PUSH3 0xCC JUMP JUMPDEST SWAP2 POP POP SWAP3 SWAP2 POP POP JUMP JUMPDEST PUSH2 0x1AAD DUP1 PUSH3 0x120 PUSH0 CODECOPY PUSH0 RETURN INVALID PUSH1 0x80 PUSH1 0x40 MSTORE PUSH1 0x4 CALLDATASIZE LT PUSH2 0xA6 JUMPI PUSH0 CALLDATALOAD PUSH1 0xE0 SHR DUP1 PUSH4 0x571A26A0 GT PUSH2 0x63 JUMPI DUP1 PUSH4 0x571A26A0 EQ PUSH2 0x19A JUMPI DUP1 PUSH4 0x96B5A755 EQ PUSH2 0x1DC JUMPI DUP1 PUSH4 0xB9A2DE3A EQ PUSH2 0x204 JUMPI DUP1 PUSH4 0xCD3293DE EQ PUSH2 0x22C JUMPI DUP1 PUSH4 0xDBE55E56 EQ PUSH2 0x236 JUMPI DUP1 PUSH4 0xFC528482 EQ PUSH2 0x260 JUMPI PUSH2 0xA6 JUMP JUMPDEST DUP1 PUSH4 0x121683F EQ PUSH2 0xAA JUMPI DUP1 PUSH4 0x12065FE0 EQ PUSH2 0xC6 JUMPI DUP1 PUSH4 0x26B387BB EQ PUSH2 0xF0 JUMPI DUP1 PUSH4 0x27E235E3 EQ PUSH2 0x12C JUMPI DUP1 PUSH4 0x3CCFD60B EQ PUSH2 0x168 JUMPI DUP1 PUSH4 0x454A2AB3 EQ PUSH2 0x17E JUMPI JUMPDEST PUSH0 DUP1 REVERT JUMPDEST PUSH2 0xC4 PUSH1 0x4 DUP1 CALLDATASIZE SUB DUP2 ADD SWAP1 PUSH2 0xBF SWAP2 SWAP1 PUSH2 0x1244 JUMP JUMPDEST PUSH2 0x28A JUMP JUMPDEST STOP JUMPDEST CALLVALUE DUP1 ISZERO PUSH2 0xD1 JUMPI PUSH0 DUP1 REVERT JUMPDEST POP PUSH2 0xDA PUSH2 0x406 JUMP JUMPDEST PUSH1 0x40 MLOAD PUSH2 0xE7 SWAP2 SWAP1 PUSH2 0x1291 JUMP JUMPDEST PUSH1 0x40 MLOAD DUP1 SWAP2 SUB SWAP1 RETURN JUMPDEST CALLVALUE DUP1 ISZERO PUSH2 0xFB JUMPI PUSH0 DUP1 REVERT JUMPDEST POP PUSH2 0x116 PUSH1 0x4 DUP1 CALLDATASIZE SUB DUP2 ADD SWAP1 PUSH2 0x111 SWAP2 SWAP1 PUSH2 0x1304 JUMP JUMPDEST PUSH2 0x44A JUMP JUMPDEST PUSH1 0x40 MLOAD PUSH2 0x123 SWAP2 SWAP1 PUSH2 0x1291 JUMP JUMPDEST PUSH1 0x40 MLOAD DUP1 SWAP2 SUB SWAP1 RETURN JUMPDEST CALLVALUE DUP1 ISZERO PUSH2 0x137 JUMPI PUSH0 DUP1 REVERT JUMPDEST POP PUSH2 0x152 PUSH1 0x4 DUP1 CALLDATASIZE SUB DUP2 ADD SWAP1 PUSH2 0x14D SWAP2 SWAP1 PUSH2 0x1304 JUMP JUMPDEST PUSH2 0x45F JUMP JUMPDEST PUSH1 0x40 MLOAD PUSH2 0x15F SWAP2 SWAP1 PUSH2 0x1291 JUMP JUMPDEST PUSH1 0x40 MLOAD DUP1 SWAP2 SUB SWAP1 RETURN JUMPDEST CALLVALUE DUP1 ISZERO PUSH2 0x173 JUMPI PUSH0 DUP1 REVERT JUMPDEST POP PUSH2 0x17C PUSH2 0x474 JUMP JUMPDEST STOP JUMPDEST PUSH2 0x198 PUSH1 0x4 DUP1 CALLDATASIZE SUB DUP2 ADD SWAP1 PUSH2 0x193 SWAP2 SWAP1 PUSH2 0x132F JUMP JUMPDEST PUSH2 0x580 JUMP JUMPDEST STOP JUMPDEST CALLVALUE DUP1 ISZERO PUSH2 0x1A5 JUMPI PUSH0 DUP1 REVERT JUMPDEST POP PUSH2 0x1C0 PUSH1 0x4 DUP1 CALLDATASIZE SUB DUP2 ADD SWAP1 PUSH2 0x1BB SWAP2 SWAP1 PUSH2 0x132F JUMP JUMPDEST PUSH2 0x8F5 JUMP JUMPDEST PUSH1 0x40 MLOAD PUSH2 0x1D3 SWAP8 SWAP7 SWAP6 SWAP5 SWAP4 SWAP3 SWAP2 SWAP1 PUSH2 0x1383 JUMP JUMPDEST PUSH1 0x40 MLOAD DUP1 SWAP2 SUB SWAP1 RETURN JUMPDEST CALLVALUE DUP1 ISZERO PUSH2 0x1E7 JUMPI PUSH0 DUP1 REVERT JUMPDEST POP PUSH2 0x202 PUSH1 0x4 DUP1 CALLDATASIZE SUB DUP2 ADD SWAP1 PUSH2 0x1FD SWAP2 SWAP1 PUSH2 0x132F JUMP JUMPDEST PUSH2 0x97D JUMP JUMPDEST STOP JUMPDEST CALLVALUE DUP1 ISZERO PUSH2 0x20F JUMPI PUSH0 DUP1 REVERT JUMPDEST POP PUSH2 0x22A PUSH1 0x4 DUP1 CALLDATASIZE SUB DUP2 ADD SWAP1 PUSH2 0x225 SWAP2 SWAP1 PUSH2 0x132F JUMP JUMPDEST PUSH2 0xB68 JUMP JUMPDEST STOP JUMPDEST PUSH2 0x234 PUSH2 0x10FD JUMP JUMPDEST STOP JUMPDEST CALLVALUE DUP1 ISZERO PUSH2 0x241 JUMPI PUSH0 DUP1 REVERT JUMPDEST POP PUSH2 0x24A PUSH2 0x11E2 JUMP JUMPDEST PUSH1 0x40 MLOAD PUSH2 0x257 SWAP2 SWAP1 PUSH2 0x1410 JUMP JUMPDEST PUSH1 0x40 MLOAD DUP1 SWAP2 SUB SWAP1 RETURN JUMPDEST CALLVALUE DUP1 ISZERO PUSH2 0x26B JUMPI PUSH0 DUP1 REVERT JUMPDEST POP PUSH2 0x274 PUSH2 0x1207 JUMP JUMPDEST PUSH1 0x40 MLOAD PUSH2 0x281 SWAP2 SWAP1 PUSH2 0x1291 JUMP JUMPDEST PUSH1 0x40 MLOAD DUP1 SWAP2 SUB SWAP1 RETURN JUMPDEST PUSH1 0x64 PUSH1 0x14 DUP4 PUSH2 0x299 SWAP2 SWAP1 PUSH2 0x1456 JUMP JUMPDEST PUSH2 0x2A3 SWAP2 SWAP1 PUSH2 0x14C4 JUMP JUMPDEST CALLVALUE LT ISZERO PUSH2 0x2E5 JUMPI PUSH1 0x40 MLOAD PUSH32 0x8C379A000000000000000000000000000000000000000000000000000000000 DUP2 MSTORE PUSH1 0x4 ADD PUSH2 0x2DC SWAP1 PUSH2 0x1574 JUMP JUMPDEST PUSH1 0x40 MLOAD DUP1 SWAP2 SUB SWAP1 REVERT JUMPDEST TIMESTAMP DUP2 GT PUSH2 0x327 JUMPI PUSH1 0x40 MLOAD PUSH32 0x8C379A000000000000000000000000000000000000000000000000000000000 DUP2 MSTORE PUSH1 0x4 ADD PUSH2 0x31E SWAP1 PUSH2 0x15DC JUMP JUMPDEST PUSH1 0x40 MLOAD DUP1 SWAP2 SUB SWAP1 REVERT JUMPDEST PUSH1 0x2 PUSH0 DUP2 SLOAD DUP1 SWAP3 SWAP2 SWAP1 PUSH2 0x339 SWAP1 PUSH2 0x15FA JUMP JUMPDEST SWAP2 SWAP1 POP SSTORE POP PUSH0 DUP1 PUSH0 PUSH1 0x2 SLOAD DUP2 MSTORE PUSH1 0x20 ADD SWAP1 DUP2 MSTORE PUSH1 0x20 ADD PUSH0 KECCAK256 SWAP1 POP CALLER DUP2 PUSH0 ADD PUSH0 PUSH2 0x100 EXP DUP2 SLOAD DUP2 PUSH20 0xFFFFFFFFFFFFFFFFFFFFFFFFFFFFFFFFFFFFFFFF MUL NOT AND SWAP1 DUP4 PUSH20 0xFFFFFFFFFFFFFFFFFFFFFFFFFFFFFFFFFFFFFFFF AND MUL OR SWAP1 SSTORE POP DUP3 DUP2 PUSH1 0x1 ADD DUP2 SWAP1 SSTORE POP PUSH0 DUP2 PUSH1 0x3 ADD PUSH1 0x14 PUSH2 0x100 EXP DUP2 SLOAD DUP2 PUSH1 0xFF MUL NOT AND SWAP1 DUP4 ISZERO ISZERO MUL OR SWAP1 SSTORE POP DUP2 DUP2 PUSH1 0x7 ADD DUP2 SWAP1 SSTORE POP PUSH32 0xC9050D42180A61CB0D9EBB8AD118B62FE6EAB12CF12FF752C4A0CC7DA9DDF627 PUSH1 0x2 SLOAD CALLER DUP6 DUP6 PUSH1 0x40 MLOAD PUSH2 0x3F9 SWAP5 SWAP4 SWAP3 SWAP2 SWAP1 PUSH2 0x1641 JUMP JUMPDEST PUSH1 0x40 MLOAD DUP1 SWAP2 SUB SWAP1 LOG1 POP POP POP JUMP JUMPDEST PUSH0 PUSH1 0x4 PUSH0 CALLER PUSH20 0xFFFFFFFFFFFFFFFFFFFFFFFFFFFFFFFFFFFFFFFF AND PUSH20 0xFFFFFFFFFFFFFFFFFFFFFFFFFFFFFFFFFFFFFFFF AND DUP2 MSTORE PUSH1 0x20 ADD SWAP1 DUP2 MSTORE PUSH1 0x20 ADD PUSH0 KECCAK256 SLOAD SWAP1 POP SWAP1 JUMP JUMPDEST PUSH1 0x1 PUSH1 0x20 MSTORE DUP1 PUSH0 MSTORE PUSH1 0x40 PUSH0 KECCAK256 PUSH0 SWAP2 POP SWAP1 POP SLOAD DUP2 JUMP JUMPDEST PUSH1 0x4 PUSH1 0x20 MSTORE DUP1 PUSH0 MSTORE PUSH1 0x40 PUSH0 KECCAK256 PUSH0 SWAP2 POP SWAP1 POP SLOAD DUP2 JUMP JUMPDEST PUSH0 PUSH1 0x1 PUSH0 CALLER PUSH20 0xFFFFFFFFFFFFFFFFFFFFFFFFFFFFFFFFFFFFFFFF AND PUSH20 0xFFFFFFFFFFFFFFFFFFFFFFFFFFFFFFFFFFFFFFFF AND DUP2 MSTORE PUSH1 0x20 ADD SWAP1 DUP2 MSTORE PUSH1 0x20 ADD PUSH0 KECCAK256 SLOAD SWAP1 POP PUSH0 DUP2 GT PUSH2 0x4F7 JUMPI PUSH1 0x40 MLOAD PUSH32 0x8C379A000000000000000000000000000000000000000000000000000000000 DUP2 MSTORE PUSH1 0x4 ADD PUSH2 0x4EE SWAP1 PUSH2 0x16CE JUMP JUMPDEST PUSH1 0x40 MLOAD DUP1 SWAP2 SUB SWAP1 REVERT JUMPDEST PUSH0 PUSH1 0x1 PUSH0 CALLER PUSH20 0xFFFFFFFFFFFFFFFFFFFFFFFFFFFFFFFFFFFFFFFF AND PUSH20 0xFFFFFFFFFFFFFFFFFFFFFFFFFFFFFFFFFFFFFFFF AND DUP2 MSTORE PUSH1 0x20 ADD SWAP1 DUP2 MSTORE PUSH1 0x20 ADD PUSH0 KECCAK256 DUP2 SWAP1 SSTORE POP CALLER PUSH20 0xFFFFFFFFFFFFFFFFFFFFFFFFFFFFFFFFFFFFFFFF AND PUSH2 0x8FC DUP3 SWAP1 DUP2 ISZERO MUL SWAP1 PUSH1 0x40 MLOAD PUSH0 PUSH1 0x40 MLOAD DUP1 DUP4 SUB DUP2 DUP6 DUP9 DUP9 CALL SWAP4 POP POP POP POP ISZERO DUP1 ISZERO PUSH2 0x57C JUMPI RETURNDATASIZE PUSH0 DUP1 RETURNDATACOPY RETURNDATASIZE PUSH0 REVERT JUMPDEST POP POP JUMP JUMPDEST PUSH0 DUP1 PUSH0 DUP4 DUP2 MSTORE PUSH1 0x20 ADD SWAP1 DUP2 MSTORE PUSH1 0x20 ADD PUSH0 KECCAK256 SWAP1 POP DUP1 PUSH1 0x7 ADD SLOAD TIMESTAMP LT ISZERO PUSH2 0x5DA JUMPI PUSH1 0x40 MLOAD PUSH32 0x8C379A000000000000000000000000000000000000000000000000000000000 DUP2 MSTORE PUSH1 0x4 ADD PUSH2 0x5D1 SWAP1 PUSH2 0x1736 JUMP JUMPDEST PUSH1 0x40 MLOAD DUP1 SWAP2 SUB SWAP1 REVERT JUMPDEST DUP1 PUSH1 0x3 ADD PUSH1 0x14 SWAP1 SLOAD SWAP1 PUSH2 0x100 EXP SWAP1 DIV PUSH1 0xFF AND ISZERO PUSH2 0x62C JUMPI PUSH1 0x40 MLOAD PUSH32 0x8C379A000000000000000000000000000000000000000000000000000000000 DUP2 MSTORE PUSH1 0x4 ADD PUSH2 0x623 SWAP1 PUSH2 0x179E JUMP JUMPDEST PUSH1 0x40 MLOAD DUP1 SWAP2 SUB SWAP1 REVERT JUMPDEST DUP1 PUSH1 0x2 ADD SLOAD PUSH1 0x4 PUSH0 CALLER PUSH20 0xFFFFFFFFFFFFFFFFFFFFFFFFFFFFFFFFFFFFFFFF AND PUSH20 0xFFFFFFFFFFFFFFFFFFFFFFFFFFFFFFFFFFFFFFFF AND DUP2 MSTORE PUSH1 0x20 ADD SWAP1 DUP2 MSTORE PUSH1 0x20 ADD PUSH0 KECCAK256 SLOAD CALLVALUE PUSH2 0x67A SWAP2 SWAP1 PUSH2 0x17BC JUMP JUMPDEST GT PUSH2 0x6BA JUMPI PUSH1 0x40 MLOAD PUSH32 0x8C379A000000000000000000000000000000000000000000000000000000000 DUP2 MSTORE PUSH1 0x4 ADD PUSH2 0x6B1 SWAP1 PUSH2 0x1839 JUMP JUMPDEST PUSH1 0x40 MLOAD DUP1 SWAP2 SUB SWAP1 REVERT JUMPDEST PUSH0 PUSH1 0x4 PUSH0 CALLER PUSH20 0xFFFFFFFFFFFFFFFFFFFFFFFFFFFFFFFFFFFFFFFF AND PUSH20 0xFFFFFFFFFFFFFFFFFFFFFFFFFFFFFFFFFFFFFFFF AND DUP2 MSTORE PUSH1 0x20 ADD SWAP1 DUP2 MSTORE PUSH1 0x20 ADD PUSH0 KECCAK256 SLOAD CALLVALUE PUSH2 0x704 SWAP2 SWAP1 PUSH2 0x17BC JUMP JUMPDEST SWAP1 POP PUSH0 DUP3 PUSH1 0x5 ADD PUSH0 CALLER PUSH20 0xFFFFFFFFFFFFFFFFFFFFFFFFFFFFFFFFFFFFFFFF AND PUSH20 0xFFFFFFFFFFFFFFFFFFFFFFFFFFFFFFFFFFFFFFFF AND DUP2 MSTORE PUSH1 0x20 ADD SWAP1 DUP2 MSTORE PUSH1 0x20 ADD PUSH0 KECCAK256 SLOAD SWAP1 POP PUSH0 DUP2 GT ISZERO PUSH2 0x780 JUMPI PUSH0 DUP2 DUP4 PUSH2 0x75E SWAP2 SWAP1 PUSH2 0x1857 JUMP JUMPDEST SWAP1 POP DUP1 DUP5 PUSH1 0x4 ADD PUSH0 DUP3 DUP3 SLOAD PUSH2 0x773 SWAP2 SWAP1 PUSH2 0x17BC JUMP JUMPDEST SWAP3 POP POP DUP2 SWAP1 SSTORE POP POP PUSH2 0x7E3 JUMP JUMPDEST DUP3 PUSH1 0x6 ADD CALLER SWAP1 DUP1 PUSH1 0x1 DUP2 SLOAD ADD DUP1 DUP3 SSTORE DUP1 SWAP2 POP POP PUSH1 0x1 SWAP1 SUB SWAP1 PUSH0 MSTORE PUSH1 0x20 PUSH0 KECCAK256 ADD PUSH0 SWAP1 SWAP2 SWAP1 SWAP2 SWAP1 SWAP2 PUSH2 0x100 EXP DUP2 SLOAD DUP2 PUSH20 0xFFFFFFFFFFFFFFFFFFFFFFFFFFFFFFFFFFFFFFFF MUL NOT AND SWAP1 DUP4 PUSH20 0xFFFFFFFFFFFFFFFFFFFFFFFFFFFFFFFFFFFFFFFF AND MUL OR SWAP1 SSTORE POP JUMPDEST DUP2 DUP4 PUSH1 0x5 ADD PUSH0 CALLER PUSH20 0xFFFFFFFFFFFFFFFFFFFFFFFFFFFFFFFFFFFFFFFF AND PUSH20 0xFFFFFFFFFFFFFFFFFFFFFFFFFFFFFFFFFFFFFFFF AND DUP2 MSTORE PUSH1 0x20 ADD SWAP1 DUP2 MSTORE PUSH1 0x20 ADD PUSH0 KECCAK256 DUP2 SWAP1 SSTORE POP DUP2 DUP4 PUSH1 0x2 ADD DUP2 SWAP1 SSTORE POP CALLER DUP4 PUSH1 0x3 ADD PUSH0 PUSH2 0x100 EXP DUP2 SLOAD DUP2 PUSH20 0xFFFFFFFFFFFFFFFFFFFFFFFFFFFFFFFFFFFFFFFF MUL NOT AND SWAP1 DUP4 PUSH20 0xFFFFFFFFFFFFFFFFFFFFFFFFFFFFFFFFFFFFFFFF AND MUL OR SWAP1 SSTORE POP PUSH0 PUSH1 0x4 PUSH0 CALLER PUSH20 0xFFFFFFFFFFFFFFFFFFFFFFFFFFFFFFFFFFFFFFFF AND PUSH20 0xFFFFFFFFFFFFFFFFFFFFFFFFFFFFFFFFFFFFFFFF AND DUP2 MSTORE PUSH1 0x20 ADD SWAP1 DUP2 MSTORE PUSH1 0x20 ADD PUSH0 KECCAK256 DUP2 SWAP1 SSTORE POP PUSH32 0xDA0A18DA71D8EBD145966339A728FC0D8CCC07C22870D561890D823C515DDA6B DUP5 CALLER DUP5 PUSH1 0x40 MLOAD PUSH2 0x8E7 SWAP4 SWAP3 SWAP2 SWAP1 PUSH2 0x188A JUMP JUMPDEST PUSH1 0x40 MLOAD DUP1 SWAP2 SUB SWAP1 LOG1 POP POP POP POP JUMP JUMPDEST PUSH0 PUSH1 0x20 MSTORE DUP1 PUSH0 MSTORE PUSH1 0x40 PUSH0 KECCAK256 PUSH0 SWAP2 POP SWAP1 POP DUP1 PUSH0 ADD PUSH0 SWAP1 SLOAD SWAP1 PUSH2 0x100 EXP SWAP1 DIV PUSH20 0xFFFFFFFFFFFFFFFFFFFFFFFFFFFFFFFFFFFFFFFF AND SWAP1 DUP1 PUSH1 0x1 ADD SLOAD SWAP1 DUP1 PUSH1 0x2 ADD SLOAD SWAP1 DUP1 PUSH1 0x3 ADD PUSH0 SWAP1 SLOAD SWAP1 PUSH2 0x100 EXP SWAP1 DIV PUSH20 0xFFFFFFFFFFFFFFFFFFFFFFFFFFFFFFFFFFFFFFFF AND SWAP1 DUP1 PUSH1 0x3 ADD PUSH1 0x14 SWAP1 SLOAD SWAP1 PUSH2 0x100 EXP SWAP1 DIV PUSH1 0xFF AND SWAP1 DUP1 PUSH1 0x4 ADD SLOAD SWAP1 DUP1 PUSH1 0x7 ADD SLOAD SWAP1 POP DUP8 JUMP JUMPDEST PUSH0 DUP1 PUSH0 DUP4 DUP2 MSTORE PUSH1 0x20 ADD SWAP1 DUP2 MSTORE PUSH1 0x20 ADD PUSH0 KECCAK256 SWAP1 POP DUP1 PUSH0 ADD PUSH0 SWAP1 SLOAD SWAP1 PUSH2 0x100 EXP SWAP1 DIV PUSH20 0xFFFFFFFFFFFFFFFFFFFFFFFFFFFFFFFFFFFFFFFF AND PUSH20 0xFFFFFFFFFFFFFFFFFFFFFFFFFFFFFFFFFFFFFFFF AND CALLER PUSH20 0xFFFFFFFFFFFFFFFFFFFFFFFFFFFFFFFFFFFFFFFF AND EQ PUSH2 0xA20 JUMPI PUSH1 0x40 MLOAD PUSH32 0x8C379A000000000000000000000000000000000000000000000000000000000 DUP2 MSTORE PUSH1 0x4 ADD PUSH2 0xA17 SWAP1 PUSH2 0x192F JUMP JUMPDEST PUSH1 0x40 MLOAD DUP1 SWAP2 SUB SWAP1 REVERT JUMPDEST DUP1 PUSH1 0x3 ADD PUSH1 0x14 SWAP1 SLOAD SWAP1 PUSH2 0x100 EXP SWAP1 DIV PUSH1 0xFF AND ISZERO PUSH2 0xA72 JUMPI PUSH1 0x40 MLOAD PUSH32 0x8C379A000000000000000000000000000000000000000000000000000000000 DUP2 MSTORE PUSH1 0x4 ADD PUSH2 0xA69 SWAP1 PUSH2 0x179E JUMP JUMPDEST PUSH1 0x40 MLOAD DUP1 SWAP2 SUB SWAP1 REVERT JUMPDEST PUSH0 PUSH1 0x64 PUSH1 0xA PUSH1 0x64 PUSH1 0x14 DUP6 PUSH1 0x1 ADD SLOAD PUSH2 0xA8A SWAP2 SWAP1 PUSH2 0x1456 JUMP JUMPDEST PUSH2 0xA94 SWAP2 SWAP1 PUSH2 0x14C4 JUMP JUMPDEST PUSH2 0xA9E SWAP2 SWAP1 PUSH2 0x1456 JUMP JUMPDEST PUSH2 0xAA8 SWAP2 SWAP1 PUSH2 0x14C4 JUMP JUMPDEST SWAP1 POP PUSH1 0x3 PUSH0 SWAP1 SLOAD SWAP1 PUSH2 0x100 EXP SWAP1 DIV PUSH20 0xFFFFFFFFFFFFFFFFFFFFFFFFFFFFFFFFFFFFFFFF AND PUSH20 0xFFFFFFFFFFFFFFFFFFFFFFFFFFFFFFFFFFFFFFFF AND PUSH2 0x8FC DUP3 SWAP1 DUP2 ISZERO MUL SWAP1 PUSH1 0x40 MLOAD PUSH0 PUSH1 0x40 MLOAD DUP1 DUP4 SUB DUP2 DUP6 DUP9 DUP9 CALL SWAP4 POP POP POP POP ISZERO DUP1 ISZERO PUSH2 0xB0E JUMPI RETURNDATASIZE PUSH0 DUP1 RETURNDATACOPY RETURNDATASIZE PUSH0 REVERT JUMPDEST POP PUSH1 0x1 DUP3 PUSH1 0x3 ADD PUSH1 0x14 PUSH2 0x100 EXP DUP2 SLOAD DUP2 PUSH1 0xFF MUL NOT AND SWAP1 DUP4 ISZERO ISZERO MUL OR SWAP1 SSTORE POP PUSH32 0x2809C7E17BF978FBC7194C0A694B638C4215E9140CACC6C38CA36010B45697DF DUP4 PUSH1 0x40 MLOAD PUSH2 0xB5B SWAP2 SWAP1 PUSH2 0x1291 JUMP JUMPDEST PUSH1 0x40 MLOAD DUP1 SWAP2 SUB SWAP1 LOG1 POP POP POP JUMP JUMPDEST PUSH0 DUP1 PUSH0 DUP4 DUP2 MSTORE PUSH1 0x20 ADD SWAP1 DUP2 MSTORE PUSH1 0x20 ADD PUSH0 KECCAK256 SWAP1 POP DUP1 PUSH0 ADD PUSH0 SWAP1 SLOAD SWAP1 PUSH2 0x100 EXP SWAP1 DIV PUSH20 0xFFFFFFFFFFFFFFFFFFFFFFFFFFFFFFFFFFFFFFFF AND PUSH20 0xFFFFFFFFFFFFFFFFFFFFFFFFFFFFFFFFFFFFFFFF AND CALLER PUSH20 0xFFFFFFFFFFFFFFFFFFFFFFFFFFFFFFFFFFFFFFFF AND EQ PUSH2 0xC0B JUMPI PUSH1 0x40 MLOAD PUSH32 0x8C379A000000000000000000000000000000000000000000000000000000000 DUP2 MSTORE PUSH1 0x4 ADD PUSH2 0xC02 SWAP1 PUSH2 0x1997 JUMP JUMPDEST PUSH1 0x40 MLOAD DUP1 SWAP2 SUB SWAP1 REVERT JUMPDEST DUP1 PUSH1 0x3 ADD PUSH1 0x14 SWAP1 SLOAD SWAP1 PUSH2 0x100 EXP SWAP1 DIV PUSH1 0xFF AND ISZERO PUSH2 0xC5D JUMPI PUSH1 0x40 MLOAD PUSH32 0x8C379A000000000000000000000000000000000000000000000000000000000 DUP2 MSTORE PUSH1 0x4 ADD PUSH2 0xC54 SWAP1 PUSH2 0x179E JUMP JUMPDEST PUSH1 0x40 MLOAD DUP1 SWAP2 SUB SWAP1 REVERT JUMPDEST PUSH0 DUP2 PUSH1 0x2 ADD SLOAD SWAP1 POP PUSH0 PUSH1 0x64 PUSH1 0x2 DUP4 PUSH2 0xC75 SWAP2 SWAP1 PUSH2 0x1456 JUMP JUMPDEST PUSH2 0xC7F SWAP2 SWAP1 PUSH2 0x14C4 JUMP JUMPDEST SWAP1 POP PUSH0 PUSH1 0x64 PUSH1 0x5F DUP5 PUSH2 0xC91 SWAP2 SWAP1 PUSH2 0x1456 JUMP JUMPDEST PUSH2 0xC9B SWAP2 SWAP1 PUSH2 0x14C4 JUMP JUMPDEST SWAP1 POP PUSH0 PUSH1 0x64 PUSH1 0x3 DUP6 PUSH2 0xCAD SWAP2 SWAP1 PUSH2 0x1456 JUMP JUMPDEST PUSH2 0xCB7 SWAP2 SWAP1 PUSH2 0x14C4 JUMP JUMPDEST SWAP1 POP PUSH0 JUMPDEST DUP6 PUSH1 0x6 ADD DUP1 SLOAD SWAP1 POP DUP2 LT ISZERO PUSH2 0xE61 JUMPI DUP6 PUSH1 0x3 ADD PUSH0 SWAP1 SLOAD SWAP1 PUSH2 0x100 EXP SWAP1 DIV PUSH20 0xFFFFFFFFFFFFFFFFFFFFFFFFFFFFFFFFFFFFFFFF AND PUSH20 0xFFFFFFFFFFFFFFFFFFFFFFFFFFFFFFFFFFFFFFFF AND DUP7 PUSH1 0x6 ADD DUP3 DUP2 SLOAD DUP2 LT PUSH2 0xD1A JUMPI PUSH2 0xD19 PUSH2 0x19B5 JUMP JUMPDEST JUMPDEST SWAP1 PUSH0 MSTORE PUSH1 0x20 PUSH0 KECCAK256 ADD PUSH0 SWAP1 SLOAD SWAP1 PUSH2 0x100 EXP SWAP1 DIV PUSH20 0xFFFFFFFFFFFFFFFFFFFFFFFFFFFFFFFFFFFFFFFF AND PUSH20 0xFFFFFFFFFFFFFFFFFFFFFFFFFFFFFFFFFFFFFFFF AND SUB PUSH2 0xE54 JUMPI DUP6 PUSH1 0x6 ADD PUSH1 0x1 DUP8 PUSH1 0x6 ADD DUP1 SLOAD SWAP1 POP PUSH2 0xD75 SWAP2 SWAP1 PUSH2 0x1857 JUMP JUMPDEST DUP2 SLOAD DUP2 LT PUSH2 0xD86 JUMPI PUSH2 0xD85 PUSH2 0x19B5 JUMP JUMPDEST JUMPDEST SWAP1 PUSH0 MSTORE PUSH1 0x20 PUSH0 KECCAK256 ADD PUSH0 SWAP1 SLOAD SWAP1 PUSH2 0x100 EXP SWAP1 DIV PUSH20 0xFFFFFFFFFFFFFFFFFFFFFFFFFFFFFFFFFFFFFFFF AND DUP7 PUSH1 0x6 ADD DUP3 DUP2 SLOAD DUP2 LT PUSH2 0xDC4 JUMPI PUSH2 0xDC3 PUSH2 0x19B5 JUMP JUMPDEST JUMPDEST SWAP1 PUSH0 MSTORE PUSH1 0x20 PUSH0 KECCAK256 ADD PUSH0 PUSH2 0x100 EXP DUP2 SLOAD DUP2 PUSH20 0xFFFFFFFFFFFFFFFFFFFFFFFFFFFFFFFFFFFFFFFF MUL NOT AND SWAP1 DUP4 PUSH20 0xFFFFFFFFFFFFFFFFFFFFFFFFFFFFFFFFFFFFFFFF AND MUL OR SWAP1 SSTORE POP DUP6 PUSH1 0x6 ADD DUP1 SLOAD DUP1 PUSH2 0xE1D JUMPI PUSH2 0xE1C PUSH2 0x19E2 JUMP JUMPDEST JUMPDEST PUSH1 0x1 SWAP1 SUB DUP2 DUP2 SWAP1 PUSH0 MSTORE PUSH1 0x20 PUSH0 KECCAK256 ADD PUSH0 PUSH2 0x100 EXP DUP2 SLOAD SWAP1 PUSH20 0xFFFFFFFFFFFFFFFFFFFFFFFFFFFFFFFFFFFFFFFF MUL NOT AND SWAP1 SSTORE SWAP1 SSTORE PUSH2 0xE61 JUMP JUMPDEST DUP1 DUP1 PUSH1 0x1 ADD SWAP2 POP POP PUSH2 0xCBB JUMP JUMPDEST POP PUSH0 JUMPDEST DUP6 PUSH1 0x6 ADD DUP1 SLOAD SWAP1 POP DUP2 LT ISZERO PUSH2 0xFAE JUMPI PUSH0 DUP7 PUSH1 0x6 ADD DUP3 DUP2 SLOAD DUP2 LT PUSH2 0xE8A JUMPI PUSH2 0xE89 PUSH2 0x19B5 JUMP JUMPDEST JUMPDEST SWAP1 PUSH0 MSTORE PUSH1 0x20 PUSH0 KECCAK256 ADD PUSH0 SWAP1 SLOAD SWAP1 PUSH2 0x100 EXP SWAP1 DIV PUSH20 0xFFFFFFFFFFFFFFFFFFFFFFFFFFFFFFFFFFFFFFFF AND SWAP1 POP PUSH0 DUP8 PUSH1 0x4 ADD SLOAD DUP5 DUP10 PUSH1 0x5 ADD PUSH0 DUP6 PUSH20 0xFFFFFFFFFFFFFFFFFFFFFFFFFFFFFFFFFFFFFFFF AND PUSH20 0xFFFFFFFFFFFFFFFFFFFFFFFFFFFFFFFFFFFFFFFF AND DUP2 MSTORE PUSH1 0x20 ADD SWAP1 DUP2 MSTORE PUSH1 0x20 ADD PUSH0 KECCAK256 SLOAD PUSH2 0xF05 SWAP2 SWAP1 PUSH2 0x1456 JUMP JUMPDEST PUSH2 0xF0F SWAP2 SWAP1 PUSH2 0x14C4 JUMP JUMPDEST SWAP1 POP DUP1 PUSH1 0x1 PUSH0 DUP5 PUSH20 0xFFFFFFFFFFFFFFFFFFFFFFFFFFFFFFFFFFFFFFFF AND PUSH20 0xFFFFFFFFFFFFFFFFFFFFFFFFFFFFFFFFFFFFFFFF AND DUP2 MSTORE PUSH1 0x20 ADD SWAP1 DUP2 MSTORE PUSH1 0x20 ADD PUSH0 KECCAK256 PUSH0 DUP3 DUP3 SLOAD PUSH2 0xF5D SWAP2 SWAP1 PUSH2 0x17BC JUMP JUMPDEST SWAP3 POP POP DUP2 SWAP1 SSTORE POP PUSH32 0xAB7542BAFCED3DA2D8C881CB2DD1DE859FAC7C20D3650D2902AD389A64E08883 DUP10 DUP4 DUP4 PUSH1 0x40 MLOAD PUSH2 0xF97 SWAP4 SWAP3 SWAP2 SWAP1 PUSH2 0x188A JUMP JUMPDEST PUSH1 0x40 MLOAD DUP1 SWAP2 SUB SWAP1 LOG1 POP POP DUP1 DUP1 PUSH1 0x1 ADD SWAP2 POP POP PUSH2 0xE64 JUMP JUMPDEST POP PUSH1 0x3 PUSH0 SWAP1 SLOAD SWAP1 PUSH2 0x100 EXP SWAP1 DIV PUSH20 0xFFFFFFFFFFFFFFFFFFFFFFFFFFFFFFFFFFFFFFFF AND PUSH20 0xFFFFFFFFFFFFFFFFFFFFFFFFFFFFFFFFFFFFFFFF AND PUSH2 0x8FC DUP5 SWAP1 DUP2 ISZERO MUL SWAP1 PUSH1 0x40 MLOAD PUSH0 PUSH1 0x40 MLOAD DUP1 DUP4 SUB DUP2 DUP6 DUP9 DUP9 CALL SWAP4 POP POP POP POP ISZERO DUP1 ISZERO PUSH2 0x1013 JUMPI RETURNDATASIZE PUSH0 DUP1 RETURNDATACOPY RETURNDATASIZE PUSH0 REVERT JUMPDEST POP DUP5 PUSH0 ADD PUSH0 SWAP1 SLOAD SWAP1 PUSH2 0x100 EXP SWAP1 DIV PUSH20 0xFFFFFFFFFFFFFFFFFFFFFFFFFFFFFFFFFFFFFFFF AND PUSH20 0xFFFFFFFFFFFFFFFFFFFFFFFFFFFFFFFFFFFFFFFF AND PUSH2 0x8FC DUP4 SWAP1 DUP2 ISZERO MUL SWAP1 PUSH1 0x40 MLOAD PUSH0 PUSH1 0x40 MLOAD DUP1 DUP4 SUB DUP2 DUP6 DUP9 DUP9 CALL SWAP4 POP POP POP POP ISZERO DUP1 ISZERO PUSH2 0x1079 JUMPI RETURNDATASIZE PUSH0 DUP1 RETURNDATACOPY RETURNDATASIZE PUSH0 REVERT JUMPDEST POP PUSH1 0x1 DUP6 PUSH1 0x3 ADD PUSH1 0x14 PUSH2 0x100 EXP DUP2 SLOAD DUP2 PUSH1 0xFF MUL NOT AND SWAP1 DUP4 ISZERO ISZERO MUL OR SWAP1 SSTORE POP PUSH32 0xD2AA34A4FDBBC6DFF6A3E56F46E0F3AE2A31D7785FF3487AA5C95C642ACEA501 DUP7 DUP7 PUSH1 0x3 ADD PUSH0 SWAP1 SLOAD SWAP1 PUSH2 0x100 EXP SWAP1 DIV PUSH20 0xFFFFFFFFFFFFFFFFFFFFFFFFFFFFFFFFFFFFFFFF AND DUP7 PUSH1 0x40 MLOAD PUSH2 0x10ED SWAP4 SWAP3 SWAP2 SWAP1 PUSH2 0x188A JUMP JUMPDEST PUSH1 0x40 MLOAD DUP1 SWAP2 SUB SWAP1 LOG1 POP POP POP POP POP POP JUMP JUMPDEST PUSH0 CALLVALUE GT PUSH2 0x113F JUMPI PUSH1 0x40 MLOAD PUSH32 0x8C379A000000000000000000000000000000000000000000000000000000000 DUP2 MSTORE PUSH1 0x4 ADD PUSH2 0x1136 SWAP1 PUSH2 0x1A59 JUMP JUMPDEST PUSH1 0x40 MLOAD DUP1 SWAP2 SUB SWAP1 REVERT JUMPDEST CALLVALUE PUSH1 0x4 PUSH0 CALLER PUSH20 0xFFFFFFFFFFFFFFFFFFFFFFFFFFFFFFFFFFFFFFFF AND PUSH20 0xFFFFFFFFFFFFFFFFFFFFFFFFFFFFFFFFFFFFFFFF AND DUP2 MSTORE PUSH1 0x20 ADD SWAP1 DUP2 MSTORE PUSH1 0x20 ADD PUSH0 KECCAK256 PUSH0 DUP3 DUP3 SLOAD PUSH2 0x118B SWAP2 SWAP1 PUSH2 0x17BC JUMP JUMPDEST SWAP3 POP POP DUP2 SWAP1 SSTORE POP CALLER PUSH20 0xFFFFFFFFFFFFFFFFFFFFFFFFFFFFFFFFFFFFFFFF AND PUSH32 0x5D183725A9A2161720FA02284E6C4892241DE78607E9B8B5B8DEFC396F22418C CALLVALUE PUSH1 0x40 MLOAD PUSH2 0x11D8 SWAP2 SWAP1 PUSH2 0x1291 JUMP JUMPDEST PUSH1 0x40 MLOAD DUP1 SWAP2 SUB SWAP1 LOG2 JUMP JUMPDEST PUSH1 0x3 PUSH0 SWAP1 SLOAD SWAP1 PUSH2 0x100 EXP SWAP1 DIV PUSH20 0xFFFFFFFFFFFFFFFFFFFFFFFFFFFFFFFFFFFFFFFF AND DUP2 JUMP JUMPDEST PUSH1 0x2 SLOAD DUP2 JUMP JUMPDEST PUSH0 DUP1 REVERT JUMPDEST PUSH0 DUP2 SWAP1 POP SWAP2 SWAP1 POP JUMP JUMPDEST PUSH2 0x1223 DUP2 PUSH2 0x1211 JUMP JUMPDEST DUP2 EQ PUSH2 0x122D JUMPI PUSH0 DUP1 REVERT JUMPDEST POP JUMP JUMPDEST PUSH0 DUP2 CALLDATALOAD SWAP1 POP PUSH2 0x123E DUP2 PUSH2 0x121A JUMP JUMPDEST SWAP3 SWAP2 POP POP JUMP JUMPDEST PUSH0 DUP1 PUSH1 0x40 DUP4 DUP6 SUB SLT ISZERO PUSH2 0x125A JUMPI PUSH2 0x1259 PUSH2 0x120D JUMP JUMPDEST JUMPDEST PUSH0 PUSH2 0x1267 DUP6 DUP3 DUP7 ADD PUSH2 0x1230 JUMP JUMPDEST SWAP3 POP POP PUSH1 0x20 PUSH2 0x1278 DUP6 DUP3 DUP7 ADD PUSH2 0x1230 JUMP JUMPDEST SWAP2 POP POP SWAP3 POP SWAP3 SWAP1 POP JUMP JUMPDEST PUSH2 0x128B DUP2 PUSH2 0x1211 JUMP JUMPDEST DUP3 MSTORE POP POP JUMP JUMPDEST PUSH0 PUSH1 0x20 DUP3 ADD SWAP1 POP PUSH2 0x12A4 PUSH0 DUP4 ADD DUP5 PUSH2 0x1282 JUMP JUMPDEST SWAP3 SWAP2 POP POP JUMP JUMPDEST PUSH0 PUSH20 0xFFFFFFFFFFFFFFFFFFFFFFFFFFFFFFFFFFFFFFFF DUP3 AND SWAP1 POP SWAP2 SWAP1 POP JUMP JUMPDEST PUSH0 PUSH2 0x12D3 DUP3 PUSH2 0x12AA JUMP JUMPDEST SWAP1 POP SWAP2 SWAP1 POP JUMP JUMPDEST PUSH2 0x12E3 DUP2 PUSH2 0x12C9 JUMP JUMPDEST DUP2 EQ PUSH2 0x12ED JUMPI PUSH0 DUP1 REVERT JUMPDEST POP JUMP JUMPDEST PUSH0 DUP2 CALLDATALOAD SWAP1 POP PUSH2 0x12FE DUP2 PUSH2 0x12DA JUMP JUMPDEST SWAP3 SWAP2 POP POP JUMP JUMPDEST PUSH0 PUSH1 0x20 DUP3 DUP5 SUB SLT ISZERO PUSH2 0x1319 JUMPI PUSH2 0x1318 PUSH2 0x120D JUMP JUMPDEST JUMPDEST PUSH0 PUSH2 0x1326 DUP5 DUP3 DUP6 ADD PUSH2 0x12F0 JUMP JUMPDEST SWAP2 POP POP SWAP3 SWAP2 POP POP JUMP JUMPDEST PUSH0 PUSH1 0x20 DUP3 DUP5 SUB SLT ISZERO PUSH2 0x1344 JUMPI PUSH2 0x1343 PUSH2 0x120D JUMP JUMPDEST JUMPDEST PUSH0 PUSH2 0x1351 DUP5 DUP3 DUP6 ADD PUSH2 0x1230 JUMP JUMPDEST SWAP2 POP POP SWAP3 SWAP2 POP POP JUMP JUMPDEST PUSH2 0x1363 DUP2 PUSH2 0x12C9 JUMP JUMPDEST DUP3 MSTORE POP POP JUMP JUMPDEST PUSH0 DUP2 ISZERO ISZERO SWAP1 POP SWAP2 SWAP1 POP JUMP JUMPDEST PUSH2 0x137D DUP2 PUSH2 0x1369 JUMP JUMPDEST DUP3 MSTORE POP POP JUMP JUMPDEST PUSH0 PUSH1 0xE0 DUP3 ADD SWAP1 POP PUSH2 0x1396 PUSH0 DUP4 ADD DUP11 PUSH2 0x135A JUMP JUMPDEST PUSH2 0x13A3 PUSH1 0x20 DUP4 ADD DUP10 PUSH2 0x1282 JUMP JUMPDEST PUSH2 0x13B0 PUSH1 0x40 DUP4 ADD DUP9 PUSH2 0x1282 JUMP JUMPDEST PUSH2 0x13BD PUSH1 0x60 DUP4 ADD DUP8 PUSH2 0x135A JUMP JUMPDEST PUSH2 0x13CA PUSH1 0x80 DUP4 ADD DUP7 PUSH2 0x1374 JUMP JUMPDEST PUSH2 0x13D7 PUSH1 0xA0 DUP4 ADD DUP6 PUSH2 0x1282 JUMP JUMPDEST PUSH2 0x13E4 PUSH1 0xC0 DUP4 ADD DUP5 PUSH2 0x1282 JUMP JUMPDEST SWAP9 SWAP8 POP POP POP POP POP POP POP POP JUMP JUMPDEST PUSH0 PUSH2 0x13FA DUP3 PUSH2 0x12AA JUMP JUMPDEST SWAP1 POP SWAP2 SWAP1 POP JUMP JUMPDEST PUSH2 0x140A DUP2 PUSH2 0x13F0 JUMP JUMPDEST DUP3 MSTORE POP POP JUMP JUMPDEST PUSH0 PUSH1 0x20 DUP3 ADD SWAP1 POP PUSH2 0x1423 PUSH0 DUP4 ADD DUP5 PUSH2 0x1401 JUMP JUMPDEST SWAP3 SWAP2 POP POP JUMP JUMPDEST PUSH32 0x4E487B7100000000000000000000000000000000000000000000000000000000 PUSH0 MSTORE PUSH1 0x11 PUSH1 0x4 MSTORE PUSH1 0x24 PUSH0 REVERT JUMPDEST PUSH0 PUSH2 0x1460 DUP3 PUSH2 0x1211 JUMP JUMPDEST SWAP2 POP PUSH2 0x146B DUP4 PUSH2 0x1211 JUMP JUMPDEST SWAP3 POP DUP3 DUP3 MUL PUSH2 0x1479 DUP2 PUSH2 0x1211 JUMP JUMPDEST SWAP2 POP DUP3 DUP3 DIV DUP5 EQ DUP4 ISZERO OR PUSH2 0x1490 JUMPI PUSH2 0x148F PUSH2 0x1429 JUMP JUMPDEST JUMPDEST POP SWAP3 SWAP2 POP POP JUMP JUMPDEST PUSH32 0x4E487B7100000000000000000000000000000000000000000000000000000000 PUSH0 MSTORE PUSH1 0x12 PUSH1 0x4 MSTORE PUSH1 0x24 PUSH0 REVERT JUMPDEST PUSH0 PUSH2 0x14CE DUP3 PUSH2 0x1211 JUMP JUMPDEST SWAP2 POP PUSH2 0x14D9 DUP4 PUSH2 0x1211 JUMP JUMPDEST SWAP3 POP DUP3 PUSH2 0x14E9 JUMPI PUSH2 0x14E8 PUSH2 0x1497 JUMP JUMPDEST JUMPDEST DUP3 DUP3 DIV SWAP1 POP SWAP3 SWAP2 POP POP JUMP JUMPDEST PUSH0 DUP3 DUP3 MSTORE PUSH1 0x20 DUP3 ADD SWAP1 POP SWAP3 SWAP2 POP POP JUMP JUMPDEST PUSH32 0x4465706F736974206D757374206265206174206C6561737420323025206F6620 PUSH0 DUP3 ADD MSTORE PUSH32 0x7374617274696E67207072696365000000000000000000000000000000000000 PUSH1 0x20 DUP3 ADD MSTORE POP JUMP JUMPDEST PUSH0 PUSH2 0x155E PUSH1 0x2E DUP4 PUSH2 0x14F4 JUMP JUMPDEST SWAP2 POP PUSH2 0x1569 DUP3 PUSH2 0x1504 JUMP JUMPDEST PUSH1 0x40 DUP3 ADD SWAP1 POP SWAP2 SWAP1 POP JUMP JUMPDEST PUSH0 PUSH1 0x20 DUP3 ADD SWAP1 POP DUP2 DUP2 SUB PUSH0 DUP4 ADD MSTORE PUSH2 0x158B DUP2 PUSH2 0x1552 JUMP JUMPDEST SWAP1 POP SWAP2 SWAP1 POP JUMP JUMPDEST PUSH32 0x53746172742074696D65206D75737420626520696E2074686520667574757265 PUSH0 DUP3 ADD MSTORE POP JUMP JUMPDEST PUSH0 PUSH2 0x15C6 PUSH1 0x20 DUP4 PUSH2 0x14F4 JUMP JUMPDEST SWAP2 POP PUSH2 0x15D1 DUP3 PUSH2 0x1592 JUMP JUMPDEST PUSH1 0x20 DUP3 ADD SWAP1 POP SWAP2 SWAP1 POP JUMP JUMPDEST PUSH0 PUSH1 0x20 DUP3 ADD SWAP1 POP DUP2 DUP2 SUB PUSH0 DUP4 ADD MSTORE PUSH2 0x15F3 DUP2 PUSH2 0x15BA JUMP JUMPDEST SWAP1 POP SWAP2 SWAP1 POP JUMP JUMPDEST PUSH0 PUSH2 0x1604 DUP3 PUSH2 0x1211 JUMP JUMPDEST SWAP2 POP PUSH32 0xFFFFFFFFFFFFFFFFFFFFFFFFFFFFFFFFFFFFFFFFFFFFFFFFFFFFFFFFFFFFFFFF DUP3 SUB PUSH2 0x1636 JUMPI PUSH2 0x1635 PUSH2 0x1429 JUMP JUMPDEST JUMPDEST PUSH1 0x1 DUP3 ADD SWAP1 POP SWAP2 SWAP1 POP JUMP JUMPDEST PUSH0 PUSH1 0x80 DUP3 ADD SWAP1 POP PUSH2 0x1654 PUSH0 DUP4 ADD DUP8 PUSH2 0x1282 JUMP JUMPDEST PUSH2 0x1661 PUSH1 0x20 DUP4 ADD DUP7 PUSH2 0x135A JUMP JUMPDEST PUSH2 0x166E PUSH1 0x40 DUP4 ADD DUP6 PUSH2 0x1282 JUMP JUMPDEST PUSH2 0x167B PUSH1 0x60 DUP4 ADD DUP5 PUSH2 0x1282 JUMP JUMPDEST SWAP6 SWAP5 POP POP POP POP POP JUMP JUMPDEST PUSH32 0x4E6F2070656E64696E672072657475726E730000000000000000000000000000 PUSH0 DUP3 ADD MSTORE POP JUMP JUMPDEST PUSH0 PUSH2 0x16B8 PUSH1 0x12 DUP4 PUSH2 0x14F4 JUMP JUMPDEST SWAP2 POP PUSH2 0x16C3 DUP3 PUSH2 0x1684 JUMP JUMPDEST PUSH1 0x20 DUP3 ADD SWAP1 POP SWAP2 SWAP1 POP JUMP JUMPDEST PUSH0 PUSH1 0x20 DUP3 ADD SWAP1 POP DUP2 DUP2 SUB PUSH0 DUP4 ADD MSTORE PUSH2 0x16E5 DUP2 PUSH2 0x16AC JUMP JUMPDEST SWAP1 POP SWAP2 SWAP1 POP JUMP JUMPDEST PUSH32 0x41756374696F6E20686173206E6F742073746172746564207965740000000000 PUSH0 DUP3 ADD MSTORE POP JUMP JUMPDEST PUSH0 PUSH2 0x1720 PUSH1 0x1B DUP4 PUSH2 0x14F4 JUMP JUMPDEST SWAP2 POP PUSH2 0x172B DUP3 PUSH2 0x16EC JUMP JUMPDEST PUSH1 0x20 DUP3 ADD SWAP1 POP SWAP2 SWAP1 POP JUMP JUMPDEST PUSH0 PUSH1 0x20 DUP3 ADD SWAP1 POP DUP2 DUP2 SUB PUSH0 DUP4 ADD MSTORE PUSH2 0x174D DUP2 PUSH2 0x1714 JUMP JUMPDEST SWAP1 POP SWAP2 SWAP1 POP JUMP JUMPDEST PUSH32 0x41756374696F6E20616C726561647920656E6465640000000000000000000000 PUSH0 DUP3 ADD MSTORE POP JUMP JUMPDEST PUSH0 PUSH2 0x1788 PUSH1 0x15 DUP4 PUSH2 0x14F4 JUMP JUMPDEST SWAP2 POP PUSH2 0x1793 DUP3 PUSH2 0x1754 JUMP JUMPDEST PUSH1 0x20 DUP3 ADD SWAP1 POP SWAP2 SWAP1 POP JUMP JUMPDEST PUSH0 PUSH1 0x20 DUP3 ADD SWAP1 POP DUP2 DUP2 SUB PUSH0 DUP4 ADD MSTORE PUSH2 0x17B5 DUP2 PUSH2 0x177C JUMP JUMPDEST SWAP1 POP SWAP2 SWAP1 POP JUMP JUMPDEST PUSH0 PUSH2 0x17C6 DUP3 PUSH2 0x1211 JUMP JUMPDEST SWAP2 POP PUSH2 0x17D1 DUP4 PUSH2 0x1211 JUMP JUMPDEST SWAP3 POP DUP3 DUP3 ADD SWAP1 POP DUP1 DUP3 GT ISZERO PUSH2 0x17E9 JUMPI PUSH2 0x17E8 PUSH2 0x1429 JUMP JUMPDEST JUMPDEST SWAP3 SWAP2 POP POP JUMP JUMPDEST PUSH32 0x546865726520616C726561647920697320612068696768657220626964000000 PUSH0 DUP3 ADD MSTORE POP JUMP JUMPDEST PUSH0 PUSH2 0x1823 PUSH1 0x1D DUP4 PUSH2 0x14F4 JUMP JUMPDEST SWAP2 POP PUSH2 0x182E DUP3 PUSH2 0x17EF JUMP JUMPDEST PUSH1 0x20 DUP3 ADD SWAP1 POP SWAP2 SWAP1 POP JUMP JUMPDEST PUSH0 PUSH1 0x20 DUP3 ADD SWAP1 POP DUP2 DUP2 SUB PUSH0 DUP4 ADD MSTORE PUSH2 0x1850 DUP2 PUSH2 0x1817 JUMP JUMPDEST SWAP1 POP SWAP2 SWAP1 POP JUMP JUMPDEST PUSH0 PUSH2 0x1861 DUP3 PUSH2 0x1211 JUMP JUMPDEST SWAP2 POP PUSH2 0x186C DUP4 PUSH2 0x1211 JUMP JUMPDEST SWAP3 POP DUP3 DUP3 SUB SWAP1 POP DUP2 DUP2 GT ISZERO PUSH2 0x1884 JUMPI PUSH2 0x1883 PUSH2 0x1429 JUMP JUMPDEST JUMPDEST SWAP3 SWAP2 POP POP JUMP JUMPDEST PUSH0 PUSH1 0x60 DUP3 ADD SWAP1 POP PUSH2 0x189D PUSH0 DUP4 ADD DUP7 PUSH2 0x1282 JUMP JUMPDEST PUSH2 0x18AA PUSH1 0x20 DUP4 ADD DUP6 PUSH2 0x135A JUMP JUMPDEST PUSH2 0x18B7 PUSH1 0x40 DUP4 ADD DUP5 PUSH2 0x1282 JUMP JUMPDEST SWAP5 SWAP4 POP POP POP POP JUMP JUMPDEST PUSH32 0x4F6E6C792073656C6C65722063616E2063616E63656C20746865206175637469 PUSH0 DUP3 ADD MSTORE PUSH32 0x6F6E000000000000000000000000000000000000000000000000000000000000 PUSH1 0x20 DUP3 ADD MSTORE POP JUMP JUMPDEST PUSH0 PUSH2 0x1919 PUSH1 0x22 DUP4 PUSH2 0x14F4 JUMP JUMPDEST SWAP2 POP PUSH2 0x1924 DUP3 PUSH2 0x18BF JUMP JUMPDEST PUSH1 0x40 DUP3 ADD SWAP1 POP SWAP2 SWAP1 POP JUMP JUMPDEST PUSH0 PUSH1 0x20 DUP3 ADD SWAP1 POP DUP2 DUP2 SUB PUSH0 DUP4 ADD MSTORE PUSH2 0x1946 DUP2 PUSH2 0x190D JUMP JUMPDEST SWAP1 POP SWAP2 SWAP1 POP JUMP JUMPDEST PUSH32 0x4F6E6C792073656C6C65722063616E20656E64207468652061756374696F6E00 PUSH0 DUP3 ADD MSTORE POP JUMP JUMPDEST PUSH0 PUSH2 0x1981 PUSH1 0x1F DUP4 PUSH2 0x14F4 JUMP JUMPDEST SWAP2 POP PUSH2 0x198C DUP3 PUSH2 0x194D JUMP JUMPDEST PUSH1 0x20 DUP3 ADD SWAP1 POP SWAP2 SWAP1 POP JUMP JUMPDEST PUSH0 PUSH1 0x20 DUP3 ADD SWAP1 POP DUP2 DUP2 SUB PUSH0 DUP4 ADD MSTORE PUSH2 0x19AE DUP2 PUSH2 0x1975 JUMP JUMPDEST SWAP1 POP SWAP2 SWAP1 POP JUMP JUMPDEST PUSH32 0x4E487B7100000000000000000000000000000000000000000000000000000000 PUSH0 MSTORE PUSH1 0x32 PUSH1 0x4 MSTORE PUSH1 0x24 PUSH0 REVERT JUMPDEST PUSH32 0x4E487B7100000000000000000000000000000000000000000000000000000000 PUSH0 MSTORE PUSH1 0x31 PUSH1 0x4 MSTORE PUSH1 0x24 PUSH0 REVERT JUMPDEST PUSH32 0x4D7573742073656E642045544820746F2061646420746F207265736572766500 PUSH0 DUP3 ADD MSTORE POP JUMP JUMPDEST PUSH0 PUSH2 0x1A43 PUSH1 0x1F DUP4 PUSH2 0x14F4 JUMP JUMPDEST SWAP2 POP PUSH2 0x1A4E DUP3 PUSH2 0x1A0F JUMP JUMPDEST PUSH1 0x20 DUP3 ADD SWAP1 POP SWAP2 SWAP1 POP JUMP JUMPDEST PUSH0 PUSH1 0x20 DUP3 ADD SWAP1 POP DUP2 DUP2 SUB PUSH0 DUP4 ADD MSTORE PUSH2 0x1A70 DUP2 PUSH2 0x1A37 JUMP JUMPDEST SWAP1 POP SWAP2 SWAP1 POP JUMP INVALID LOG2 PUSH5 0x6970667358 0x22 SLT KECCAK256 MSTORE PUSH18 0xBA6827B832DC7A6274D061D11195D8A5CED BLOBBASEFEE 0xE0 PUSH0 PC CALLDATASIZE DUP16 0xD2 CALLDATACOPY PUSH11 0x77A00564736F6C63430008 XOR STOP CALLER "
				},
				"gasEstimates": {
					"creation": {
						"codeDepositCost": "1365800",
						"executionCost": "infinite",
						"totalCost": "infinite"
					},
					"external": {
						"auctions(uint256)": "infinite",
						"balances(address)": "2869",
						"bid(uint256)": "infinite",
						"cancelAuction(uint256)": "infinite",
						"createAuction(uint256,uint256)": "infinite",
						"endAuction(uint256)": "infinite",
						"getBalance()": "2542",
						"nextAuctionId()": "2535",
						"pendingReturns(address)": "2847",
						"platformAddress()": "2596",
						"reserve()": "infinite",
						"withdraw()": "infinite"
					}
				},
				"methodIdentifiers": {
					"auctions(uint256)": "571a26a0",
					"balances(address)": "27e235e3",
					"bid(uint256)": "454a2ab3",
					"cancelAuction(uint256)": "96b5a755",
					"createAuction(uint256,uint256)": "0121683f",
					"endAuction(uint256)": "b9a2de3a",
					"getBalance()": "12065fe0",
					"nextAuctionId()": "fc528482",
					"pendingReturns(address)": "26b387bb",
					"platformAddress()": "dbe55e56",
					"reserve()": "cd3293de",
					"withdraw()": "3ccfd60b"
				}
			},
			"storageLayout": {
				"storage": [
					{
						"astId": 75,
						"contract": "Auction/code/Contract.sol:EnglishAuction",
						"label": "auctions",
						"offset": 0,
						"slot": "0",
						"type": "t_mapping(t_uint256,t_struct(AuctionItem)70_storage)"
					},
					{
						"astId": 79,
						"contract": "Auction/code/Contract.sol:EnglishAuction",
						"label": "pendingReturns",
						"offset": 0,
						"slot": "1",
						"type": "t_mapping(t_address,t_uint256)"
					},
					{
						"astId": 81,
						"contract": "Auction/code/Contract.sol:EnglishAuction",
						"label": "nextAuctionId",
						"offset": 0,
						"slot": "2",
						"type": "t_uint256"
					},
					{
						"astId": 83,
						"contract": "Auction/code/Contract.sol:EnglishAuction",
						"label": "platformAddress",
						"offset": 0,
						"slot": "3",
						"type": "t_address_payable"
					},
					{
						"astId": 87,
						"contract": "Auction/code/Contract.sol:EnglishAuction",
						"label": "balances",
						"offset": 0,
						"slot": "4",
						"type": "t_mapping(t_address,t_uint256)"
					}
				],
				"types": {
					"t_address": {
						"encoding": "inplace",
						"label": "address",
						"numberOfBytes": "20"
					},
					"t_address_payable": {
						"encoding": "inplace",
						"label": "address payable",
						"numberOfBytes": "20"
					},
					"t_array(t_address)dyn_storage": {
						"base": "t_address",
						"encoding": "dynamic_array",
						"label": "address[]",
						"numberOfBytes": "32"
					},
					"t_bool": {
						"encoding": "inplace",
						"label": "bool",
						"numberOfBytes": "1"
					},
					"t_mapping(t_address,t_uint256)": {
						"encoding": "mapping",
						"key": "t_address",
						"label": "mapping(address => uint256)",
						"numberOfBytes": "32",
						"value": "t_uint256"
					},
					"t_mapping(t_uint256,t_struct(AuctionItem)70_storage)": {
						"encoding": "mapping",
						"key": "t_uint256",
						"label": "mapping(uint256 => struct EnglishAuction.AuctionItem)",
						"numberOfBytes": "32",
						"value": "t_struct(AuctionItem)70_storage"
					},
					"t_struct(AuctionItem)70_storage": {
						"encoding": "inplace",
						"label": "struct EnglishAuction.AuctionItem",
						"members": [
							{
								"astId": 50,
								"contract": "Auction/code/Contract.sol:EnglishAuction",
								"label": "seller",
								"offset": 0,
								"slot": "0",
								"type": "t_address"
							},
							{
								"astId": 52,
								"contract": "Auction/code/Contract.sol:EnglishAuction",
								"label": "startingPrice",
								"offset": 0,
								"slot": "1",
								"type": "t_uint256"
							},
							{
								"astId": 54,
								"contract": "Auction/code/Contract.sol:EnglishAuction",
								"label": "currentHighestBid",
								"offset": 0,
								"slot": "2",
								"type": "t_uint256"
							},
							{
								"astId": 56,
								"contract": "Auction/code/Contract.sol:EnglishAuction",
								"label": "currentHighestBidder",
								"offset": 0,
								"slot": "3",
								"type": "t_address"
							},
							{
								"astId": 58,
								"contract": "Auction/code/Contract.sol:EnglishAuction",
								"label": "ended",
								"offset": 20,
								"slot": "3",
								"type": "t_bool"
							},
							{
								"astId": 60,
								"contract": "Auction/code/Contract.sol:EnglishAuction",
								"label": "totalBidAmount",
								"offset": 0,
								"slot": "4",
								"type": "t_uint256"
							},
							{
								"astId": 64,
								"contract": "Auction/code/Contract.sol:EnglishAuction",
								"label": "bidAmounts",
								"offset": 0,
								"slot": "5",
								"type": "t_mapping(t_address,t_uint256)"
							},
							{
								"astId": 67,
								"contract": "Auction/code/Contract.sol:EnglishAuction",
								"label": "bidders",
								"offset": 0,
								"slot": "6",
								"type": "t_array(t_address)dyn_storage"
							},
							{
								"astId": 69,
								"contract": "Auction/code/Contract.sol:EnglishAuction",
								"label": "startTime",
								"offset": 0,
								"slot": "7",
								"type": "t_uint256"
							}
						],
						"numberOfBytes": "256"
					},
					"t_uint256": {
						"encoding": "inplace",
						"label": "uint256",
						"numberOfBytes": "32"
					}
				}
			},
			"userdoc": {
				"kind": "user",
				"methods": {},
				"version": 1
			}
		}
	}
}